{
	"src/MockToken_flattened.sol": {
		"mockERC1155Token": {
			"abi": [
				{
					"inputs": [],
					"stateMutability": "nonpayable",
					"type": "constructor"
				},
				{
					"inputs": [
						{
							"internalType": "address",
							"name": "sender",
							"type": "address"
						},
						{
							"internalType": "uint256",
							"name": "balance",
							"type": "uint256"
						},
						{
							"internalType": "uint256",
							"name": "needed",
							"type": "uint256"
						},
						{
							"internalType": "uint256",
							"name": "tokenId",
							"type": "uint256"
						}
					],
					"name": "ERC1155InsufficientBalance",
					"type": "error"
				},
				{
					"inputs": [
						{
							"internalType": "address",
							"name": "approver",
							"type": "address"
						}
					],
					"name": "ERC1155InvalidApprover",
					"type": "error"
				},
				{
					"inputs": [
						{
							"internalType": "uint256",
							"name": "idsLength",
							"type": "uint256"
						},
						{
							"internalType": "uint256",
							"name": "valuesLength",
							"type": "uint256"
						}
					],
					"name": "ERC1155InvalidArrayLength",
					"type": "error"
				},
				{
					"inputs": [
						{
							"internalType": "address",
							"name": "operator",
							"type": "address"
						}
					],
					"name": "ERC1155InvalidOperator",
					"type": "error"
				},
				{
					"inputs": [
						{
							"internalType": "address",
							"name": "receiver",
							"type": "address"
						}
					],
					"name": "ERC1155InvalidReceiver",
					"type": "error"
				},
				{
					"inputs": [
						{
							"internalType": "address",
							"name": "sender",
							"type": "address"
						}
					],
					"name": "ERC1155InvalidSender",
					"type": "error"
				},
				{
					"inputs": [
						{
							"internalType": "address",
							"name": "operator",
							"type": "address"
						},
						{
							"internalType": "address",
							"name": "owner",
							"type": "address"
						}
					],
					"name": "ERC1155MissingApprovalForAll",
					"type": "error"
				},
				{
					"anonymous": false,
					"inputs": [
						{
							"indexed": true,
							"internalType": "address",
							"name": "account",
							"type": "address"
						},
						{
							"indexed": true,
							"internalType": "address",
							"name": "operator",
							"type": "address"
						},
						{
							"indexed": false,
							"internalType": "bool",
							"name": "approved",
							"type": "bool"
						}
					],
					"name": "ApprovalForAll",
					"type": "event"
				},
				{
					"anonymous": false,
					"inputs": [
						{
							"indexed": true,
							"internalType": "address",
							"name": "operator",
							"type": "address"
						},
						{
							"indexed": true,
							"internalType": "address",
							"name": "from",
							"type": "address"
						},
						{
							"indexed": true,
							"internalType": "address",
							"name": "to",
							"type": "address"
						},
						{
							"indexed": false,
							"internalType": "uint256[]",
							"name": "ids",
							"type": "uint256[]"
						},
						{
							"indexed": false,
							"internalType": "uint256[]",
							"name": "values",
							"type": "uint256[]"
						}
					],
					"name": "TransferBatch",
					"type": "event"
				},
				{
					"anonymous": false,
					"inputs": [
						{
							"indexed": true,
							"internalType": "address",
							"name": "operator",
							"type": "address"
						},
						{
							"indexed": true,
							"internalType": "address",
							"name": "from",
							"type": "address"
						},
						{
							"indexed": true,
							"internalType": "address",
							"name": "to",
							"type": "address"
						},
						{
							"indexed": false,
							"internalType": "uint256",
							"name": "id",
							"type": "uint256"
						},
						{
							"indexed": false,
							"internalType": "uint256",
							"name": "value",
							"type": "uint256"
						}
					],
					"name": "TransferSingle",
					"type": "event"
				},
				{
					"anonymous": false,
					"inputs": [
						{
							"indexed": false,
							"internalType": "string",
							"name": "value",
							"type": "string"
						},
						{
							"indexed": true,
							"internalType": "uint256",
							"name": "id",
							"type": "uint256"
						}
					],
					"name": "URI",
					"type": "event"
				},
				{
					"inputs": [
						{
							"internalType": "address",
							"name": "account",
							"type": "address"
						},
						{
							"internalType": "uint256",
							"name": "id",
							"type": "uint256"
						}
					],
					"name": "balanceOf",
					"outputs": [
						{
							"internalType": "uint256",
							"name": "",
							"type": "uint256"
						}
					],
					"stateMutability": "view",
					"type": "function"
				},
				{
					"inputs": [
						{
							"internalType": "address[]",
							"name": "accounts",
							"type": "address[]"
						},
						{
							"internalType": "uint256[]",
							"name": "ids",
							"type": "uint256[]"
						}
					],
					"name": "balanceOfBatch",
					"outputs": [
						{
							"internalType": "uint256[]",
							"name": "",
							"type": "uint256[]"
						}
					],
					"stateMutability": "view",
					"type": "function"
				},
				{
					"inputs": [
						{
							"internalType": "address",
							"name": "account",
							"type": "address"
						},
						{
							"internalType": "address",
							"name": "operator",
							"type": "address"
						}
					],
					"name": "isApprovedForAll",
					"outputs": [
						{
							"internalType": "bool",
							"name": "",
							"type": "bool"
						}
					],
					"stateMutability": "view",
					"type": "function"
				},
				{
					"inputs": [
						{
							"internalType": "address",
							"name": "_to",
							"type": "address"
						},
						{
							"internalType": "uint256",
							"name": "_id",
							"type": "uint256"
						},
						{
							"internalType": "uint256",
							"name": "_amount",
							"type": "uint256"
						}
					],
					"name": "mint",
					"outputs": [],
					"stateMutability": "nonpayable",
					"type": "function"
				},
				{
					"inputs": [
						{
							"internalType": "address",
							"name": "from",
							"type": "address"
						},
						{
							"internalType": "address",
							"name": "to",
							"type": "address"
						},
						{
							"internalType": "uint256[]",
							"name": "ids",
							"type": "uint256[]"
						},
						{
							"internalType": "uint256[]",
							"name": "values",
							"type": "uint256[]"
						},
						{
							"internalType": "bytes",
							"name": "data",
							"type": "bytes"
						}
					],
					"name": "safeBatchTransferFrom",
					"outputs": [],
					"stateMutability": "nonpayable",
					"type": "function"
				},
				{
					"inputs": [
						{
							"internalType": "address",
							"name": "from",
							"type": "address"
						},
						{
							"internalType": "address",
							"name": "to",
							"type": "address"
						},
						{
							"internalType": "uint256",
							"name": "id",
							"type": "uint256"
						},
						{
							"internalType": "uint256",
							"name": "value",
							"type": "uint256"
						},
						{
							"internalType": "bytes",
							"name": "data",
							"type": "bytes"
						}
					],
					"name": "safeTransferFrom",
					"outputs": [],
					"stateMutability": "nonpayable",
					"type": "function"
				},
				{
					"inputs": [
						{
							"internalType": "address",
							"name": "operator",
							"type": "address"
						},
						{
							"internalType": "bool",
							"name": "approved",
							"type": "bool"
						}
					],
					"name": "setApprovalForAll",
					"outputs": [],
					"stateMutability": "nonpayable",
					"type": "function"
				},
				{
					"inputs": [
						{
							"internalType": "bytes4",
							"name": "interfaceId",
							"type": "bytes4"
						}
					],
					"name": "supportsInterface",
					"outputs": [
						{
							"internalType": "bool",
							"name": "",
							"type": "bool"
						}
					],
					"stateMutability": "view",
					"type": "function"
				},
				{
					"inputs": [
						{
							"internalType": "uint256",
							"name": "",
							"type": "uint256"
						}
					],
					"name": "uri",
					"outputs": [
						{
							"internalType": "string",
							"name": "",
							"type": "string"
						}
					],
					"stateMutability": "view",
					"type": "function"
				}
			],
			"devdoc": {
				"errors": {
					"ERC1155InsufficientBalance(address,uint256,uint256,uint256)": [
						{
							"details": "Indicates an error related to the current `balance` of a `sender`. Used in transfers.",
							"params": {
								"balance": "Current balance for the interacting account.",
								"needed": "Minimum amount required to perform a transfer.",
								"sender": "Address whose tokens are being transferred.",
								"tokenId": "Identifier number of a token."
							}
						}
					],
					"ERC1155InvalidApprover(address)": [
						{
							"details": "Indicates a failure with the `approver` of a token to be approved. Used in approvals.",
							"params": {
								"approver": "Address initiating an approval operation."
							}
						}
					],
					"ERC1155InvalidArrayLength(uint256,uint256)": [
						{
							"details": "Indicates an array length mismatch between ids and values in a safeBatchTransferFrom operation. Used in batch transfers.",
							"params": {
								"idsLength": "Length of the array of token identifiers",
								"valuesLength": "Length of the array of token amounts"
							}
						}
					],
					"ERC1155InvalidOperator(address)": [
						{
							"details": "Indicates a failure with the `operator` to be approved. Used in approvals.",
							"params": {
								"operator": "Address that may be allowed to operate on tokens without being their owner."
							}
						}
					],
					"ERC1155InvalidReceiver(address)": [
						{
							"details": "Indicates a failure with the token `receiver`. Used in transfers.",
							"params": {
								"receiver": "Address to which tokens are being transferred."
							}
						}
					],
					"ERC1155InvalidSender(address)": [
						{
							"details": "Indicates a failure with the token `sender`. Used in transfers.",
							"params": {
								"sender": "Address whose tokens are being transferred."
							}
						}
					],
					"ERC1155MissingApprovalForAll(address,address)": [
						{
							"details": "Indicates a failure with the `operator`’s approval. Used in transfers.",
							"params": {
								"operator": "Address that may be allowed to operate on tokens without being their owner.",
								"owner": "Address of the current owner of a token."
							}
						}
					]
				},
				"events": {
					"ApprovalForAll(address,address,bool)": {
						"details": "Emitted when `account` grants or revokes permission to `operator` to transfer their tokens, according to `approved`."
					},
					"TransferBatch(address,address,address,uint256[],uint256[])": {
						"details": "Equivalent to multiple {TransferSingle} events, where `operator`, `from` and `to` are the same for all transfers."
					},
					"TransferSingle(address,address,address,uint256,uint256)": {
						"details": "Emitted when `value` amount of tokens of type `id` are transferred from `from` to `to` by `operator`."
					},
					"URI(string,uint256)": {
						"details": "Emitted when the URI for token type `id` changes to `value`, if it is a non-programmatic URI. If an {URI} event was emitted for `id`, the standard https://eips.ethereum.org/EIPS/eip-1155#metadata-extensions[guarantees] that `value` will equal the value returned by {IERC1155MetadataURI-uri}."
					}
				},
				"kind": "dev",
				"methods": {
					"balanceOf(address,uint256)": {
						"details": "See {IERC1155-balanceOf}."
					},
					"balanceOfBatch(address[],uint256[])": {
						"details": "See {IERC1155-balanceOfBatch}. Requirements: - `accounts` and `ids` must have the same length."
					},
					"isApprovedForAll(address,address)": {
						"details": "See {IERC1155-isApprovedForAll}."
					},
					"safeBatchTransferFrom(address,address,uint256[],uint256[],bytes)": {
						"details": "See {IERC1155-safeBatchTransferFrom}."
					},
					"safeTransferFrom(address,address,uint256,uint256,bytes)": {
						"details": "See {IERC1155-safeTransferFrom}."
					},
					"setApprovalForAll(address,bool)": {
						"details": "See {IERC1155-setApprovalForAll}."
					},
					"supportsInterface(bytes4)": {
						"details": "See {IERC165-supportsInterface}."
					},
					"uri(uint256)": {
						"details": "See {IERC1155MetadataURI-uri}. This implementation returns the same URI for *all* token types. It relies on the token type ID substitution mechanism https://eips.ethereum.org/EIPS/eip-1155#metadata[defined in the EIP]. Clients calling this function must replace the `\\{id\\}` substring with the actual token type ID."
					}
				},
				"version": 1
			},
			"evm": {
				"assembly": "    /* \"src/MockToken_flattened.sol\":72476:72761  contract mockERC1155Token is ERC1155(\"mockURI\") {... */\n  mstore(0x40, 0x80)\n    /* \"src/MockToken_flattened.sol\":72530:72646  constructor() {... */\n  callvalue\n  dup1\n  iszero\n  tag_1\n  jumpi\n  0x00\n  dup1\n  revert\ntag_1:\n  pop\n    /* \"src/MockToken_flattened.sol\":56738:56800  constructor(string memory uri_) {... */\n  0x40\n  dup1\n  mload\n  dup1\n  dup3\n  add\n  swap1\n  swap2\n  mstore\n  0x07\n  dup2\n  mstore\n  shl(0xc8, 0x6d6f636b555249)\n  0x20\n  dup3\n  add\n  mstore\n    /* \"src/MockToken_flattened.sol\":56780:56793  _setURI(uri_) */\n  tag_5\n    /* \"src/MockToken_flattened.sol\":56738:56800  constructor(string memory uri_) {... */\n  dup2\n    /* \"src/MockToken_flattened.sol\":56780:56787  _setURI */\n  tag_6\n    /* \"src/MockToken_flattened.sol\":56780:56793  _setURI(uri_) */\n  jump\t// in\ntag_5:\n    /* \"src/MockToken_flattened.sol\":56738:56800  constructor(string memory uri_) {... */\n  pop\n    /* \"src/MockToken_flattened.sol\":72554:72590  _mint(msg.sender, 1, 10 ether, \"0x\") */\n  tag_8\n    /* \"src/MockToken_flattened.sol\":72560:72570  msg.sender */\n  caller\n    /* \"src/MockToken_flattened.sol\":72572:72573  1 */\n  0x01\n    /* \"src/MockToken_flattened.sol\":72575:72583  10 ether */\n  0x8ac7230489e80000\n    /* \"src/MockToken_flattened.sol\":72554:72590  _mint(msg.sender, 1, 10 ether, \"0x\") */\n  mload(0x40)\n  dup1\n  0x40\n  add\n  0x40\n  mstore\n  dup1\n  0x02\n  dup2\n  mstore\n  0x20\n  add\n  shl(0xf3, 0x060f)\n  dup2\n  mstore\n  pop\n    /* \"src/MockToken_flattened.sol\":72554:72559  _mint */\n  shl(0x20, tag_9)\n    /* \"src/MockToken_flattened.sol\":72554:72590  _mint(msg.sender, 1, 10 ether, \"0x\") */\n  0x20\n  shr\n  jump\t// in\ntag_8:\n    /* \"src/MockToken_flattened.sol\":72600:72639  _mint(address(101), 1, 0.1 ether, \"0x\") */\n  tag_10\n    /* \"src/MockToken_flattened.sol\":72614:72617  101 */\n  0x65\n    /* \"src/MockToken_flattened.sol\":72620:72621  1 */\n  0x01\n    /* \"src/MockToken_flattened.sol\":72623:72632  0.1 ether */\n  0x016345785d8a0000\n    /* \"src/MockToken_flattened.sol\":72600:72639  _mint(address(101), 1, 0.1 ether, \"0x\") */\n  mload(0x40)\n  dup1\n  0x40\n  add\n  0x40\n  mstore\n  dup1\n  0x02\n  dup2\n  mstore\n  0x20\n  add\n  shl(0xf3, 0x060f)\n  dup2\n  mstore\n  pop\n    /* \"src/MockToken_flattened.sol\":72600:72605  _mint */\n  shl(0x20, tag_9)\n    /* \"src/MockToken_flattened.sol\":72600:72639  _mint(address(101), 1, 0.1 ether, \"0x\") */\n  0x20\n  shr\n  jump\t// in\ntag_10:\n    /* \"src/MockToken_flattened.sol\":72476:72761  contract mockERC1155Token is ERC1155(\"mockURI\") {... */\n  jump(tag_109)\n    /* \"src/MockToken_flattened.sol\":65769:65855  function _setURI(string memory newuri) internal virtual {... */\ntag_6:\n    /* \"src/MockToken_flattened.sol\":65835:65839  _uri */\n  0x02\n    /* \"src/MockToken_flattened.sol\":65835:65848  _uri = newuri */\n  tag_13\n    /* \"src/MockToken_flattened.sol\":65842:65848  newuri */\n  dup3\n    /* \"src/MockToken_flattened.sol\":65835:65839  _uri */\n  dup3\n    /* \"src/MockToken_flattened.sol\":65835:65848  _uri = newuri */\n  tag_14\n  jump\t// in\ntag_13:\n  pop\n    /* \"src/MockToken_flattened.sol\":65769:65855  function _setURI(string memory newuri) internal virtual {... */\n  pop\n  jump\t// out\n    /* \"src/MockToken_flattened.sol\":66233:66579  function _mint(address to, uint256 id, uint256 value, bytes memory data) internal {... */\ntag_9:\n  sub(shl(0xa0, 0x01), 0x01)\n    /* \"src/MockToken_flattened.sol\":66329:66345  to == address(0) */\n  dup5\n  and\n    /* \"src/MockToken_flattened.sol\":66325:66413  if (to == address(0)) {... */\n  tag_16\n  jumpi\n    /* \"src/MockToken_flattened.sol\":66368:66402  ERC1155InvalidReceiver(address(0)) */\n  mload(0x40)\n  shl(0xe1, 0x2bfa23e7)\n  dup2\n  mstore\n    /* \"src/MockToken_flattened.sol\":66399:66400  0 */\n  0x00\n    /* \"src/MockToken_flattened.sol\":66368:66402  ERC1155InvalidReceiver(address(0)) */\n  0x04\n  dup3\n  add\n    /* \"#utility.yul\":2872:2923   */\n  mstore\n    /* \"#utility.yul\":2845:2863   */\n  0x24\n  add\n    /* \"src/MockToken_flattened.sol\":66368:66402  ERC1155InvalidReceiver(address(0)) */\ntag_17:\n  mload(0x40)\n  dup1\n  swap2\n  sub\n  swap1\n  revert\n    /* \"src/MockToken_flattened.sol\":66325:66413  if (to == address(0)) {... */\ntag_16:\n    /* \"src/MockToken_flattened.sol\":71861:71865  0x40 */\n  0x40\n    /* \"src/MockToken_flattened.sol\":71855:71866  mload(0x40) */\n  dup1\n  mload\n    /* \"src/MockToken_flattened.sol\":71931:71932  1 */\n  0x01\n    /* \"src/MockToken_flattened.sol\":71916:71933  mstore(array1, 1) */\n  dup1\n  dup3\n  mstore\n    /* \"src/MockToken_flattened.sol\":72062:72066  0x20 */\n  0x20\n    /* \"src/MockToken_flattened.sol\":72050:72067  add(array1, 0x20) */\n  dup3\n  add\n    /* \"src/MockToken_flattened.sol\":72043:72078  mstore(add(array1, 0x20), element1) */\n  dup7\n  swap1\n  mstore\n    /* \"src/MockToken_flattened.sol\":72179:72196  add(array1, 0x40) */\n  dup2\n  dup4\n  add\n    /* \"src/MockToken_flattened.sol\":72209:72226  mstore(array2, 1) */\n  swap1\n  dup2\n  mstore\n    /* \"src/MockToken_flattened.sol\":71675:71698  uint256[] memory array1 */\n  0x60\n    /* \"src/MockToken_flattened.sol\":72246:72263  add(array2, 0x20) */\n  dup3\n  add\n    /* \"src/MockToken_flattened.sol\":72239:72274  mstore(add(array2, 0x20), element2) */\n  dup6\n  swap1\n  mstore\n    /* \"src/MockToken_flattened.sol\":72382:72399  add(array2, 0x40) */\n  0x80\n  dup3\n  add\n    /* \"src/MockToken_flattened.sol\":72369:72400  mstore(0x40, add(array2, 0x40)) */\n  swap1\n  swap3\n  mstore\n    /* \"src/MockToken_flattened.sol\":71855:71866  mload(0x40) */\n  swap1\n    /* \"src/MockToken_flattened.sol\":66511:66572  _updateWithAcceptanceCheck(address(0), to, ids, values, data) */\n  tag_21\n  0x00\n    /* \"src/MockToken_flattened.sol\":66550:66552  to */\n  dup8\n    /* \"src/MockToken_flattened.sol\":71855:71866  mload(0x40) */\n  dup5\n    /* \"src/MockToken_flattened.sol\":72179:72196  add(array1, 0x40) */\n  dup5\n    /* \"src/MockToken_flattened.sol\":66567:66571  data */\n  dup8\n    /* \"src/MockToken_flattened.sol\":66511:66537  _updateWithAcceptanceCheck */\n  tag_22\n    /* \"src/MockToken_flattened.sol\":66511:66572  _updateWithAcceptanceCheck(address(0), to, ids, values, data) */\n  jump\t// in\ntag_21:\n    /* \"src/MockToken_flattened.sol\":66315:66579  {... */\n  pop\n  pop\n    /* \"src/MockToken_flattened.sol\":66233:66579  function _mint(address to, uint256 id, uint256 value, bytes memory data) internal {... */\n  pop\n  pop\n  pop\n  pop\n  jump\t// out\n    /* \"src/MockToken_flattened.sol\":62491:63181  function _updateWithAcceptanceCheck(... */\ntag_22:\n    /* \"src/MockToken_flattened.sol\":62692:62722  _update(from, to, ids, values) */\n  tag_25\n    /* \"src/MockToken_flattened.sol\":62700:62704  from */\n  dup6\n    /* \"src/MockToken_flattened.sol\":62706:62708  to */\n  dup6\n    /* \"src/MockToken_flattened.sol\":62710:62713  ids */\n  dup6\n    /* \"src/MockToken_flattened.sol\":62715:62721  values */\n  dup6\n    /* \"src/MockToken_flattened.sol\":62692:62699  _update */\n  tag_26\n    /* \"src/MockToken_flattened.sol\":62692:62722  _update(from, to, ids, values) */\n  jump\t// in\ntag_25:\n  sub(shl(0xa0, 0x01), 0x01)\n    /* \"src/MockToken_flattened.sol\":62736:62752  to != address(0) */\n  dup5\n  and\n  iszero\n    /* \"src/MockToken_flattened.sol\":62732:63175  if (to != address(0)) {... */\n  tag_27\n  jumpi\n    /* \"src/MockToken_flattened.sol\":62817:62827  ids.length */\n  dup3\n  mload\n    /* \"src/MockToken_flattened.sol\":34750:34760  msg.sender */\n  caller\n  swap1\n    /* \"src/MockToken_flattened.sol\":62831:62832  1 */\n  0x01\n    /* \"src/MockToken_flattened.sol\":62817:62832  ids.length == 1 */\n  sub\n    /* \"src/MockToken_flattened.sol\":62813:63165  if (ids.length == 1) {... */\n  tag_30\n  jumpi\n    /* \"src/MockToken_flattened.sol\":33555:33559  0x20 */\n  0x20\n    /* \"src/MockToken_flattened.sol\":33526:33561  add(add(arr, 0x20), mul(pos, 0x20)) */\n  dup5\n  dup2\n  add\n    /* \"src/MockToken_flattened.sol\":33520:33562  mload(add(add(arr, 0x20), mul(pos, 0x20))) */\n  mload\n    /* \"src/MockToken_flattened.sol\":33526:33561  add(add(arr, 0x20), mul(pos, 0x20)) */\n  swap1\n  dup5\n  add\n    /* \"src/MockToken_flattened.sol\":33520:33562  mload(add(add(arr, 0x20), mul(pos, 0x20))) */\n  mload\n    /* \"src/MockToken_flattened.sol\":62970:63037  _doSafeTransferAcceptanceCheck(operator, from, to, id, value, data) */\n  tag_34\n    /* \"src/MockToken_flattened.sol\":63001:63009  operator */\n  dup4\n    /* \"src/MockToken_flattened.sol\":63011:63015  from */\n  dup10\n    /* \"src/MockToken_flattened.sol\":63017:63019  to */\n  dup10\n    /* \"src/MockToken_flattened.sol\":33520:33562  mload(add(add(arr, 0x20), mul(pos, 0x20))) */\n  dup6\n  dup6\n    /* \"src/MockToken_flattened.sol\":63032:63036  data */\n  dup10\n    /* \"src/MockToken_flattened.sol\":62970:63000  _doSafeTransferAcceptanceCheck */\n  tag_35\n    /* \"src/MockToken_flattened.sol\":62970:63037  _doSafeTransferAcceptanceCheck(operator, from, to, id, value, data) */\n  jump\t// in\ntag_34:\n    /* \"src/MockToken_flattened.sol\":62834:63052  {... */\n  pop\n  pop\n    /* \"src/MockToken_flattened.sol\":62813:63165  if (ids.length == 1) {... */\n  jump(tag_21)\ntag_30:\n    /* \"src/MockToken_flattened.sol\":63076:63150  _doSafeBatchTransferAcceptanceCheck(operator, from, to, ids, values, data) */\n  tag_21\n    /* \"src/MockToken_flattened.sol\":63112:63120  operator */\n  dup2\n    /* \"src/MockToken_flattened.sol\":63122:63126  from */\n  dup8\n    /* \"src/MockToken_flattened.sol\":63128:63130  to */\n  dup8\n    /* \"src/MockToken_flattened.sol\":63132:63135  ids */\n  dup8\n    /* \"src/MockToken_flattened.sol\":63137:63143  values */\n  dup8\n    /* \"src/MockToken_flattened.sol\":63145:63149  data */\n  dup8\n    /* \"src/MockToken_flattened.sol\":63076:63111  _doSafeBatchTransferAcceptanceCheck */\n  tag_38\n    /* \"src/MockToken_flattened.sol\":63076:63150  _doSafeBatchTransferAcceptanceCheck(operator, from, to, ids, values, data) */\n  jump\t// in\n    /* \"src/MockToken_flattened.sol\":62732:63175  if (to != address(0)) {... */\ntag_27:\n    /* \"src/MockToken_flattened.sol\":62491:63181  function _updateWithAcceptanceCheck(... */\n  pop\n  pop\n  pop\n  pop\n  pop\n  jump\t// out\n    /* \"src/MockToken_flattened.sol\":60631:61912  function _update(address from, address to, uint256[] memory ids, uint256[] memory values) internal virtual {... */\ntag_26:\n    /* \"src/MockToken_flattened.sol\":60766:60772  values */\n  dup1\n    /* \"src/MockToken_flattened.sol\":60766:60779  values.length */\n  mload\n    /* \"src/MockToken_flattened.sol\":60752:60755  ids */\n  dup3\n    /* \"src/MockToken_flattened.sol\":60752:60762  ids.length */\n  mload\n    /* \"src/MockToken_flattened.sol\":60752:60779  ids.length != values.length */\n  eq\n    /* \"src/MockToken_flattened.sol\":60748:60865  if (ids.length != values.length) {... */\n  tag_40\n  jumpi\n    /* \"src/MockToken_flattened.sol\":60828:60838  ids.length */\n  dup2\n  mload\n    /* \"src/MockToken_flattened.sol\":60840:60853  values.length */\n  dup2\n  mload\n    /* \"src/MockToken_flattened.sol\":60802:60854  ERC1155InvalidArrayLength(ids.length, values.length) */\n  mload(0x40)\n  shl(0xe0, 0x5b059991)\n  dup2\n  mstore\n  0x04\n  dup2\n  add\n    /* \"#utility.yul\":3108:3133   */\n  swap3\n  swap1\n  swap3\n  mstore\n    /* \"#utility.yul\":3149:3167   */\n  0x24\n  dup3\n  add\n    /* \"#utility.yul\":3142:3176   */\n  mstore\n    /* \"#utility.yul\":3081:3099   */\n  0x44\n  add\n    /* \"src/MockToken_flattened.sol\":60802:60854  ERC1155InvalidArrayLength(ids.length, values.length) */\n  tag_17\n    /* \"#utility.yul\":2934:3182   */\n  jump\n    /* \"src/MockToken_flattened.sol\":60748:60865  if (ids.length != values.length) {... */\ntag_40:\n    /* \"src/MockToken_flattened.sol\":34750:34760  msg.sender */\n  caller\n    /* \"src/MockToken_flattened.sol\":60875:60891  address operator */\n  0x00\n    /* \"src/MockToken_flattened.sol\":60917:61608  for (uint256 i = 0; i < ids.length; ++i) {... */\ntag_44:\n    /* \"src/MockToken_flattened.sol\":60941:60944  ids */\n  dup4\n    /* \"src/MockToken_flattened.sol\":60941:60951  ids.length */\n  mload\n    /* \"src/MockToken_flattened.sol\":60937:60938  i */\n  dup2\n    /* \"src/MockToken_flattened.sol\":60937:60951  i < ids.length */\n  lt\n    /* \"src/MockToken_flattened.sol\":60917:61608  for (uint256 i = 0; i < ids.length; ++i) {... */\n  iszero\n  tag_45\n  jumpi\n    /* \"src/MockToken_flattened.sol\":33555:33559  0x20 */\n  0x20\n    /* \"src/MockToken_flattened.sol\":33546:33560  mul(pos, 0x20) */\n  dup2\n  dup2\n  mul\n    /* \"src/MockToken_flattened.sol\":33526:33561  add(add(arr, 0x20), mul(pos, 0x20)) */\n  dup6\n  dup2\n  add\n  dup3\n  add\n    /* \"src/MockToken_flattened.sol\":33520:33562  mload(add(add(arr, 0x20), mul(pos, 0x20))) */\n  mload\n    /* \"src/MockToken_flattened.sol\":33526:33561  add(add(arr, 0x20), mul(pos, 0x20)) */\n  swap1\n  dup6\n  add\n  swap1\n  swap2\n  add\n    /* \"src/MockToken_flattened.sol\":33520:33562  mload(add(add(arr, 0x20), mul(pos, 0x20))) */\n  mload\n  sub(shl(0xa0, 0x01), 0x01)\n    /* \"src/MockToken_flattened.sol\":61087:61105  from != address(0) */\n  dup9\n  and\n  iszero\n    /* \"src/MockToken_flattened.sol\":61083:61503  if (from != address(0)) {... */\n  tag_49\n  jumpi\n    /* \"src/MockToken_flattened.sol\":61125:61144  uint256 fromBalance */\n  0x00\n    /* \"src/MockToken_flattened.sol\":61147:61160  _balances[id] */\n  dup3\n  dup2\n  mstore\n  0x20\n  dup2\n  dup2\n  mstore\n  0x40\n  dup1\n  dup4\n  keccak256\n  sub(shl(0xa0, 0x01), 0x01)\n    /* \"src/MockToken_flattened.sol\":61147:61166  _balances[id][from] */\n  dup13\n  and\n  dup5\n  mstore\n  swap1\n  swap2\n  mstore\n  swap1\n  keccak256\n  sload\n    /* \"src/MockToken_flattened.sol\":61188:61207  fromBalance < value */\n  dup2\n  dup2\n  lt\n    /* \"src/MockToken_flattened.sol\":61184:61313  if (fromBalance < value) {... */\n  iszero\n  tag_50\n  jumpi\n    /* \"src/MockToken_flattened.sol\":61238:61294  ERC1155InsufficientBalance(from, fromBalance, value, id) */\n  mload(0x40)\n  shl(0xe0, 0x03dee4c5)\n  dup2\n  mstore\n  sub(shl(0xa0, 0x01), 0x01)\n    /* \"#utility.yul\":3436:3468   */\n  dup11\n  and\n    /* \"src/MockToken_flattened.sol\":61238:61294  ERC1155InsufficientBalance(from, fromBalance, value, id) */\n  0x04\n  dup3\n  add\n    /* \"#utility.yul\":3418:3469   */\n  mstore\n    /* \"#utility.yul\":3485:3503   */\n  0x24\n  dup2\n  add\n    /* \"#utility.yul\":3478:3512   */\n  dup3\n  swap1\n  mstore\n    /* \"#utility.yul\":3528:3546   */\n  0x44\n  dup2\n  add\n    /* \"#utility.yul\":3521:3555   */\n  dup4\n  swap1\n  mstore\n    /* \"#utility.yul\":3571:3589   */\n  0x64\n  dup2\n  add\n    /* \"#utility.yul\":3564:3598   */\n  dup5\n  swap1\n  mstore\n    /* \"#utility.yul\":3390:3409   */\n  0x84\n  add\n    /* \"src/MockToken_flattened.sol\":61238:61294  ERC1155InsufficientBalance(from, fromBalance, value, id) */\n  tag_17\n    /* \"#utility.yul\":3187:3604   */\n  jump\n    /* \"src/MockToken_flattened.sol\":61184:61313  if (fromBalance < value) {... */\ntag_50:\n    /* \"src/MockToken_flattened.sol\":61429:61438  _balances */\n  0x00\n    /* \"src/MockToken_flattened.sol\":61429:61442  _balances[id] */\n  dup4\n  dup2\n  mstore\n  0x20\n  dup2\n  dup2\n  mstore\n  0x40\n  dup1\n  dup4\n  keccak256\n  sub(shl(0xa0, 0x01), 0x01)\n    /* \"src/MockToken_flattened.sol\":61429:61448  _balances[id][from] */\n  dup14\n  and\n  dup5\n  mstore\n  swap1\n  swap2\n  mstore\n  swap1\n  keccak256\n    /* \"src/MockToken_flattened.sol\":61451:61470  fromBalance - value */\n  swap1\n  dup3\n  swap1\n  sub\n    /* \"src/MockToken_flattened.sol\":61429:61470  _balances[id][from] = fromBalance - value */\n  swap1\n  sstore\n    /* \"src/MockToken_flattened.sol\":61083:61503  if (from != address(0)) {... */\ntag_49:\n  sub(shl(0xa0, 0x01), 0x01)\n    /* \"src/MockToken_flattened.sol\":61521:61537  to != address(0) */\n  dup8\n  and\n  iszero\n    /* \"src/MockToken_flattened.sol\":61517:61598  if (to != address(0)) {... */\n  tag_53\n  jumpi\n    /* \"src/MockToken_flattened.sol\":61557:61566  _balances */\n  0x00\n    /* \"src/MockToken_flattened.sol\":61557:61570  _balances[id] */\n  dup3\n  dup2\n  mstore\n  0x20\n  dup2\n  dup2\n  mstore\n  0x40\n  dup1\n  dup4\n  keccak256\n  sub(shl(0xa0, 0x01), 0x01)\n    /* \"src/MockToken_flattened.sol\":61557:61574  _balances[id][to] */\n  dup12\n  and\n  dup5\n  mstore\n  swap1\n  swap2\n  mstore\n  dup2\n  keccak256\n    /* \"src/MockToken_flattened.sol\":61557:61583  _balances[id][to] += value */\n  dup1\n  sload\n    /* \"src/MockToken_flattened.sol\":61578:61583  value */\n  dup4\n  swap3\n    /* \"src/MockToken_flattened.sol\":61557:61566  _balances */\n  swap1\n    /* \"src/MockToken_flattened.sol\":61557:61583  _balances[id][to] += value */\n  tag_54\n  swap1\n    /* \"src/MockToken_flattened.sol\":61578:61583  value */\n  dup5\n  swap1\n    /* \"src/MockToken_flattened.sol\":61557:61583  _balances[id][to] += value */\n  tag_55\n  jump\t// in\ntag_54:\n  swap1\n  swap2\n  sstore\n  pop\n  pop\n    /* \"src/MockToken_flattened.sol\":61517:61598  if (to != address(0)) {... */\ntag_53:\n  pop\n  pop\n    /* \"src/MockToken_flattened.sol\":60953:60956  ++i */\n  0x01\n  add\n    /* \"src/MockToken_flattened.sol\":60917:61608  for (uint256 i = 0; i < ids.length; ++i) {... */\n  jump(tag_44)\ntag_45:\n  pop\n    /* \"src/MockToken_flattened.sol\":61622:61625  ids */\n  dup3\n    /* \"src/MockToken_flattened.sol\":61622:61632  ids.length */\n  mload\n    /* \"src/MockToken_flattened.sol\":61636:61637  1 */\n  0x01\n    /* \"src/MockToken_flattened.sol\":61622:61637  ids.length == 1 */\n  sub\n    /* \"src/MockToken_flattened.sol\":61618:61906  if (ids.length == 1) {... */\n  tag_56\n  jumpi\n    /* \"src/MockToken_flattened.sol\":33555:33559  0x20 */\n  0x20\n    /* \"src/MockToken_flattened.sol\":33526:33561  add(add(arr, 0x20), mul(pos, 0x20)) */\n  dup4\n  add\n    /* \"src/MockToken_flattened.sol\":33520:33562  mload(add(add(arr, 0x20), mul(pos, 0x20))) */\n  mload\n    /* \"src/MockToken_flattened.sol\":61653:61663  uint256 id */\n  0x00\n  swap1\n    /* \"src/MockToken_flattened.sol\":33555:33559  0x20 */\n  0x20\n    /* \"src/MockToken_flattened.sol\":33526:33561  add(add(arr, 0x20), mul(pos, 0x20)) */\n  dup5\n  add\n    /* \"src/MockToken_flattened.sol\":33520:33562  mload(add(add(arr, 0x20), mul(pos, 0x20))) */\n  mload\n    /* \"src/MockToken_flattened.sol\":61653:61691  uint256 id = ids.unsafeMemoryAccess(0) */\n  swap1\n  swap2\n  pop\n    /* \"src/MockToken_flattened.sol\":61799:61801  to */\n  dup6\n  sub(shl(0xa0, 0x01), 0x01)\n    /* \"src/MockToken_flattened.sol\":61768:61813  TransferSingle(operator, from, to, id, value) */\n  and\n    /* \"src/MockToken_flattened.sol\":61793:61797  from */\n  dup8\n  sub(shl(0xa0, 0x01), 0x01)\n    /* \"src/MockToken_flattened.sol\":61768:61813  TransferSingle(operator, from, to, id, value) */\n  and\n    /* \"src/MockToken_flattened.sol\":61783:61791  operator */\n  dup5\n  sub(shl(0xa0, 0x01), 0x01)\n    /* \"src/MockToken_flattened.sol\":61768:61813  TransferSingle(operator, from, to, id, value) */\n  and\n  0xc3d58168c5ae7397731d063d5bbf3d657854427343f4c083240f7aacaa2d0f62\n    /* \"src/MockToken_flattened.sol\":61803:61805  id */\n  dup6\n    /* \"src/MockToken_flattened.sol\":61807:61812  value */\n  dup6\n    /* \"src/MockToken_flattened.sol\":61768:61813  TransferSingle(operator, from, to, id, value) */\n  mload(0x40)\n  tag_59\n  swap3\n  swap2\n  swap1\n    /* \"#utility.yul\":3108:3133   */\n  swap2\n  dup3\n  mstore\n    /* \"#utility.yul\":3164:3166   */\n  0x20\n    /* \"#utility.yul\":3149:3167   */\n  dup3\n  add\n    /* \"#utility.yul\":3142:3176   */\n  mstore\n    /* \"#utility.yul\":3096:3098   */\n  0x40\n    /* \"#utility.yul\":3081:3099   */\n  add\n  swap1\n    /* \"#utility.yul\":2934:3182   */\n  jump\n    /* \"src/MockToken_flattened.sol\":61768:61813  TransferSingle(operator, from, to, id, value) */\ntag_59:\n  mload(0x40)\n  dup1\n  swap2\n  sub\n  swap1\n  log4\n    /* \"src/MockToken_flattened.sol\":61639:61824  {... */\n  pop\n  pop\n    /* \"src/MockToken_flattened.sol\":61618:61906  if (ids.length == 1) {... */\n  jump(tag_27)\ntag_56:\n    /* \"src/MockToken_flattened.sol\":61879:61881  to */\n  dup4\n  sub(shl(0xa0, 0x01), 0x01)\n    /* \"src/MockToken_flattened.sol\":61849:61895  TransferBatch(operator, from, to, ids, values) */\n  and\n    /* \"src/MockToken_flattened.sol\":61873:61877  from */\n  dup6\n  sub(shl(0xa0, 0x01), 0x01)\n    /* \"src/MockToken_flattened.sol\":61849:61895  TransferBatch(operator, from, to, ids, values) */\n  and\n    /* \"src/MockToken_flattened.sol\":61863:61871  operator */\n  dup3\n  sub(shl(0xa0, 0x01), 0x01)\n    /* \"src/MockToken_flattened.sol\":61849:61895  TransferBatch(operator, from, to, ids, values) */\n  and\n  0x4a39dc06d4c0dbc64b70af90fd698a233a518aa5d07e595d983b8c0526c8f7fb\n    /* \"src/MockToken_flattened.sol\":61883:61886  ids */\n  dup7\n    /* \"src/MockToken_flattened.sol\":61888:61894  values */\n  dup7\n    /* \"src/MockToken_flattened.sol\":61849:61895  TransferBatch(operator, from, to, ids, values) */\n  mload(0x40)\n  tag_61\n  swap3\n  swap2\n  swap1\n  tag_62\n  jump\t// in\ntag_61:\n  mload(0x40)\n  dup1\n  swap2\n  sub\n  swap1\n  log4\n    /* \"src/MockToken_flattened.sol\":60738:61912  {... */\n  pop\n    /* \"src/MockToken_flattened.sol\":60631:61912  function _update(address from, address to, uint256[] memory ids, uint256[] memory values) internal virtual {... */\n  pop\n  pop\n  pop\n  pop\n  jump\t// out\n    /* \"src/MockToken_flattened.sol\":69248:70222  function _doSafeTransferAcceptanceCheck(... */\ntag_35:\n  sub(shl(0xa0, 0x01), 0x01)\n    /* \"src/MockToken_flattened.sol\":69454:69468  to.code.length */\n  dup5\n  and\n  extcodesize\n    /* \"src/MockToken_flattened.sol\":69454:69472  to.code.length > 0 */\n  iszero\n    /* \"src/MockToken_flattened.sol\":69450:70216  if (to.code.length > 0) {... */\n  tag_21\n  jumpi\n    /* \"src/MockToken_flattened.sol\":69492:69563  IERC1155Receiver(to).onERC1155Received(operator, from, id, value, data) */\n  mload(0x40)\n  shl(0xe0, 0xf23a6e61)\n  dup2\n  mstore\n  sub(shl(0xa0, 0x01), 0x01)\n    /* \"src/MockToken_flattened.sol\":69492:69530  IERC1155Receiver(to).onERC1155Received */\n  dup6\n  and\n  swap1\n  0xf23a6e61\n  swap1\n    /* \"src/MockToken_flattened.sol\":69492:69563  IERC1155Receiver(to).onERC1155Received(operator, from, id, value, data) */\n  tag_67\n  swap1\n    /* \"src/MockToken_flattened.sol\":69531:69539  operator */\n  dup10\n  swap1\n    /* \"src/MockToken_flattened.sol\":69541:69545  from */\n  dup10\n  swap1\n    /* \"src/MockToken_flattened.sol\":69547:69549  id */\n  dup9\n  swap1\n    /* \"src/MockToken_flattened.sol\":69551:69556  value */\n  dup9\n  swap1\n    /* \"src/MockToken_flattened.sol\":69558:69562  data */\n  dup9\n  swap1\n    /* \"src/MockToken_flattened.sol\":69492:69563  IERC1155Receiver(to).onERC1155Received(operator, from, id, value, data) */\n  0x04\n  add\n  tag_68\n  jump\t// in\ntag_67:\n  0x20\n  mload(0x40)\n  dup1\n  dup4\n  sub\n  dup2\n  0x00\n  dup8\n  gas\n  call\n  swap3\n  pop\n  pop\n  pop\n  dup1\n  iszero\n  tag_69\n  jumpi\n  pop\n  0x40\n  dup1\n  mload\n  0x1f\n  returndatasize\n  swap1\n  dup2\n  add\n  not(0x1f)\n  and\n  dup3\n  add\n  swap1\n  swap3\n  mstore\n  tag_70\n  swap2\n  dup2\n  add\n  swap1\n  tag_71\n  jump\t// in\ntag_70:\n  0x01\ntag_69:\n    /* \"src/MockToken_flattened.sol\":69488:70206  try IERC1155Receiver(to).onERC1155Received(operator, from, id, value, data) returns (bytes4 response) {... */\n  tag_72\n  jumpi\n  returndatasize\n  dup1\n  dup1\n  iszero\n  tag_77\n  jumpi\n  mload(0x40)\n  swap2\n  pop\n  and(add(returndatasize, 0x3f), not(0x1f))\n  dup3\n  add\n  0x40\n  mstore\n  returndatasize\n  dup3\n  mstore\n  returndatasize\n  0x00\n  0x20\n  dup5\n  add\n  returndatacopy\n  jump(tag_76)\ntag_77:\n  0x60\n  swap2\n  pop\ntag_76:\n  pop\n    /* \"src/MockToken_flattened.sol\":69847:69853  reason */\n  dup1\n    /* \"src/MockToken_flattened.sol\":69847:69860  reason.length */\n  mload\n    /* \"src/MockToken_flattened.sol\":69864:69865  0 */\n  0x00\n    /* \"src/MockToken_flattened.sol\":69847:69865  reason.length == 0 */\n  sub\n    /* \"src/MockToken_flattened.sol\":69843:70192  if (reason.length == 0) {... */\n  tag_78\n  jumpi\n    /* \"src/MockToken_flattened.sol\":69951:69977  ERC1155InvalidReceiver(to) */\n  mload(0x40)\n  shl(0xe1, 0x2bfa23e7)\n  dup2\n  mstore\n  sub(shl(0xa0, 0x01), 0x01)\n    /* \"#utility.yul\":2890:2922   */\n  dup7\n  and\n    /* \"src/MockToken_flattened.sol\":69951:69977  ERC1155InvalidReceiver(to) */\n  0x04\n  dup3\n  add\n    /* \"#utility.yul\":2872:2923   */\n  mstore\n    /* \"#utility.yul\":2845:2863   */\n  0x24\n  add\n    /* \"src/MockToken_flattened.sol\":69951:69977  ERC1155InvalidReceiver(to) */\n  tag_17\n    /* \"#utility.yul\":2726:2929   */\n  jump\n    /* \"src/MockToken_flattened.sol\":69843:70192  if (reason.length == 0) {... */\ntag_78:\n    /* \"src/MockToken_flattened.sol\":70144:70150  reason */\n  dup1\n    /* \"src/MockToken_flattened.sol\":70138:70151  mload(reason) */\n  mload\n    /* \"src/MockToken_flattened.sol\":70129:70135  reason */\n  dup2\n    /* \"src/MockToken_flattened.sol\":70125:70127  32 */\n  0x20\n    /* \"src/MockToken_flattened.sol\":70121:70136  add(32, reason) */\n  add\n    /* \"src/MockToken_flattened.sol\":70114:70152  revert(add(32, reason), mload(reason)) */\n  revert\n    /* \"src/MockToken_flattened.sol\":69488:70206  try IERC1155Receiver(to).onERC1155Received(operator, from, id, value, data) returns (bytes4 response) {... */\ntag_72:\n  not(sub(shl(0xe0, 0x01), 0x01))\n    /* \"src/MockToken_flattened.sol\":69612:69667  response != IERC1155Receiver.onERC1155Received.selector */\n  dup2\n  and\n  shl(0xe0, 0xf23a6e61)\n  eq\n    /* \"src/MockToken_flattened.sol\":69608:69782  if (response != IERC1155Receiver.onERC1155Received.selector) {... */\n  tag_82\n  jumpi\n    /* \"src/MockToken_flattened.sol\":69737:69763  ERC1155InvalidReceiver(to) */\n  mload(0x40)\n  shl(0xe1, 0x2bfa23e7)\n  dup2\n  mstore\n  sub(shl(0xa0, 0x01), 0x01)\n    /* \"#utility.yul\":2890:2922   */\n  dup7\n  and\n    /* \"src/MockToken_flattened.sol\":69737:69763  ERC1155InvalidReceiver(to) */\n  0x04\n  dup3\n  add\n    /* \"#utility.yul\":2872:2923   */\n  mstore\n    /* \"#utility.yul\":2845:2863   */\n  0x24\n  add\n    /* \"src/MockToken_flattened.sol\":69737:69763  ERC1155InvalidReceiver(to) */\n  tag_17\n    /* \"#utility.yul\":2726:2929   */\n  jump\n    /* \"src/MockToken_flattened.sol\":69608:69782  if (response != IERC1155Receiver.onERC1155Received.selector) {... */\ntag_82:\n    /* \"src/MockToken_flattened.sol\":69564:69796  returns (bytes4 response) {... */\n  pop\n    /* \"src/MockToken_flattened.sol\":69248:70222  function _doSafeTransferAcceptanceCheck(... */\n  pop\n  pop\n  pop\n  pop\n  pop\n  pop\n  jump\t// out\n    /* \"src/MockToken_flattened.sol\":70410:71451  function _doSafeBatchTransferAcceptanceCheck(... */\ntag_38:\n  sub(shl(0xa0, 0x01), 0x01)\n    /* \"src/MockToken_flattened.sol\":70641:70655  to.code.length */\n  dup5\n  and\n  extcodesize\n    /* \"src/MockToken_flattened.sol\":70641:70659  to.code.length > 0 */\n  iszero\n    /* \"src/MockToken_flattened.sol\":70637:71445  if (to.code.length > 0) {... */\n  tag_21\n  jumpi\n    /* \"src/MockToken_flattened.sol\":70679:70757  IERC1155Receiver(to).onERC1155BatchReceived(operator, from, ids, values, data) */\n  mload(0x40)\n  shl(0xe0, 0xbc197c81)\n  dup2\n  mstore\n  sub(shl(0xa0, 0x01), 0x01)\n    /* \"src/MockToken_flattened.sol\":70679:70722  IERC1155Receiver(to).onERC1155BatchReceived */\n  dup6\n  and\n  swap1\n  0xbc197c81\n  swap1\n    /* \"src/MockToken_flattened.sol\":70679:70757  IERC1155Receiver(to).onERC1155BatchReceived(operator, from, ids, values, data) */\n  tag_86\n  swap1\n    /* \"src/MockToken_flattened.sol\":70723:70731  operator */\n  dup10\n  swap1\n    /* \"src/MockToken_flattened.sol\":70733:70737  from */\n  dup10\n  swap1\n    /* \"src/MockToken_flattened.sol\":70739:70742  ids */\n  dup9\n  swap1\n    /* \"src/MockToken_flattened.sol\":70744:70750  values */\n  dup9\n  swap1\n    /* \"src/MockToken_flattened.sol\":70752:70756  data */\n  dup9\n  swap1\n    /* \"src/MockToken_flattened.sol\":70679:70757  IERC1155Receiver(to).onERC1155BatchReceived(operator, from, ids, values, data) */\n  0x04\n  add\n  tag_87\n  jump\t// in\ntag_86:\n  0x20\n  mload(0x40)\n  dup1\n  dup4\n  sub\n  dup2\n  0x00\n  dup8\n  gas\n  call\n  swap3\n  pop\n  pop\n  pop\n  dup1\n  iszero\n  tag_88\n  jumpi\n  pop\n  0x40\n  dup1\n  mload\n  0x1f\n  returndatasize\n  swap1\n  dup2\n  add\n  not(0x1f)\n  and\n  dup3\n  add\n  swap1\n  swap3\n  mstore\n  tag_89\n  swap2\n  dup2\n  add\n  swap1\n  tag_71\n  jump\t// in\ntag_89:\n  0x01\ntag_88:\n    /* \"src/MockToken_flattened.sol\":70675:71435  try IERC1155Receiver(to).onERC1155BatchReceived(operator, from, ids, values, data) returns (... */\n  tag_90\n  jumpi\n  returndatasize\n  dup1\n  dup1\n  iszero\n  tag_77\n  jumpi\n  mload(0x40)\n  swap2\n  pop\n  and(add(returndatasize, 0x3f), not(0x1f))\n  dup3\n  add\n  0x40\n  mstore\n  returndatasize\n  dup3\n  mstore\n  returndatasize\n  0x00\n  0x20\n  dup5\n  add\n  returndatacopy\n  jump(tag_76)\ntag_90:\n  not(sub(shl(0xe0, 0x01), 0x01))\n    /* \"src/MockToken_flattened.sol\":70836:70896  response != IERC1155Receiver.onERC1155BatchReceived.selector */\n  dup2\n  and\n  shl(0xe0, 0xbc197c81)\n  eq\n    /* \"src/MockToken_flattened.sol\":70832:71011  if (response != IERC1155Receiver.onERC1155BatchReceived.selector) {... */\n  tag_82\n  jumpi\n    /* \"src/MockToken_flattened.sol\":70966:70992  ERC1155InvalidReceiver(to) */\n  mload(0x40)\n  shl(0xe1, 0x2bfa23e7)\n  dup2\n  mstore\n  sub(shl(0xa0, 0x01), 0x01)\n    /* \"#utility.yul\":2890:2922   */\n  dup7\n  and\n    /* \"src/MockToken_flattened.sol\":70966:70992  ERC1155InvalidReceiver(to) */\n  0x04\n  dup3\n  add\n    /* \"#utility.yul\":2872:2923   */\n  mstore\n    /* \"#utility.yul\":2845:2863   */\n  0x24\n  add\n    /* \"src/MockToken_flattened.sol\":70966:70992  ERC1155InvalidReceiver(to) */\n  tag_17\n    /* \"#utility.yul\":2726:2929   */\n  jump\n    /* \"#utility.yul\":14:141   */\ntag_102:\n    /* \"#utility.yul\":75:85   */\n  0x4e487b71\n    /* \"#utility.yul\":70:73   */\n  0xe0\n    /* \"#utility.yul\":66:86   */\n  shl\n    /* \"#utility.yul\":63:64   */\n  0x00\n    /* \"#utility.yul\":56:87   */\n  mstore\n    /* \"#utility.yul\":106:110   */\n  0x41\n    /* \"#utility.yul\":103:104   */\n  0x04\n    /* \"#utility.yul\":96:111   */\n  mstore\n    /* \"#utility.yul\":130:134   */\n  0x24\n    /* \"#utility.yul\":127:128   */\n  0x00\n    /* \"#utility.yul\":120:135   */\n  revert\n    /* \"#utility.yul\":146:526   */\ntag_103:\n    /* \"#utility.yul\":225:226   */\n  0x01\n    /* \"#utility.yul\":221:233   */\n  dup2\n  dup2\n  shr\n  swap1\n    /* \"#utility.yul\":268:280   */\n  dup3\n  and\n  dup1\n    /* \"#utility.yul\":289:350   */\n  tag_112\n  jumpi\n    /* \"#utility.yul\":343:347   */\n  0x7f\n    /* \"#utility.yul\":335:341   */\n  dup3\n    /* \"#utility.yul\":331:348   */\n  and\n    /* \"#utility.yul\":321:348   */\n  swap2\n  pop\n    /* \"#utility.yul\":289:350   */\ntag_112:\n    /* \"#utility.yul\":396:398   */\n  0x20\n    /* \"#utility.yul\":388:394   */\n  dup3\n    /* \"#utility.yul\":385:399   */\n  lt\n    /* \"#utility.yul\":365:383   */\n  dup2\n    /* \"#utility.yul\":362:400   */\n  sub\n    /* \"#utility.yul\":359:520   */\n  tag_113\n  jumpi\n    /* \"#utility.yul\":442:452   */\n  0x4e487b71\n    /* \"#utility.yul\":437:440   */\n  0xe0\n    /* \"#utility.yul\":433:453   */\n  shl\n    /* \"#utility.yul\":430:431   */\n  0x00\n    /* \"#utility.yul\":423:454   */\n  mstore\n    /* \"#utility.yul\":477:481   */\n  0x22\n    /* \"#utility.yul\":474:475   */\n  0x04\n    /* \"#utility.yul\":467:482   */\n  mstore\n    /* \"#utility.yul\":505:509   */\n  0x24\n    /* \"#utility.yul\":502:503   */\n  0x00\n    /* \"#utility.yul\":495:510   */\n  revert\n    /* \"#utility.yul\":359:520   */\ntag_113:\n  pop\n    /* \"#utility.yul\":146:526   */\n  swap2\n  swap1\n  pop\n  jump\t// out\n    /* \"#utility.yul\":657:1200   */\ntag_105:\n    /* \"#utility.yul\":759:761   */\n  0x1f\n    /* \"#utility.yul\":754:757   */\n  dup3\n    /* \"#utility.yul\":751:762   */\n  gt\n    /* \"#utility.yul\":748:1194   */\n  iszero\n  tag_116\n  jumpi\n    /* \"#utility.yul\":795:796   */\n  0x00\n    /* \"#utility.yul\":819:824   */\n  dup2\n    /* \"#utility.yul\":816:817   */\n  0x00\n    /* \"#utility.yul\":809:825   */\n  mstore\n    /* \"#utility.yul\":863:867   */\n  0x20\n    /* \"#utility.yul\":860:861   */\n  0x00\n    /* \"#utility.yul\":850:868   */\n  keccak256\n    /* \"#utility.yul\":933:935   */\n  0x1f\n    /* \"#utility.yul\":921:931   */\n  dup6\n    /* \"#utility.yul\":917:936   */\n  add\n    /* \"#utility.yul\":914:915   */\n  0x05\n    /* \"#utility.yul\":910:937   */\n  shr\n    /* \"#utility.yul\":904:908   */\n  dup2\n    /* \"#utility.yul\":900:938   */\n  add\n    /* \"#utility.yul\":969:973   */\n  0x20\n    /* \"#utility.yul\":957:967   */\n  dup7\n    /* \"#utility.yul\":954:974   */\n  lt\n    /* \"#utility.yul\":951:998   */\n  iszero\n  tag_117\n  jumpi\n  pop\n    /* \"#utility.yul\":992:996   */\n  dup1\n    /* \"#utility.yul\":951:998   */\ntag_117:\n    /* \"#utility.yul\":1047:1049   */\n  0x1f\n    /* \"#utility.yul\":1042:1045   */\n  dup6\n    /* \"#utility.yul\":1038:1050   */\n  add\n    /* \"#utility.yul\":1035:1036   */\n  0x05\n    /* \"#utility.yul\":1031:1051   */\n  shr\n    /* \"#utility.yul\":1025:1029   */\n  dup3\n    /* \"#utility.yul\":1021:1052   */\n  add\n    /* \"#utility.yul\":1011:1052   */\n  swap2\n  pop\n    /* \"#utility.yul\":1102:1184   */\ntag_118:\n    /* \"#utility.yul\":1120:1122   */\n  dup2\n    /* \"#utility.yul\":1113:1118   */\n  dup2\n    /* \"#utility.yul\":1110:1123   */\n  lt\n    /* \"#utility.yul\":1102:1184   */\n  iszero\n  tag_21\n  jumpi\n    /* \"#utility.yul\":1165:1182   */\n  dup3\n  dup2\n  sstore\n    /* \"#utility.yul\":1146:1147   */\n  0x01\n    /* \"#utility.yul\":1135:1148   */\n  add\n    /* \"#utility.yul\":1102:1184   */\n  jump(tag_118)\n    /* \"#utility.yul\":748:1194   */\ntag_116:\n    /* \"#utility.yul\":657:1200   */\n  pop\n  pop\n  pop\n  jump\t// out\n    /* \"#utility.yul\":1376:2721   */\ntag_14:\n    /* \"#utility.yul\":1496:1506   */\n  dup2\n  mload\n  sub(shl(0x40, 0x01), 0x01)\n    /* \"#utility.yul\":1518:1548   */\n  dup2\n  gt\n    /* \"#utility.yul\":1515:1571   */\n  iszero\n  tag_124\n  jumpi\n    /* \"#utility.yul\":1551:1569   */\n  tag_124\n  tag_102\n  jump\t// in\ntag_124:\n    /* \"#utility.yul\":1580:1677   */\n  tag_125\n    /* \"#utility.yul\":1670:1676   */\n  dup2\n    /* \"#utility.yul\":1630:1668   */\n  tag_126\n    /* \"#utility.yul\":1662:1666   */\n  dup5\n    /* \"#utility.yul\":1656:1667   */\n  sload\n    /* \"#utility.yul\":1630:1668   */\n  tag_103\n  jump\t// in\ntag_126:\n    /* \"#utility.yul\":1624:1628   */\n  dup5\n    /* \"#utility.yul\":1580:1677   */\n  tag_105\n  jump\t// in\ntag_125:\n    /* \"#utility.yul\":1732:1736   */\n  0x20\n  dup1\n    /* \"#utility.yul\":1789:1791   */\n  0x1f\n    /* \"#utility.yul\":1778:1792   */\n  dup4\n  gt\n    /* \"#utility.yul\":1806:1807   */\n  0x01\n    /* \"#utility.yul\":1801:2464   */\n  dup2\n  eq\n  tag_128\n  jumpi\n    /* \"#utility.yul\":2508:2509   */\n  0x00\n    /* \"#utility.yul\":2525:2531   */\n  dup5\n    /* \"#utility.yul\":2522:2611   */\n  iszero\n  tag_129\n  jumpi\n  pop\n    /* \"#utility.yul\":2577:2596   */\n  dup6\n  dup4\n  add\n    /* \"#utility.yul\":2571:2597   */\n  mload\n    /* \"#utility.yul\":2522:2611   */\ntag_129:\n  not(0x00)\n    /* \"#utility.yul\":1333:1334   */\n  0x03\n    /* \"#utility.yul\":1329:1340   */\n  dup7\n  swap1\n  shl\n    /* \"#utility.yul\":1325:1349   */\n  shr\n    /* \"#utility.yul\":1321:1350   */\n  not\n    /* \"#utility.yul\":1311:1351   */\n  and\n    /* \"#utility.yul\":1357:1358   */\n  0x01\n    /* \"#utility.yul\":1353:1364   */\n  dup6\n  swap1\n  shl\n    /* \"#utility.yul\":1308:1365   */\n  or\n    /* \"#utility.yul\":2624:2705   */\n  dup6\n  sstore\n    /* \"#utility.yul\":1771:2715   */\n  jump(tag_21)\n    /* \"#utility.yul\":1801:2464   */\ntag_128:\n    /* \"#utility.yul\":604:605   */\n  0x00\n    /* \"#utility.yul\":597:611   */\n  dup6\n  dup2\n  mstore\n    /* \"#utility.yul\":641:645   */\n  0x20\n    /* \"#utility.yul\":628:646   */\n  dup2\n  keccak256\n  not(0x1f)\n    /* \"#utility.yul\":1837:1857   */\n  dup7\n  and\n  swap2\n    /* \"#utility.yul\":1955:2191   */\ntag_132:\n    /* \"#utility.yul\":1969:1976   */\n  dup3\n    /* \"#utility.yul\":1966:1967   */\n  dup2\n    /* \"#utility.yul\":1963:1977   */\n  lt\n    /* \"#utility.yul\":1955:2191   */\n  iszero\n  tag_134\n  jumpi\n    /* \"#utility.yul\":2058:2077   */\n  dup9\n  dup7\n  add\n    /* \"#utility.yul\":2052:2078   */\n  mload\n    /* \"#utility.yul\":2037:2079   */\n  dup3\n  sstore\n    /* \"#utility.yul\":2150:2177   */\n  swap5\n  dup5\n  add\n  swap5\n    /* \"#utility.yul\":2118:2119   */\n  0x01\n    /* \"#utility.yul\":2106:2120   */\n  swap1\n  swap2\n  add\n  swap1\n    /* \"#utility.yul\":1985:2004   */\n  dup5\n  add\n    /* \"#utility.yul\":1955:2191   */\n  jump(tag_132)\ntag_134:\n    /* \"#utility.yul\":1959:1962   */\n  pop\n    /* \"#utility.yul\":2219:2225   */\n  dup6\n    /* \"#utility.yul\":2210:2217   */\n  dup3\n    /* \"#utility.yul\":2207:2226   */\n  lt\n    /* \"#utility.yul\":2204:2405   */\n  iszero\n  tag_135\n  jumpi\n    /* \"#utility.yul\":2280:2299   */\n  dup8\n  dup6\n  add\n    /* \"#utility.yul\":2274:2300   */\n  mload\n  not(0x00)\n    /* \"#utility.yul\":2363:2364   */\n  0x03\n    /* \"#utility.yul\":2359:2373   */\n  dup9\n  swap1\n  shl\n    /* \"#utility.yul\":2375:2378   */\n  0xf8\n    /* \"#utility.yul\":2355:2379   */\n  and\n    /* \"#utility.yul\":2351:2388   */\n  shr\n    /* \"#utility.yul\":2347:2389   */\n  not\n    /* \"#utility.yul\":2332:2390   */\n  and\n    /* \"#utility.yul\":2317:2391   */\n  dup2\n  sstore\n    /* \"#utility.yul\":2204:2405   */\ntag_135:\n  pop\n  pop\n  pop\n  pop\n  pop\n    /* \"#utility.yul\":2451:2452   */\n  0x01\n    /* \"#utility.yul\":2435:2449   */\n  swap1\n  dup2\n  shl\n    /* \"#utility.yul\":2431:2453   */\n  add\n    /* \"#utility.yul\":2418:2454   */\n  swap1\n  sstore\n  pop\n    /* \"#utility.yul\":1376:2721   */\n  jump\t// out\n    /* \"#utility.yul\":3609:3831   */\ntag_55:\n    /* \"#utility.yul\":3674:3683   */\n  dup1\n  dup3\n  add\n    /* \"#utility.yul\":3695:3705   */\n  dup1\n  dup3\n  gt\n    /* \"#utility.yul\":3692:3825   */\n  iszero\n  tag_140\n  jumpi\n    /* \"#utility.yul\":3747:3757   */\n  0x4e487b71\n    /* \"#utility.yul\":3742:3745   */\n  0xe0\n    /* \"#utility.yul\":3738:3758   */\n  shl\n    /* \"#utility.yul\":3735:3736   */\n  0x00\n    /* \"#utility.yul\":3728:3759   */\n  mstore\n    /* \"#utility.yul\":3782:3786   */\n  0x11\n    /* \"#utility.yul\":3779:3780   */\n  0x04\n    /* \"#utility.yul\":3772:3787   */\n  mstore\n    /* \"#utility.yul\":3810:3814   */\n  0x24\n    /* \"#utility.yul\":3807:3808   */\n  0x00\n    /* \"#utility.yul\":3800:3815   */\n  revert\n    /* \"#utility.yul\":3692:3825   */\ntag_140:\n    /* \"#utility.yul\":3609:3831   */\n  swap3\n  swap2\n  pop\n  pop\n  jump\t// out\n    /* \"#utility.yul\":3836:4275   */\ntag_107:\n    /* \"#utility.yul\":3889:3892   */\n  0x00\n    /* \"#utility.yul\":3927:3932   */\n  dup2\n    /* \"#utility.yul\":3921:3933   */\n  mload\n    /* \"#utility.yul\":3954:3960   */\n  dup1\n    /* \"#utility.yul\":3949:3952   */\n  dup5\n    /* \"#utility.yul\":3942:3961   */\n  mstore\n    /* \"#utility.yul\":3980:3984   */\n  0x20\n    /* \"#utility.yul\":4009:4013   */\n  dup1\n    /* \"#utility.yul\":4004:4007   */\n  dup6\n    /* \"#utility.yul\":4000:4014   */\n  add\n    /* \"#utility.yul\":3993:4014   */\n  swap5\n  pop\n    /* \"#utility.yul\":4048:4052   */\n  0x20\n    /* \"#utility.yul\":4041:4046   */\n  dup5\n    /* \"#utility.yul\":4037:4053   */\n  add\n    /* \"#utility.yul\":4071:4072   */\n  0x00\n    /* \"#utility.yul\":4081:4250   */\ntag_142:\n    /* \"#utility.yul\":4095:4101   */\n  dup4\n    /* \"#utility.yul\":4092:4093   */\n  dup2\n    /* \"#utility.yul\":4089:4102   */\n  lt\n    /* \"#utility.yul\":4081:4250   */\n  iszero\n  tag_144\n  jumpi\n    /* \"#utility.yul\":4156:4169   */\n  dup2\n  mload\n    /* \"#utility.yul\":4144:4170   */\n  dup8\n  mstore\n    /* \"#utility.yul\":4190:4202   */\n  swap6\n  dup3\n  add\n  swap6\n    /* \"#utility.yul\":4225:4240   */\n  swap1\n  dup3\n  add\n  swap1\n    /* \"#utility.yul\":4117:4118   */\n  0x01\n    /* \"#utility.yul\":4110:4119   */\n  add\n    /* \"#utility.yul\":4081:4250   */\n  jump(tag_142)\ntag_144:\n  pop\n    /* \"#utility.yul\":4266:4269   */\n  swap5\n  swap6\n    /* \"#utility.yul\":3836:4275   */\n  swap5\n  pop\n  pop\n  pop\n  pop\n  pop\n  jump\t// out\n    /* \"#utility.yul\":4280:4745   */\ntag_62:\n    /* \"#utility.yul\":4537:4539   */\n  0x40\n    /* \"#utility.yul\":4526:4535   */\n  dup2\n    /* \"#utility.yul\":4519:4540   */\n  mstore\n    /* \"#utility.yul\":4500:4504   */\n  0x00\n    /* \"#utility.yul\":4563:4619   */\n  tag_146\n    /* \"#utility.yul\":4615:4617   */\n  0x40\n    /* \"#utility.yul\":4604:4613   */\n  dup4\n    /* \"#utility.yul\":4600:4618   */\n  add\n    /* \"#utility.yul\":4592:4598   */\n  dup6\n    /* \"#utility.yul\":4563:4619   */\n  tag_107\n  jump\t// in\ntag_146:\n    /* \"#utility.yul\":4667:4676   */\n  dup3\n    /* \"#utility.yul\":4659:4665   */\n  dup2\n    /* \"#utility.yul\":4655:4677   */\n  sub\n    /* \"#utility.yul\":4650:4652   */\n  0x20\n    /* \"#utility.yul\":4639:4648   */\n  dup5\n    /* \"#utility.yul\":4635:4653   */\n  add\n    /* \"#utility.yul\":4628:4678   */\n  mstore\n    /* \"#utility.yul\":4695:4739   */\n  tag_147\n    /* \"#utility.yul\":4732:4738   */\n  dup2\n    /* \"#utility.yul\":4724:4730   */\n  dup6\n    /* \"#utility.yul\":4695:4739   */\n  tag_107\n  jump\t// in\ntag_147:\n    /* \"#utility.yul\":4687:4739   */\n  swap6\n    /* \"#utility.yul\":4280:4745   */\n  swap5\n  pop\n  pop\n  pop\n  pop\n  pop\n  jump\t// out\n    /* \"#utility.yul\":4750:5172   */\ntag_108:\n    /* \"#utility.yul\":4791:4794   */\n  0x00\n    /* \"#utility.yul\":4829:4834   */\n  dup2\n    /* \"#utility.yul\":4823:4835   */\n  mload\n    /* \"#utility.yul\":4856:4862   */\n  dup1\n    /* \"#utility.yul\":4851:4854   */\n  dup5\n    /* \"#utility.yul\":4844:4863   */\n  mstore\n    /* \"#utility.yul\":4881:4882   */\n  0x00\n    /* \"#utility.yul\":4891:5053   */\ntag_149:\n    /* \"#utility.yul\":4905:4911   */\n  dup2\n    /* \"#utility.yul\":4902:4903   */\n  dup2\n    /* \"#utility.yul\":4899:4912   */\n  lt\n    /* \"#utility.yul\":4891:5053   */\n  iszero\n  tag_151\n  jumpi\n    /* \"#utility.yul\":4967:4971   */\n  0x20\n    /* \"#utility.yul\":5023:5036   */\n  dup2\n  dup6\n  add\n    /* \"#utility.yul\":5019:5041   */\n  dup2\n  add\n    /* \"#utility.yul\":5013:5042   */\n  mload\n    /* \"#utility.yul\":4995:5006   */\n  dup7\n  dup4\n  add\n    /* \"#utility.yul\":4991:5011   */\n  dup3\n  add\n    /* \"#utility.yul\":4984:5043   */\n  mstore\n    /* \"#utility.yul\":4920:4932   */\n  add\n    /* \"#utility.yul\":4891:5053   */\n  jump(tag_149)\ntag_151:\n    /* \"#utility.yul\":4895:4898   */\n  pop\n    /* \"#utility.yul\":5098:5099   */\n  0x00\n    /* \"#utility.yul\":5091:5095   */\n  0x20\n    /* \"#utility.yul\":5082:5088   */\n  dup3\n    /* \"#utility.yul\":5077:5080   */\n  dup7\n    /* \"#utility.yul\":5073:5089   */\n  add\n    /* \"#utility.yul\":5069:5096   */\n  add\n    /* \"#utility.yul\":5062:5100   */\n  mstore\n    /* \"#utility.yul\":5161:5165   */\n  0x20\n    /* \"#utility.yul\":5154:5156   */\n  0x1f\n    /* \"#utility.yul\":5150:5157   */\n  not\n    /* \"#utility.yul\":5145:5147   */\n  0x1f\n    /* \"#utility.yul\":5137:5143   */\n  dup4\n    /* \"#utility.yul\":5133:5148   */\n  add\n    /* \"#utility.yul\":5129:5158   */\n  and\n    /* \"#utility.yul\":5124:5127   */\n  dup6\n    /* \"#utility.yul\":5120:5159   */\n  add\n    /* \"#utility.yul\":5116:5166   */\n  add\n    /* \"#utility.yul\":5109:5166   */\n  swap2\n  pop\n  pop\n    /* \"#utility.yul\":4750:5172   */\n  swap3\n  swap2\n  pop\n  pop\n  jump\t// out\n    /* \"#utility.yul\":5177:5737   */\ntag_68:\n  sub(shl(0xa0, 0x01), 0x01)\n    /* \"#utility.yul\":5474:5489   */\n  dup7\n  dup2\n  and\n    /* \"#utility.yul\":5456:5490   */\n  dup3\n  mstore\n    /* \"#utility.yul\":5526:5541   */\n  dup6\n  and\n    /* \"#utility.yul\":5521:5523   */\n  0x20\n    /* \"#utility.yul\":5506:5524   */\n  dup3\n  add\n    /* \"#utility.yul\":5499:5542   */\n  mstore\n    /* \"#utility.yul\":5573:5575   */\n  0x40\n    /* \"#utility.yul\":5558:5576   */\n  dup2\n  add\n    /* \"#utility.yul\":5551:5585   */\n  dup5\n  swap1\n  mstore\n    /* \"#utility.yul\":5616:5618   */\n  0x60\n    /* \"#utility.yul\":5601:5619   */\n  dup2\n  add\n    /* \"#utility.yul\":5594:5628   */\n  dup4\n  swap1\n  mstore\n    /* \"#utility.yul\":5436:5439   */\n  0xa0\n    /* \"#utility.yul\":5659:5662   */\n  0x80\n    /* \"#utility.yul\":5644:5663   */\n  dup3\n  add\n    /* \"#utility.yul\":5637:5669   */\n  dup2\n  swap1\n  mstore\n    /* \"#utility.yul\":5399:5403   */\n  0x00\n  swap1\n    /* \"#utility.yul\":5686:5731   */\n  tag_153\n  swap1\n    /* \"#utility.yul\":5711:5730   */\n  dup4\n  add\n    /* \"#utility.yul\":5703:5709   */\n  dup5\n    /* \"#utility.yul\":5686:5731   */\n  tag_108\n  jump\t// in\ntag_153:\n    /* \"#utility.yul\":5678:5731   */\n  swap8\n    /* \"#utility.yul\":5177:5737   */\n  swap7\n  pop\n  pop\n  pop\n  pop\n  pop\n  pop\n  pop\n  jump\t// out\n    /* \"#utility.yul\":5742:6032   */\ntag_71:\n    /* \"#utility.yul\":5811:5817   */\n  0x00\n    /* \"#utility.yul\":5864:5866   */\n  0x20\n    /* \"#utility.yul\":5852:5861   */\n  dup3\n    /* \"#utility.yul\":5843:5850   */\n  dup5\n    /* \"#utility.yul\":5839:5862   */\n  sub\n    /* \"#utility.yul\":5835:5867   */\n  slt\n    /* \"#utility.yul\":5832:5884   */\n  iszero\n  tag_155\n  jumpi\n    /* \"#utility.yul\":5880:5881   */\n  0x00\n    /* \"#utility.yul\":5877:5878   */\n  dup1\n    /* \"#utility.yul\":5870:5882   */\n  revert\n    /* \"#utility.yul\":5832:5884   */\ntag_155:\n    /* \"#utility.yul\":5906:5922   */\n  dup2\n  mload\n  not(sub(shl(0xe0, 0x01), 0x01))\n    /* \"#utility.yul\":5951:5983   */\n  dup2\n  and\n    /* \"#utility.yul\":5941:5984   */\n  dup2\n  eq\n    /* \"#utility.yul\":5931:6002   */\n  tag_156\n  jumpi\n    /* \"#utility.yul\":5998:5999   */\n  0x00\n    /* \"#utility.yul\":5995:5996   */\n  dup1\n    /* \"#utility.yul\":5988:6000   */\n  revert\n    /* \"#utility.yul\":5931:6002   */\ntag_156:\n    /* \"#utility.yul\":6021:6026   */\n  swap4\n    /* \"#utility.yul\":5742:6032   */\n  swap3\n  pop\n  pop\n  pop\n  jump\t// out\n    /* \"#utility.yul\":6037:6863   */\ntag_87:\n  sub(shl(0xa0, 0x01), 0x01)\n    /* \"#utility.yul\":6434:6449   */\n  dup7\n  dup2\n  and\n    /* \"#utility.yul\":6416:6450   */\n  dup3\n  mstore\n    /* \"#utility.yul\":6486:6501   */\n  dup6\n  and\n    /* \"#utility.yul\":6481:6483   */\n  0x20\n    /* \"#utility.yul\":6466:6484   */\n  dup3\n  add\n    /* \"#utility.yul\":6459:6502   */\n  mstore\n    /* \"#utility.yul\":6396:6399   */\n  0xa0\n    /* \"#utility.yul\":6533:6535   */\n  0x40\n    /* \"#utility.yul\":6518:6536   */\n  dup3\n  add\n    /* \"#utility.yul\":6511:6542   */\n  dup2\n  swap1\n  mstore\n    /* \"#utility.yul\":6359:6363   */\n  0x00\n  swap1\n    /* \"#utility.yul\":6565:6622   */\n  tag_158\n  swap1\n    /* \"#utility.yul\":6602:6621   */\n  dup4\n  add\n    /* \"#utility.yul\":6594:6600   */\n  dup7\n    /* \"#utility.yul\":6565:6622   */\n  tag_107\n  jump\t// in\ntag_158:\n    /* \"#utility.yul\":6670:6679   */\n  dup3\n    /* \"#utility.yul\":6662:6668   */\n  dup2\n    /* \"#utility.yul\":6658:6680   */\n  sub\n    /* \"#utility.yul\":6653:6655   */\n  0x60\n    /* \"#utility.yul\":6642:6651   */\n  dup5\n    /* \"#utility.yul\":6638:6656   */\n  add\n    /* \"#utility.yul\":6631:6681   */\n  mstore\n    /* \"#utility.yul\":6704:6748   */\n  tag_159\n    /* \"#utility.yul\":6741:6747   */\n  dup2\n    /* \"#utility.yul\":6733:6739   */\n  dup7\n    /* \"#utility.yul\":6704:6748   */\n  tag_107\n  jump\t// in\ntag_159:\n    /* \"#utility.yul\":6690:6748   */\n  swap1\n  pop\n    /* \"#utility.yul\":6797:6806   */\n  dup3\n    /* \"#utility.yul\":6789:6795   */\n  dup2\n    /* \"#utility.yul\":6785:6807   */\n  sub\n    /* \"#utility.yul\":6779:6782   */\n  0x80\n    /* \"#utility.yul\":6768:6777   */\n  dup5\n    /* \"#utility.yul\":6764:6783   */\n  add\n    /* \"#utility.yul\":6757:6808   */\n  mstore\n    /* \"#utility.yul\":6825:6857   */\n  tag_160\n    /* \"#utility.yul\":6850:6856   */\n  dup2\n    /* \"#utility.yul\":6842:6848   */\n  dup6\n    /* \"#utility.yul\":6825:6857   */\n  tag_108\n  jump\t// in\ntag_160:\n    /* \"#utility.yul\":6817:6857   */\n  swap9\n    /* \"#utility.yul\":6037:6863   */\n  swap8\n  pop\n  pop\n  pop\n  pop\n  pop\n  pop\n  pop\n  pop\n  jump\t// out\ntag_109:\n    /* \"src/MockToken_flattened.sol\":72476:72761  contract mockERC1155Token is ERC1155(\"mockURI\") {... */\n  dataSize(sub_0)\n  dup1\n  dataOffset(sub_0)\n  0x00\n  codecopy\n  0x00\n  return\nstop\n\nsub_0: assembly {\n        /* \"src/MockToken_flattened.sol\":72476:72761  contract mockERC1155Token is ERC1155(\"mockURI\") {... */\n      mstore(0x40, 0x80)\n      callvalue\n      dup1\n      iszero\n      tag_1\n      jumpi\n      0x00\n      dup1\n      revert\n    tag_1:\n      pop\n      jumpi(tag_2, lt(calldatasize, 0x04))\n      shr(0xe0, calldataload(0x00))\n      dup1\n      0x2eb2c2d6\n      gt\n      tag_12\n      jumpi\n      dup1\n      0x2eb2c2d6\n      eq\n      tag_7\n      jumpi\n      dup1\n      0x4e1273f4\n      eq\n      tag_8\n      jumpi\n      dup1\n      0xa22cb465\n      eq\n      tag_9\n      jumpi\n      dup1\n      0xe985e9c5\n      eq\n      tag_10\n      jumpi\n      dup1\n      0xf242432a\n      eq\n      tag_11\n      jumpi\n      0x00\n      dup1\n      revert\n    tag_12:\n      dup1\n      0xfdd58e\n      eq\n      tag_3\n      jumpi\n      dup1\n      0x01ffc9a7\n      eq\n      tag_4\n      jumpi\n      dup1\n      0x0e89341c\n      eq\n      tag_5\n      jumpi\n      dup1\n      0x156e29f6\n      eq\n      tag_6\n      jumpi\n    tag_2:\n      0x00\n      dup1\n      revert\n        /* \"src/MockToken_flattened.sol\":57734:57866  function balanceOf(address account, uint256 id) public view virtual returns (uint256) {... */\n    tag_3:\n      tag_13\n      tag_14\n      calldatasize\n      0x04\n      tag_15\n      jump\t// in\n    tag_14:\n      tag_16\n      jump\t// in\n    tag_13:\n      mload(0x40)\n        /* \"#utility.yul\":597:622   */\n      swap1\n      dup2\n      mstore\n        /* \"#utility.yul\":585:587   */\n      0x20\n        /* \"#utility.yul\":570:588   */\n      add\n        /* \"src/MockToken_flattened.sol\":57734:57866  function balanceOf(address account, uint256 id) public view virtual returns (uint256) {... */\n    tag_17:\n      mload(0x40)\n      dup1\n      swap2\n      sub\n      swap1\n      return\n        /* \"src/MockToken_flattened.sol\":56867:57172  function supportsInterface(bytes4 interfaceId) public view virtual override(ERC165, IERC165) returns (bool) {... */\n    tag_4:\n      tag_19\n      tag_20\n      calldatasize\n      0x04\n      tag_21\n      jump\t// in\n    tag_20:\n      tag_22\n      jump\t// in\n    tag_19:\n      mload(0x40)\n        /* \"#utility.yul\":1184:1198   */\n      swap1\n      iszero\n        /* \"#utility.yul\":1177:1199   */\n      iszero\n        /* \"#utility.yul\":1159:1200   */\n      dup2\n      mstore\n        /* \"#utility.yul\":1147:1149   */\n      0x20\n        /* \"#utility.yul\":1132:1150   */\n      add\n        /* \"src/MockToken_flattened.sol\":56867:57172  function supportsInterface(bytes4 interfaceId) public view virtual override(ERC165, IERC165) returns (bool) {... */\n      tag_17\n        /* \"#utility.yul\":1019:1206   */\n      jump\n        /* \"src/MockToken_flattened.sol\":57571:57674  function uri(uint256 /* id */) public view virtual returns (string memory) {... */\n    tag_5:\n      tag_25\n      tag_26\n      calldatasize\n      0x04\n      tag_27\n      jump\t// in\n    tag_26:\n      tag_28\n      jump\t// in\n    tag_25:\n      mload(0x40)\n      tag_17\n      swap2\n      swap1\n      tag_30\n      jump\t// in\n        /* \"src/MockToken_flattened.sol\":72652:72759  function mint(address _to, uint _id, uint _amount) external {... */\n    tag_6:\n      tag_31\n      tag_32\n      calldatasize\n      0x04\n      tag_33\n      jump\t// in\n    tag_32:\n      tag_34\n      jump\t// in\n    tag_31:\n      stop\n        /* \"src/MockToken_flattened.sol\":59501:59930  function safeBatchTransferFrom(... */\n    tag_7:\n      tag_31\n      tag_36\n      calldatasize\n      0x04\n      tag_37\n      jump\t// in\n    tag_36:\n      tag_38\n      jump\t// in\n        /* \"src/MockToken_flattened.sol\":58023:58575  function balanceOfBatch(... */\n    tag_8:\n      tag_39\n      tag_40\n      calldatasize\n      0x04\n      tag_41\n      jump\t// in\n    tag_40:\n      tag_42\n      jump\t// in\n    tag_39:\n      mload(0x40)\n      tag_17\n      swap2\n      swap1\n      tag_44\n      jump\t// in\n        /* \"src/MockToken_flattened.sol\":58643:58787  function setApprovalForAll(address operator, bool approved) public virtual {... */\n    tag_9:\n      tag_31\n      tag_46\n      calldatasize\n      0x04\n      tag_47\n      jump\t// in\n    tag_46:\n      tag_48\n      jump\t// in\n        /* \"src/MockToken_flattened.sol\":58854:59011  function isApprovedForAll(address account, address operator) public view virtual returns (bool) {... */\n    tag_10:\n      tag_19\n      tag_50\n      calldatasize\n      0x04\n      tag_51\n      jump\t// in\n    tag_50:\n      tag_52\n      jump\t// in\n        /* \"src/MockToken_flattened.sol\":59078:59429  function safeTransferFrom(address from, address to, uint256 id, uint256 value, bytes memory data) public virtual {... */\n    tag_11:\n      tag_31\n      tag_55\n      calldatasize\n      0x04\n      tag_56\n      jump\t// in\n    tag_55:\n      tag_57\n      jump\t// in\n        /* \"src/MockToken_flattened.sol\":57734:57866  function balanceOf(address account, uint256 id) public view virtual returns (uint256) {... */\n    tag_16:\n        /* \"src/MockToken_flattened.sol\":57811:57818  uint256 */\n      0x00\n        /* \"src/MockToken_flattened.sol\":57837:57850  _balances[id] */\n      dup2\n      dup2\n      mstore\n      0x20\n      dup2\n      dup2\n      mstore\n      0x40\n      dup1\n      dup4\n      keccak256\n      sub(shl(0xa0, 0x01), 0x01)\n        /* \"src/MockToken_flattened.sol\":57837:57859  _balances[id][account] */\n      dup7\n      and\n      dup5\n      mstore\n      swap1\n      swap2\n      mstore\n      swap1\n      keccak256\n      sload\n        /* \"src/MockToken_flattened.sol\":57734:57866  function balanceOf(address account, uint256 id) public view virtual returns (uint256) {... */\n    tag_58:\n      swap3\n      swap2\n      pop\n      pop\n      jump\t// out\n        /* \"src/MockToken_flattened.sol\":56867:57172  function supportsInterface(bytes4 interfaceId) public view virtual override(ERC165, IERC165) returns (bool) {... */\n    tag_22:\n        /* \"src/MockToken_flattened.sol\":56969:56973  bool */\n      0x00\n      not(sub(shl(0xe0, 0x01), 0x01))\n        /* \"src/MockToken_flattened.sol\":57004:57045  interfaceId == type(IERC1155).interfaceId */\n      dup3\n      and\n      shl(0xe1, 0x6cdb3d13)\n      eq\n      dup1\n        /* \"src/MockToken_flattened.sol\":57004:57113  interfaceId == type(IERC1155).interfaceId ||... */\n      tag_60\n      jumpi\n      pop\n      not(sub(shl(0xe0, 0x01), 0x01))\n        /* \"src/MockToken_flattened.sol\":57061:57113  interfaceId == type(IERC1155MetadataURI).interfaceId */\n      dup3\n      and\n      shl(0xe2, 0x03a24d07)\n      eq\n        /* \"src/MockToken_flattened.sol\":57004:57113  interfaceId == type(IERC1155).interfaceId ||... */\n    tag_60:\n        /* \"src/MockToken_flattened.sol\":57004:57165  interfaceId == type(IERC1155).interfaceId ||... */\n      dup1\n      tag_58\n      jumpi\n      pop\n      shl(0xe0, 0x01ffc9a7)\n      not(sub(shl(0xe0, 0x01), 0x01))\n        /* \"src/MockToken_flattened.sol\":47735:47775  interfaceId == type(IERC165).interfaceId */\n      dup4\n      and\n      eq\n        /* \"src/MockToken_flattened.sol\":57129:57165  super.supportsInterface(interfaceId) */\n      tag_58\n        /* \"src/MockToken_flattened.sol\":47636:47782  function supportsInterface(bytes4 interfaceId) public view virtual returns (bool) {... */\n      jump\n        /* \"src/MockToken_flattened.sol\":57571:57674  function uri(uint256 /* id */) public view virtual returns (string memory) {... */\n    tag_28:\n        /* \"src/MockToken_flattened.sol\":57631:57644  string memory */\n      0x60\n        /* \"src/MockToken_flattened.sol\":57663:57667  _uri */\n      0x02\n        /* \"src/MockToken_flattened.sol\":57656:57667  return _uri */\n      dup1\n      sload\n      tag_65\n      swap1\n      tag_66\n      jump\t// in\n    tag_65:\n      dup1\n      0x1f\n      add\n      0x20\n      dup1\n      swap2\n      div\n      mul\n      0x20\n      add\n      mload(0x40)\n      swap1\n      dup2\n      add\n      0x40\n      mstore\n      dup1\n      swap3\n      swap2\n      swap1\n      dup2\n      dup2\n      mstore\n      0x20\n      add\n      dup3\n      dup1\n      sload\n      tag_67\n      swap1\n      tag_66\n      jump\t// in\n    tag_67:\n      dup1\n      iszero\n      tag_68\n      jumpi\n      dup1\n      0x1f\n      lt\n      tag_69\n      jumpi\n      0x0100\n      dup1\n      dup4\n      sload\n      div\n      mul\n      dup4\n      mstore\n      swap2\n      0x20\n      add\n      swap2\n      jump(tag_68)\n    tag_69:\n      dup3\n      add\n      swap2\n      swap1\n      0x00\n      mstore\n      keccak256(0x00, 0x20)\n      swap1\n    tag_70:\n      dup2\n      sload\n      dup2\n      mstore\n      swap1\n      0x01\n      add\n      swap1\n      0x20\n      add\n      dup1\n      dup4\n      gt\n      tag_70\n      jumpi\n      dup3\n      swap1\n      sub\n      0x1f\n      and\n      dup3\n      add\n      swap2\n    tag_68:\n      pop\n      pop\n      pop\n      pop\n      pop\n      swap1\n      pop\n        /* \"src/MockToken_flattened.sol\":57571:57674  function uri(uint256 /* id */) public view virtual returns (string memory) {... */\n      swap2\n      swap1\n      pop\n      jump\t// out\n        /* \"src/MockToken_flattened.sol\":72652:72759  function mint(address _to, uint _id, uint _amount) external {... */\n    tag_34:\n        /* \"src/MockToken_flattened.sol\":72722:72752  _mint(_to, _id, _amount, \"0x\") */\n      tag_72\n        /* \"src/MockToken_flattened.sol\":72728:72731  _to */\n      dup4\n        /* \"src/MockToken_flattened.sol\":72733:72736  _id */\n      dup4\n        /* \"src/MockToken_flattened.sol\":72738:72745  _amount */\n      dup4\n        /* \"src/MockToken_flattened.sol\":72722:72752  _mint(_to, _id, _amount, \"0x\") */\n      mload(0x40)\n      dup1\n      0x40\n      add\n      0x40\n      mstore\n      dup1\n      0x02\n      dup2\n      mstore\n      0x20\n      add\n      shl(0xf3, 0x060f)\n      dup2\n      mstore\n      pop\n        /* \"src/MockToken_flattened.sol\":72722:72727  _mint */\n      tag_73\n        /* \"src/MockToken_flattened.sol\":72722:72752  _mint(_to, _id, _amount, \"0x\") */\n      jump\t// in\n    tag_72:\n        /* \"src/MockToken_flattened.sol\":72652:72759  function mint(address _to, uint _id, uint _amount) external {... */\n      pop\n      pop\n      pop\n      jump\t// out\n        /* \"src/MockToken_flattened.sol\":59501:59930  function safeBatchTransferFrom(... */\n    tag_38:\n        /* \"src/MockToken_flattened.sol\":34750:34760  msg.sender */\n      caller\n      sub(shl(0xa0, 0x01), 0x01)\n        /* \"src/MockToken_flattened.sol\":59738:59752  from != sender */\n      dup7\n      and\n      dup2\n      eq\n      dup1\n      iszero\n      swap1\n        /* \"src/MockToken_flattened.sol\":59738:59787  from != sender && !isApprovedForAll(from, sender) */\n      tag_77\n      jumpi\n      pop\n        /* \"src/MockToken_flattened.sol\":59757:59787  isApprovedForAll(from, sender) */\n      tag_78\n        /* \"src/MockToken_flattened.sol\":59774:59778  from */\n      dup7\n        /* \"src/MockToken_flattened.sol\":59780:59786  sender */\n      dup3\n        /* \"src/MockToken_flattened.sol\":59757:59773  isApprovedForAll */\n      tag_52\n        /* \"src/MockToken_flattened.sol\":59757:59787  isApprovedForAll(from, sender) */\n      jump\t// in\n    tag_78:\n        /* \"src/MockToken_flattened.sol\":59756:59787  !isApprovedForAll(from, sender) */\n      iszero\n        /* \"src/MockToken_flattened.sol\":59738:59787  from != sender && !isApprovedForAll(from, sender) */\n    tag_77:\n        /* \"src/MockToken_flattened.sol\":59734:59863  if (from != sender && !isApprovedForAll(from, sender)) {... */\n      iszero\n      tag_79\n      jumpi\n        /* \"src/MockToken_flattened.sol\":59810:59852  ERC1155MissingApprovalForAll(sender, from) */\n      mload(0x40)\n      shl(0xe1, 0x711bec91)\n      dup2\n      mstore\n      sub(shl(0xa0, 0x01), 0x01)\n        /* \"#utility.yul\":8836:8851   */\n      dup1\n      dup4\n      and\n        /* \"src/MockToken_flattened.sol\":59810:59852  ERC1155MissingApprovalForAll(sender, from) */\n      0x04\n      dup4\n      add\n        /* \"#utility.yul\":8818:8852   */\n      mstore\n        /* \"#utility.yul\":8888:8903   */\n      dup8\n      and\n        /* \"#utility.yul\":8868:8886   */\n      0x24\n      dup3\n      add\n        /* \"#utility.yul\":8861:8904   */\n      mstore\n        /* \"#utility.yul\":8753:8771   */\n      0x44\n      add\n        /* \"src/MockToken_flattened.sol\":59810:59852  ERC1155MissingApprovalForAll(sender, from) */\n    tag_80:\n      mload(0x40)\n      dup1\n      swap2\n      sub\n      swap1\n      revert\n        /* \"src/MockToken_flattened.sol\":59734:59863  if (from != sender && !isApprovedForAll(from, sender)) {... */\n    tag_79:\n        /* \"src/MockToken_flattened.sol\":59872:59923  _safeBatchTransferFrom(from, to, ids, values, data) */\n      tag_82\n        /* \"src/MockToken_flattened.sol\":59895:59899  from */\n      dup7\n        /* \"src/MockToken_flattened.sol\":59901:59903  to */\n      dup7\n        /* \"src/MockToken_flattened.sol\":59905:59908  ids */\n      dup7\n        /* \"src/MockToken_flattened.sol\":59910:59916  values */\n      dup7\n        /* \"src/MockToken_flattened.sol\":59918:59922  data */\n      dup7\n        /* \"src/MockToken_flattened.sol\":59872:59894  _safeBatchTransferFrom */\n      tag_83\n        /* \"src/MockToken_flattened.sol\":59872:59923  _safeBatchTransferFrom(from, to, ids, values, data) */\n      jump\t// in\n    tag_82:\n        /* \"src/MockToken_flattened.sol\":59685:59930  {... */\n      pop\n        /* \"src/MockToken_flattened.sol\":59501:59930  function safeBatchTransferFrom(... */\n      pop\n      pop\n      pop\n      pop\n      pop\n      jump\t// out\n        /* \"src/MockToken_flattened.sol\":58023:58575  function balanceOfBatch(... */\n    tag_42:\n        /* \"src/MockToken_flattened.sol\":58147:58163  uint256[] memory */\n      0x60\n        /* \"src/MockToken_flattened.sol\":58198:58201  ids */\n      dup2\n        /* \"src/MockToken_flattened.sol\":58198:58208  ids.length */\n      mload\n        /* \"src/MockToken_flattened.sol\":58179:58187  accounts */\n      dup4\n        /* \"src/MockToken_flattened.sol\":58179:58194  accounts.length */\n      mload\n        /* \"src/MockToken_flattened.sol\":58179:58208  accounts.length != ids.length */\n      eq\n        /* \"src/MockToken_flattened.sol\":58175:58296  if (accounts.length != ids.length) {... */\n      tag_85\n      jumpi\n        /* \"src/MockToken_flattened.sol\":58257:58267  ids.length */\n      dup2\n      mload\n        /* \"src/MockToken_flattened.sol\":58269:58284  accounts.length */\n      dup4\n      mload\n        /* \"src/MockToken_flattened.sol\":58231:58285  ERC1155InvalidArrayLength(ids.length, accounts.length) */\n      mload(0x40)\n      shl(0xe0, 0x5b059991)\n      dup2\n      mstore\n      0x04\n      dup2\n      add\n        /* \"#utility.yul\":9089:9114   */\n      swap3\n      swap1\n      swap3\n      mstore\n        /* \"#utility.yul\":9130:9148   */\n      0x24\n      dup3\n      add\n        /* \"#utility.yul\":9123:9157   */\n      mstore\n        /* \"#utility.yul\":9062:9080   */\n      0x44\n      add\n        /* \"src/MockToken_flattened.sol\":58231:58285  ERC1155InvalidArrayLength(ids.length, accounts.length) */\n      tag_80\n        /* \"#utility.yul\":8915:9163   */\n      jump\n        /* \"src/MockToken_flattened.sol\":58175:58296  if (accounts.length != ids.length) {... */\n    tag_85:\n        /* \"src/MockToken_flattened.sol\":58306:58336  uint256[] memory batchBalances */\n      0x00\n        /* \"src/MockToken_flattened.sol\":58353:58361  accounts */\n      dup4\n        /* \"src/MockToken_flattened.sol\":58353:58368  accounts.length */\n      mload\n        /* \"src/MockToken_flattened.sol\":58339:58369  new uint256[](accounts.length) */\n      0xffffffffffffffff\n      dup2\n      gt\n      iszero\n      tag_89\n      jumpi\n      tag_89\n      tag_90\n      jump\t// in\n    tag_89:\n      mload(0x40)\n      swap1\n      dup1\n      dup3\n      mstore\n      dup1\n      0x20\n      mul\n      0x20\n      add\n      dup3\n      add\n      0x40\n      mstore\n      dup1\n      iszero\n      tag_91\n      jumpi\n      dup2\n      0x20\n      add\n      0x20\n      dup3\n      mul\n      dup1\n      calldatasize\n      dup4\n      calldatacopy\n      add\n      swap1\n      pop\n    tag_91:\n      pop\n        /* \"src/MockToken_flattened.sol\":58306:58369  uint256[] memory batchBalances = new uint256[](accounts.length) */\n      swap1\n      pop\n        /* \"src/MockToken_flattened.sol\":58385:58394  uint256 i */\n      0x00\n        /* \"src/MockToken_flattened.sol\":58380:58538  for (uint256 i = 0; i < accounts.length; ++i) {... */\n    tag_92:\n        /* \"src/MockToken_flattened.sol\":58404:58412  accounts */\n      dup5\n        /* \"src/MockToken_flattened.sol\":58404:58419  accounts.length */\n      mload\n        /* \"src/MockToken_flattened.sol\":58400:58401  i */\n      dup2\n        /* \"src/MockToken_flattened.sol\":58400:58419  i < accounts.length */\n      lt\n        /* \"src/MockToken_flattened.sol\":58380:58538  for (uint256 i = 0; i < accounts.length; ++i) {... */\n      iszero\n      tag_93\n      jumpi\n        /* \"src/MockToken_flattened.sol\":33954:33958  0x20 */\n      0x20\n        /* \"src/MockToken_flattened.sol\":33945:33959  mul(pos, 0x20) */\n      dup1\n      dup3\n      mul\n        /* \"src/MockToken_flattened.sol\":33925:33960  add(add(arr, 0x20), mul(pos, 0x20)) */\n      dup7\n      add\n      add\n        /* \"src/MockToken_flattened.sol\":33919:33961  mload(add(add(arr, 0x20), mul(pos, 0x20))) */\n      mload\n        /* \"src/MockToken_flattened.sol\":58459:58527  balanceOf(accounts.unsafeMemoryAccess(i), ids.unsafeMemoryAccess(i)) */\n      tag_95\n      swap1\n        /* \"src/MockToken_flattened.sol\":33954:33958  0x20 */\n      0x20\n        /* \"src/MockToken_flattened.sol\":33945:33959  mul(pos, 0x20) */\n      dup1\n      dup5\n      mul\n        /* \"src/MockToken_flattened.sol\":33925:33960  add(add(arr, 0x20), mul(pos, 0x20)) */\n      dup8\n      add\n      add\n        /* \"src/MockToken_flattened.sol\":33919:33961  mload(add(add(arr, 0x20), mul(pos, 0x20))) */\n      mload\n        /* \"src/MockToken_flattened.sol\":57734:57866  function balanceOf(address account, uint256 id) public view virtual returns (uint256) {... */\n      tag_16\n      jump\t// in\n        /* \"src/MockToken_flattened.sol\":58459:58527  balanceOf(accounts.unsafeMemoryAccess(i), ids.unsafeMemoryAccess(i)) */\n    tag_95:\n        /* \"src/MockToken_flattened.sol\":58440:58453  batchBalances */\n      dup3\n        /* \"src/MockToken_flattened.sol\":58454:58455  i */\n      dup3\n        /* \"src/MockToken_flattened.sol\":58440:58456  batchBalances[i] */\n      dup2\n      mload\n      dup2\n      lt\n      tag_101\n      jumpi\n      tag_101\n      tag_102\n      jump\t// in\n    tag_101:\n      0x20\n      swap1\n      dup2\n      mul\n      swap2\n      swap1\n      swap2\n      add\n      add\n        /* \"src/MockToken_flattened.sol\":58440:58527  batchBalances[i] = balanceOf(accounts.unsafeMemoryAccess(i), ids.unsafeMemoryAccess(i)) */\n      mstore\n        /* \"src/MockToken_flattened.sol\":58421:58424  ++i */\n      0x01\n      add\n        /* \"src/MockToken_flattened.sol\":58380:58538  for (uint256 i = 0; i < accounts.length; ++i) {... */\n      jump(tag_92)\n    tag_93:\n      pop\n        /* \"src/MockToken_flattened.sol\":58555:58568  batchBalances */\n      swap4\n        /* \"src/MockToken_flattened.sol\":58023:58575  function balanceOfBatch(... */\n      swap3\n      pop\n      pop\n      pop\n      jump\t// out\n        /* \"src/MockToken_flattened.sol\":58643:58787  function setApprovalForAll(address operator, bool approved) public virtual {... */\n    tag_48:\n        /* \"src/MockToken_flattened.sol\":58728:58780  _setApprovalForAll(_msgSender(), operator, approved) */\n      tag_104\n        /* \"src/MockToken_flattened.sol\":34750:34760  msg.sender */\n      caller\n        /* \"src/MockToken_flattened.sol\":58761:58769  operator */\n      dup4\n        /* \"src/MockToken_flattened.sol\":58771:58779  approved */\n      dup4\n        /* \"src/MockToken_flattened.sol\":58728:58746  _setApprovalForAll */\n      tag_106\n        /* \"src/MockToken_flattened.sol\":58728:58780  _setApprovalForAll(_msgSender(), operator, approved) */\n      jump\t// in\n    tag_104:\n        /* \"src/MockToken_flattened.sol\":58643:58787  function setApprovalForAll(address operator, bool approved) public virtual {... */\n      pop\n      pop\n      jump\t// out\n        /* \"src/MockToken_flattened.sol\":58854:59011  function isApprovedForAll(address account, address operator) public view virtual returns (bool) {... */\n    tag_52:\n      sub(shl(0xa0, 0x01), 0x01)\n        /* \"src/MockToken_flattened.sol\":58967:58994  _operatorApprovals[account] */\n      swap2\n      dup3\n      and\n        /* \"src/MockToken_flattened.sol\":58944:58948  bool */\n      0x00\n        /* \"src/MockToken_flattened.sol\":58967:58994  _operatorApprovals[account] */\n      swap1\n      dup2\n      mstore\n        /* \"src/MockToken_flattened.sol\":58967:58985  _operatorApprovals */\n      0x01\n        /* \"src/MockToken_flattened.sol\":58967:58994  _operatorApprovals[account] */\n      0x20\n      swap1\n      dup2\n      mstore\n      0x40\n      dup1\n      dup4\n      keccak256\n        /* \"src/MockToken_flattened.sol\":58967:59004  _operatorApprovals[account][operator] */\n      swap4\n      swap1\n      swap5\n      and\n      dup3\n      mstore\n      swap2\n      swap1\n      swap2\n      mstore\n      keccak256\n      sload\n      0xff\n      and\n      swap1\n        /* \"src/MockToken_flattened.sol\":58854:59011  function isApprovedForAll(address account, address operator) public view virtual returns (bool) {... */\n      jump\t// out\n        /* \"src/MockToken_flattened.sol\":59078:59429  function safeTransferFrom(address from, address to, uint256 id, uint256 value, bytes memory data) public virtual {... */\n    tag_57:\n        /* \"src/MockToken_flattened.sol\":34750:34760  msg.sender */\n      caller\n      sub(shl(0xa0, 0x01), 0x01)\n        /* \"src/MockToken_flattened.sol\":59244:59258  from != sender */\n      dup7\n      and\n      dup2\n      eq\n      dup1\n      iszero\n      swap1\n        /* \"src/MockToken_flattened.sol\":59244:59293  from != sender && !isApprovedForAll(from, sender) */\n      tag_110\n      jumpi\n      pop\n        /* \"src/MockToken_flattened.sol\":59263:59293  isApprovedForAll(from, sender) */\n      tag_111\n        /* \"src/MockToken_flattened.sol\":59280:59284  from */\n      dup7\n        /* \"src/MockToken_flattened.sol\":59286:59292  sender */\n      dup3\n        /* \"src/MockToken_flattened.sol\":59263:59279  isApprovedForAll */\n      tag_52\n        /* \"src/MockToken_flattened.sol\":59263:59293  isApprovedForAll(from, sender) */\n      jump\t// in\n    tag_111:\n        /* \"src/MockToken_flattened.sol\":59262:59293  !isApprovedForAll(from, sender) */\n      iszero\n        /* \"src/MockToken_flattened.sol\":59244:59293  from != sender && !isApprovedForAll(from, sender) */\n    tag_110:\n        /* \"src/MockToken_flattened.sol\":59240:59369  if (from != sender && !isApprovedForAll(from, sender)) {... */\n      iszero\n      tag_112\n      jumpi\n        /* \"src/MockToken_flattened.sol\":59316:59358  ERC1155MissingApprovalForAll(sender, from) */\n      mload(0x40)\n      shl(0xe1, 0x711bec91)\n      dup2\n      mstore\n      sub(shl(0xa0, 0x01), 0x01)\n        /* \"#utility.yul\":8836:8851   */\n      dup1\n      dup4\n      and\n        /* \"src/MockToken_flattened.sol\":59316:59358  ERC1155MissingApprovalForAll(sender, from) */\n      0x04\n      dup4\n      add\n        /* \"#utility.yul\":8818:8852   */\n      mstore\n        /* \"#utility.yul\":8888:8903   */\n      dup8\n      and\n        /* \"#utility.yul\":8868:8886   */\n      0x24\n      dup3\n      add\n        /* \"#utility.yul\":8861:8904   */\n      mstore\n        /* \"#utility.yul\":8753:8771   */\n      0x44\n      add\n        /* \"src/MockToken_flattened.sol\":59316:59358  ERC1155MissingApprovalForAll(sender, from) */\n      tag_80\n        /* \"#utility.yul\":8606:8910   */\n      jump\n        /* \"src/MockToken_flattened.sol\":59240:59369  if (from != sender && !isApprovedForAll(from, sender)) {... */\n    tag_112:\n        /* \"src/MockToken_flattened.sol\":59378:59422  _safeTransferFrom(from, to, id, value, data) */\n      tag_82\n        /* \"src/MockToken_flattened.sol\":59396:59400  from */\n      dup7\n        /* \"src/MockToken_flattened.sol\":59402:59404  to */\n      dup7\n        /* \"src/MockToken_flattened.sol\":59406:59408  id */\n      dup7\n        /* \"src/MockToken_flattened.sol\":59410:59415  value */\n      dup7\n        /* \"src/MockToken_flattened.sol\":59417:59421  data */\n      dup7\n        /* \"src/MockToken_flattened.sol\":59378:59395  _safeTransferFrom */\n      tag_115\n        /* \"src/MockToken_flattened.sol\":59378:59422  _safeTransferFrom(from, to, id, value, data) */\n      jump\t// in\n        /* \"src/MockToken_flattened.sol\":66233:66579  function _mint(address to, uint256 id, uint256 value, bytes memory data) internal {... */\n    tag_73:\n      sub(shl(0xa0, 0x01), 0x01)\n        /* \"src/MockToken_flattened.sol\":66329:66345  to == address(0) */\n      dup5\n      and\n        /* \"src/MockToken_flattened.sol\":66325:66413  if (to == address(0)) {... */\n      tag_118\n      jumpi\n        /* \"src/MockToken_flattened.sol\":66368:66402  ERC1155InvalidReceiver(address(0)) */\n      mload(0x40)\n      shl(0xe1, 0x2bfa23e7)\n      dup2\n      mstore\n        /* \"src/MockToken_flattened.sol\":66399:66400  0 */\n      0x00\n        /* \"src/MockToken_flattened.sol\":66368:66402  ERC1155InvalidReceiver(address(0)) */\n      0x04\n      dup3\n      add\n        /* \"#utility.yul\":9446:9497   */\n      mstore\n        /* \"#utility.yul\":9419:9437   */\n      0x24\n      add\n        /* \"src/MockToken_flattened.sol\":66368:66402  ERC1155InvalidReceiver(address(0)) */\n      tag_80\n        /* \"#utility.yul\":9300:9503   */\n      jump\n        /* \"src/MockToken_flattened.sol\":66325:66413  if (to == address(0)) {... */\n    tag_118:\n        /* \"src/MockToken_flattened.sol\":71861:71865  0x40 */\n      0x40\n        /* \"src/MockToken_flattened.sol\":71855:71866  mload(0x40) */\n      dup1\n      mload\n        /* \"src/MockToken_flattened.sol\":71931:71932  1 */\n      0x01\n        /* \"src/MockToken_flattened.sol\":71916:71933  mstore(array1, 1) */\n      dup1\n      dup3\n      mstore\n        /* \"src/MockToken_flattened.sol\":72062:72066  0x20 */\n      0x20\n        /* \"src/MockToken_flattened.sol\":72050:72067  add(array1, 0x20) */\n      dup3\n      add\n        /* \"src/MockToken_flattened.sol\":72043:72078  mstore(add(array1, 0x20), element1) */\n      dup7\n      swap1\n      mstore\n        /* \"src/MockToken_flattened.sol\":72179:72196  add(array1, 0x40) */\n      dup2\n      dup4\n      add\n        /* \"src/MockToken_flattened.sol\":72209:72226  mstore(array2, 1) */\n      swap1\n      dup2\n      mstore\n        /* \"src/MockToken_flattened.sol\":71675:71698  uint256[] memory array1 */\n      0x60\n        /* \"src/MockToken_flattened.sol\":72246:72263  add(array2, 0x20) */\n      dup3\n      add\n        /* \"src/MockToken_flattened.sol\":72239:72274  mstore(add(array2, 0x20), element2) */\n      dup6\n      swap1\n      mstore\n        /* \"src/MockToken_flattened.sol\":72382:72399  add(array2, 0x40) */\n      0x80\n      dup3\n      add\n        /* \"src/MockToken_flattened.sol\":72369:72400  mstore(0x40, add(array2, 0x40)) */\n      swap1\n      swap3\n      mstore\n        /* \"src/MockToken_flattened.sol\":71855:71866  mload(0x40) */\n      swap1\n        /* \"src/MockToken_flattened.sol\":66511:66572  _updateWithAcceptanceCheck(address(0), to, ids, values, data) */\n      tag_82\n      0x00\n        /* \"src/MockToken_flattened.sol\":66550:66552  to */\n      dup8\n        /* \"src/MockToken_flattened.sol\":71855:71866  mload(0x40) */\n      dup5\n        /* \"src/MockToken_flattened.sol\":72179:72196  add(array1, 0x40) */\n      dup5\n        /* \"src/MockToken_flattened.sol\":66567:66571  data */\n      dup8\n        /* \"src/MockToken_flattened.sol\":66511:66537  _updateWithAcceptanceCheck */\n      tag_124\n        /* \"src/MockToken_flattened.sol\":66511:66572  _updateWithAcceptanceCheck(address(0), to, ids, values, data) */\n      jump\t// in\n        /* \"src/MockToken_flattened.sol\":64502:64947  function _safeBatchTransferFrom(... */\n    tag_83:\n      sub(shl(0xa0, 0x01), 0x01)\n        /* \"src/MockToken_flattened.sol\":64695:64711  to == address(0) */\n      dup5\n      and\n        /* \"src/MockToken_flattened.sol\":64691:64779  if (to == address(0)) {... */\n      tag_127\n      jumpi\n        /* \"src/MockToken_flattened.sol\":64734:64768  ERC1155InvalidReceiver(address(0)) */\n      mload(0x40)\n      shl(0xe1, 0x2bfa23e7)\n      dup2\n      mstore\n        /* \"src/MockToken_flattened.sol\":64765:64766  0 */\n      0x00\n        /* \"src/MockToken_flattened.sol\":64734:64768  ERC1155InvalidReceiver(address(0)) */\n      0x04\n      dup3\n      add\n        /* \"#utility.yul\":9446:9497   */\n      mstore\n        /* \"#utility.yul\":9419:9437   */\n      0x24\n      add\n        /* \"src/MockToken_flattened.sol\":64734:64768  ERC1155InvalidReceiver(address(0)) */\n      tag_80\n        /* \"#utility.yul\":9300:9503   */\n      jump\n        /* \"src/MockToken_flattened.sol\":64691:64779  if (to == address(0)) {... */\n    tag_127:\n      sub(shl(0xa0, 0x01), 0x01)\n        /* \"src/MockToken_flattened.sol\":64792:64810  from == address(0) */\n      dup6\n      and\n        /* \"src/MockToken_flattened.sol\":64788:64876  if (from == address(0)) {... */\n      tag_129\n      jumpi\n        /* \"src/MockToken_flattened.sol\":64833:64865  ERC1155InvalidSender(address(0)) */\n      mload(0x40)\n      shl(0xe2, 0x6a0d45)\n      dup2\n      mstore\n        /* \"src/MockToken_flattened.sol\":64862:64863  0 */\n      0x00\n        /* \"src/MockToken_flattened.sol\":64833:64865  ERC1155InvalidSender(address(0)) */\n      0x04\n      dup3\n      add\n        /* \"#utility.yul\":9446:9497   */\n      mstore\n        /* \"#utility.yul\":9419:9437   */\n      0x24\n      add\n        /* \"src/MockToken_flattened.sol\":64833:64865  ERC1155InvalidSender(address(0)) */\n      tag_80\n        /* \"#utility.yul\":9300:9503   */\n      jump\n        /* \"src/MockToken_flattened.sol\":64788:64876  if (from == address(0)) {... */\n    tag_129:\n        /* \"src/MockToken_flattened.sol\":64885:64940  _updateWithAcceptanceCheck(from, to, ids, values, data) */\n      tag_131\n        /* \"src/MockToken_flattened.sol\":64912:64916  from */\n      dup6\n        /* \"src/MockToken_flattened.sol\":64918:64920  to */\n      dup6\n        /* \"src/MockToken_flattened.sol\":64922:64925  ids */\n      dup6\n        /* \"src/MockToken_flattened.sol\":64927:64933  values */\n      dup6\n        /* \"src/MockToken_flattened.sol\":64935:64939  data */\n      dup6\n        /* \"src/MockToken_flattened.sol\":64885:64911  _updateWithAcceptanceCheck */\n      tag_124\n        /* \"src/MockToken_flattened.sol\":64885:64940  _updateWithAcceptanceCheck(from, to, ids, values, data) */\n      jump\t// in\n    tag_131:\n        /* \"src/MockToken_flattened.sol\":64502:64947  function _safeBatchTransferFrom(... */\n      pop\n      pop\n      pop\n      pop\n      pop\n      jump\t// out\n        /* \"src/MockToken_flattened.sol\":68755:69070  function _setApprovalForAll(address owner, address operator, bool approved) internal virtual {... */\n    tag_106:\n      sub(shl(0xa0, 0x01), 0x01)\n        /* \"src/MockToken_flattened.sol\":68862:68884  operator == address(0) */\n      dup3\n      and\n        /* \"src/MockToken_flattened.sol\":68858:68952  if (operator == address(0)) {... */\n      tag_135\n      jumpi\n        /* \"src/MockToken_flattened.sol\":68907:68941  ERC1155InvalidOperator(address(0)) */\n      mload(0x40)\n      shl(0xe8, 0xced3e1)\n      dup2\n      mstore\n        /* \"src/MockToken_flattened.sol\":68938:68939  0 */\n      0x00\n        /* \"src/MockToken_flattened.sol\":68907:68941  ERC1155InvalidOperator(address(0)) */\n      0x04\n      dup3\n      add\n        /* \"#utility.yul\":9446:9497   */\n      mstore\n        /* \"#utility.yul\":9419:9437   */\n      0x24\n      add\n        /* \"src/MockToken_flattened.sol\":68907:68941  ERC1155InvalidOperator(address(0)) */\n      tag_80\n        /* \"#utility.yul\":9300:9503   */\n      jump\n        /* \"src/MockToken_flattened.sol\":68858:68952  if (operator == address(0)) {... */\n    tag_135:\n      sub(shl(0xa0, 0x01), 0x01)\n        /* \"src/MockToken_flattened.sol\":68961:68986  _operatorApprovals[owner] */\n      dup4\n      dup2\n      and\n      0x00\n      dup2\n      dup2\n      mstore\n        /* \"src/MockToken_flattened.sol\":68961:68979  _operatorApprovals */\n      0x01\n        /* \"src/MockToken_flattened.sol\":68961:68986  _operatorApprovals[owner] */\n      0x20\n      swap1\n      dup2\n      mstore\n      0x40\n      dup1\n      dup4\n      keccak256\n        /* \"src/MockToken_flattened.sol\":68961:68996  _operatorApprovals[owner][operator] */\n      swap5\n      dup8\n      and\n      dup1\n      dup5\n      mstore\n      swap5\n      dup3\n      mstore\n      swap2\n      dup3\n      swap1\n      keccak256\n        /* \"src/MockToken_flattened.sol\":68961:69007  _operatorApprovals[owner][operator] = approved */\n      dup1\n      sload\n      not(0xff)\n      and\n      dup7\n      iszero\n      iszero\n      swap1\n      dup2\n      or\n      swap1\n      swap2\n      sstore\n        /* \"src/MockToken_flattened.sol\":69022:69063  ApprovalForAll(owner, operator, approved) */\n      swap2\n      mload\n        /* \"#utility.yul\":1159:1200   */\n      swap2\n      dup3\n      mstore\n        /* \"src/MockToken_flattened.sol\":69022:69063  ApprovalForAll(owner, operator, approved) */\n      0x17307eab39ab6107e8899845ad3d59bd9653f200f220920489ca2b5937696c31\n      swap2\n        /* \"#utility.yul\":1132:1150   */\n      add\n        /* \"src/MockToken_flattened.sol\":69022:69063  ApprovalForAll(owner, operator, approved) */\n      mload(0x40)\n      dup1\n      swap2\n      sub\n      swap1\n      log3\n        /* \"src/MockToken_flattened.sol\":68755:69070  function _setApprovalForAll(address owner, address operator, bool approved) internal virtual {... */\n      pop\n      pop\n      pop\n      jump\t// out\n        /* \"src/MockToken_flattened.sol\":63638:64101  function _safeTransferFrom(address from, address to, uint256 id, uint256 value, bytes memory data) internal {... */\n    tag_115:\n      sub(shl(0xa0, 0x01), 0x01)\n        /* \"src/MockToken_flattened.sol\":63760:63776  to == address(0) */\n      dup5\n      and\n        /* \"src/MockToken_flattened.sol\":63756:63844  if (to == address(0)) {... */\n      tag_139\n      jumpi\n        /* \"src/MockToken_flattened.sol\":63799:63833  ERC1155InvalidReceiver(address(0)) */\n      mload(0x40)\n      shl(0xe1, 0x2bfa23e7)\n      dup2\n      mstore\n        /* \"src/MockToken_flattened.sol\":63830:63831  0 */\n      0x00\n        /* \"src/MockToken_flattened.sol\":63799:63833  ERC1155InvalidReceiver(address(0)) */\n      0x04\n      dup3\n      add\n        /* \"#utility.yul\":9446:9497   */\n      mstore\n        /* \"#utility.yul\":9419:9437   */\n      0x24\n      add\n        /* \"src/MockToken_flattened.sol\":63799:63833  ERC1155InvalidReceiver(address(0)) */\n      tag_80\n        /* \"#utility.yul\":9300:9503   */\n      jump\n        /* \"src/MockToken_flattened.sol\":63756:63844  if (to == address(0)) {... */\n    tag_139:\n      sub(shl(0xa0, 0x01), 0x01)\n        /* \"src/MockToken_flattened.sol\":63857:63875  from == address(0) */\n      dup6\n      and\n        /* \"src/MockToken_flattened.sol\":63853:63941  if (from == address(0)) {... */\n      tag_141\n      jumpi\n        /* \"src/MockToken_flattened.sol\":63898:63930  ERC1155InvalidSender(address(0)) */\n      mload(0x40)\n      shl(0xe2, 0x6a0d45)\n      dup2\n      mstore\n        /* \"src/MockToken_flattened.sol\":63927:63928  0 */\n      0x00\n        /* \"src/MockToken_flattened.sol\":63898:63930  ERC1155InvalidSender(address(0)) */\n      0x04\n      dup3\n      add\n        /* \"#utility.yul\":9446:9497   */\n      mstore\n        /* \"#utility.yul\":9419:9437   */\n      0x24\n      add\n        /* \"src/MockToken_flattened.sol\":63898:63930  ERC1155InvalidSender(address(0)) */\n      tag_80\n        /* \"#utility.yul\":9300:9503   */\n      jump\n        /* \"src/MockToken_flattened.sol\":63853:63941  if (from == address(0)) {... */\n    tag_141:\n        /* \"src/MockToken_flattened.sol\":71861:71865  0x40 */\n      0x40\n        /* \"src/MockToken_flattened.sol\":71855:71866  mload(0x40) */\n      dup1\n      mload\n        /* \"src/MockToken_flattened.sol\":71931:71932  1 */\n      0x01\n        /* \"src/MockToken_flattened.sol\":71916:71933  mstore(array1, 1) */\n      dup1\n      dup3\n      mstore\n        /* \"src/MockToken_flattened.sol\":72062:72066  0x20 */\n      0x20\n        /* \"src/MockToken_flattened.sol\":72050:72067  add(array1, 0x20) */\n      dup3\n      add\n        /* \"src/MockToken_flattened.sol\":72043:72078  mstore(add(array1, 0x20), element1) */\n      dup7\n      swap1\n      mstore\n        /* \"src/MockToken_flattened.sol\":72179:72196  add(array1, 0x40) */\n      dup2\n      dup4\n      add\n        /* \"src/MockToken_flattened.sol\":72209:72226  mstore(array2, 1) */\n      swap1\n      dup2\n      mstore\n        /* \"src/MockToken_flattened.sol\":71675:71698  uint256[] memory array1 */\n      0x60\n        /* \"src/MockToken_flattened.sol\":72246:72263  add(array2, 0x20) */\n      dup3\n      add\n        /* \"src/MockToken_flattened.sol\":72239:72274  mstore(add(array2, 0x20), element2) */\n      dup6\n      swap1\n      mstore\n        /* \"src/MockToken_flattened.sol\":72382:72399  add(array2, 0x40) */\n      0x80\n      dup3\n      add\n        /* \"src/MockToken_flattened.sol\":72369:72400  mstore(0x40, add(array2, 0x40)) */\n      swap1\n      swap3\n      mstore\n        /* \"src/MockToken_flattened.sol\":71855:71866  mload(0x40) */\n      swap1\n        /* \"src/MockToken_flattened.sol\":64039:64094  _updateWithAcceptanceCheck(from, to, ids, values, data) */\n      tag_144\n        /* \"src/MockToken_flattened.sol\":64066:64070  from */\n      dup8\n        /* \"src/MockToken_flattened.sol\":64072:64074  to */\n      dup8\n        /* \"src/MockToken_flattened.sol\":71855:71866  mload(0x40) */\n      dup5\n        /* \"src/MockToken_flattened.sol\":72179:72196  add(array1, 0x40) */\n      dup5\n        /* \"src/MockToken_flattened.sol\":64089:64093  data */\n      dup8\n        /* \"src/MockToken_flattened.sol\":64039:64065  _updateWithAcceptanceCheck */\n      tag_124\n        /* \"src/MockToken_flattened.sol\":64039:64094  _updateWithAcceptanceCheck(from, to, ids, values, data) */\n      jump\t// in\n    tag_144:\n        /* \"src/MockToken_flattened.sol\":63746:64101  {... */\n      pop\n      pop\n        /* \"src/MockToken_flattened.sol\":63638:64101  function _safeTransferFrom(address from, address to, uint256 id, uint256 value, bytes memory data) internal {... */\n      pop\n      pop\n      pop\n      pop\n      pop\n      jump\t// out\n        /* \"src/MockToken_flattened.sol\":62491:63181  function _updateWithAcceptanceCheck(... */\n    tag_124:\n        /* \"src/MockToken_flattened.sol\":62692:62722  _update(from, to, ids, values) */\n      tag_147\n        /* \"src/MockToken_flattened.sol\":62700:62704  from */\n      dup6\n        /* \"src/MockToken_flattened.sol\":62706:62708  to */\n      dup6\n        /* \"src/MockToken_flattened.sol\":62710:62713  ids */\n      dup6\n        /* \"src/MockToken_flattened.sol\":62715:62721  values */\n      dup6\n        /* \"src/MockToken_flattened.sol\":62692:62699  _update */\n      tag_148\n        /* \"src/MockToken_flattened.sol\":62692:62722  _update(from, to, ids, values) */\n      jump\t// in\n    tag_147:\n      sub(shl(0xa0, 0x01), 0x01)\n        /* \"src/MockToken_flattened.sol\":62736:62752  to != address(0) */\n      dup5\n      and\n      iszero\n        /* \"src/MockToken_flattened.sol\":62732:63175  if (to != address(0)) {... */\n      tag_131\n      jumpi\n        /* \"src/MockToken_flattened.sol\":62817:62827  ids.length */\n      dup3\n      mload\n        /* \"src/MockToken_flattened.sol\":34750:34760  msg.sender */\n      caller\n      swap1\n        /* \"src/MockToken_flattened.sol\":62831:62832  1 */\n      0x01\n        /* \"src/MockToken_flattened.sol\":62817:62832  ids.length == 1 */\n      sub\n        /* \"src/MockToken_flattened.sol\":62813:63165  if (ids.length == 1) {... */\n      tag_151\n      jumpi\n        /* \"src/MockToken_flattened.sol\":33954:33958  0x20 */\n      0x20\n        /* \"src/MockToken_flattened.sol\":33925:33960  add(add(arr, 0x20), mul(pos, 0x20)) */\n      dup5\n      dup2\n      add\n        /* \"src/MockToken_flattened.sol\":33919:33961  mload(add(add(arr, 0x20), mul(pos, 0x20))) */\n      mload\n        /* \"src/MockToken_flattened.sol\":33925:33960  add(add(arr, 0x20), mul(pos, 0x20)) */\n      swap1\n      dup5\n      add\n        /* \"src/MockToken_flattened.sol\":33919:33961  mload(add(add(arr, 0x20), mul(pos, 0x20))) */\n      mload\n        /* \"src/MockToken_flattened.sol\":62970:63037  _doSafeTransferAcceptanceCheck(operator, from, to, id, value, data) */\n      tag_154\n        /* \"src/MockToken_flattened.sol\":63001:63009  operator */\n      dup4\n        /* \"src/MockToken_flattened.sol\":63011:63015  from */\n      dup10\n        /* \"src/MockToken_flattened.sol\":63017:63019  to */\n      dup10\n        /* \"src/MockToken_flattened.sol\":33919:33961  mload(add(add(arr, 0x20), mul(pos, 0x20))) */\n      dup6\n      dup6\n        /* \"src/MockToken_flattened.sol\":63032:63036  data */\n      dup10\n        /* \"src/MockToken_flattened.sol\":62970:63000  _doSafeTransferAcceptanceCheck */\n      tag_155\n        /* \"src/MockToken_flattened.sol\":62970:63037  _doSafeTransferAcceptanceCheck(operator, from, to, id, value, data) */\n      jump\t// in\n    tag_154:\n        /* \"src/MockToken_flattened.sol\":62834:63052  {... */\n      pop\n      pop\n        /* \"src/MockToken_flattened.sol\":62813:63165  if (ids.length == 1) {... */\n      jump(tag_82)\n    tag_151:\n        /* \"src/MockToken_flattened.sol\":63076:63150  _doSafeBatchTransferAcceptanceCheck(operator, from, to, ids, values, data) */\n      tag_82\n        /* \"src/MockToken_flattened.sol\":63112:63120  operator */\n      dup2\n        /* \"src/MockToken_flattened.sol\":63122:63126  from */\n      dup8\n        /* \"src/MockToken_flattened.sol\":63128:63130  to */\n      dup8\n        /* \"src/MockToken_flattened.sol\":63132:63135  ids */\n      dup8\n        /* \"src/MockToken_flattened.sol\":63137:63143  values */\n      dup8\n        /* \"src/MockToken_flattened.sol\":63145:63149  data */\n      dup8\n        /* \"src/MockToken_flattened.sol\":63076:63111  _doSafeBatchTransferAcceptanceCheck */\n      tag_158\n        /* \"src/MockToken_flattened.sol\":63076:63150  _doSafeBatchTransferAcceptanceCheck(operator, from, to, ids, values, data) */\n      jump\t// in\n        /* \"src/MockToken_flattened.sol\":60631:61912  function _update(address from, address to, uint256[] memory ids, uint256[] memory values) internal virtual {... */\n    tag_148:\n        /* \"src/MockToken_flattened.sol\":60766:60772  values */\n      dup1\n        /* \"src/MockToken_flattened.sol\":60766:60779  values.length */\n      mload\n        /* \"src/MockToken_flattened.sol\":60752:60755  ids */\n      dup3\n        /* \"src/MockToken_flattened.sol\":60752:60762  ids.length */\n      mload\n        /* \"src/MockToken_flattened.sol\":60752:60779  ids.length != values.length */\n      eq\n        /* \"src/MockToken_flattened.sol\":60748:60865  if (ids.length != values.length) {... */\n      tag_160\n      jumpi\n        /* \"src/MockToken_flattened.sol\":60828:60838  ids.length */\n      dup2\n      mload\n        /* \"src/MockToken_flattened.sol\":60840:60853  values.length */\n      dup2\n      mload\n        /* \"src/MockToken_flattened.sol\":60802:60854  ERC1155InvalidArrayLength(ids.length, values.length) */\n      mload(0x40)\n      shl(0xe0, 0x5b059991)\n      dup2\n      mstore\n      0x04\n      dup2\n      add\n        /* \"#utility.yul\":9089:9114   */\n      swap3\n      swap1\n      swap3\n      mstore\n        /* \"#utility.yul\":9130:9148   */\n      0x24\n      dup3\n      add\n        /* \"#utility.yul\":9123:9157   */\n      mstore\n        /* \"#utility.yul\":9062:9080   */\n      0x44\n      add\n        /* \"src/MockToken_flattened.sol\":60802:60854  ERC1155InvalidArrayLength(ids.length, values.length) */\n      tag_80\n        /* \"#utility.yul\":8915:9163   */\n      jump\n        /* \"src/MockToken_flattened.sol\":60748:60865  if (ids.length != values.length) {... */\n    tag_160:\n        /* \"src/MockToken_flattened.sol\":34750:34760  msg.sender */\n      caller\n        /* \"src/MockToken_flattened.sol\":60875:60891  address operator */\n      0x00\n        /* \"src/MockToken_flattened.sol\":60917:61608  for (uint256 i = 0; i < ids.length; ++i) {... */\n    tag_163:\n        /* \"src/MockToken_flattened.sol\":60941:60944  ids */\n      dup4\n        /* \"src/MockToken_flattened.sol\":60941:60951  ids.length */\n      mload\n        /* \"src/MockToken_flattened.sol\":60937:60938  i */\n      dup2\n        /* \"src/MockToken_flattened.sol\":60937:60951  i < ids.length */\n      lt\n        /* \"src/MockToken_flattened.sol\":60917:61608  for (uint256 i = 0; i < ids.length; ++i) {... */\n      iszero\n      tag_164\n      jumpi\n        /* \"src/MockToken_flattened.sol\":33954:33958  0x20 */\n      0x20\n        /* \"src/MockToken_flattened.sol\":33945:33959  mul(pos, 0x20) */\n      dup2\n      dup2\n      mul\n        /* \"src/MockToken_flattened.sol\":33925:33960  add(add(arr, 0x20), mul(pos, 0x20)) */\n      dup6\n      dup2\n      add\n      dup3\n      add\n        /* \"src/MockToken_flattened.sol\":33919:33961  mload(add(add(arr, 0x20), mul(pos, 0x20))) */\n      mload\n        /* \"src/MockToken_flattened.sol\":33925:33960  add(add(arr, 0x20), mul(pos, 0x20)) */\n      swap1\n      dup6\n      add\n      swap1\n      swap2\n      add\n        /* \"src/MockToken_flattened.sol\":33919:33961  mload(add(add(arr, 0x20), mul(pos, 0x20))) */\n      mload\n      sub(shl(0xa0, 0x01), 0x01)\n        /* \"src/MockToken_flattened.sol\":61087:61105  from != address(0) */\n      dup9\n      and\n      iszero\n        /* \"src/MockToken_flattened.sol\":61083:61503  if (from != address(0)) {... */\n      tag_168\n      jumpi\n        /* \"src/MockToken_flattened.sol\":61125:61144  uint256 fromBalance */\n      0x00\n        /* \"src/MockToken_flattened.sol\":61147:61160  _balances[id] */\n      dup3\n      dup2\n      mstore\n      0x20\n      dup2\n      dup2\n      mstore\n      0x40\n      dup1\n      dup4\n      keccak256\n      sub(shl(0xa0, 0x01), 0x01)\n        /* \"src/MockToken_flattened.sol\":61147:61166  _balances[id][from] */\n      dup13\n      and\n      dup5\n      mstore\n      swap1\n      swap2\n      mstore\n      swap1\n      keccak256\n      sload\n        /* \"src/MockToken_flattened.sol\":61188:61207  fromBalance < value */\n      dup2\n      dup2\n      lt\n        /* \"src/MockToken_flattened.sol\":61184:61313  if (fromBalance < value) {... */\n      iszero\n      tag_169\n      jumpi\n        /* \"src/MockToken_flattened.sol\":61238:61294  ERC1155InsufficientBalance(from, fromBalance, value, id) */\n      mload(0x40)\n      shl(0xe0, 0x03dee4c5)\n      dup2\n      mstore\n      sub(shl(0xa0, 0x01), 0x01)\n        /* \"#utility.yul\":9757:9789   */\n      dup11\n      and\n        /* \"src/MockToken_flattened.sol\":61238:61294  ERC1155InsufficientBalance(from, fromBalance, value, id) */\n      0x04\n      dup3\n      add\n        /* \"#utility.yul\":9739:9790   */\n      mstore\n        /* \"#utility.yul\":9806:9824   */\n      0x24\n      dup2\n      add\n        /* \"#utility.yul\":9799:9833   */\n      dup3\n      swap1\n      mstore\n        /* \"#utility.yul\":9849:9867   */\n      0x44\n      dup2\n      add\n        /* \"#utility.yul\":9842:9876   */\n      dup4\n      swap1\n      mstore\n        /* \"#utility.yul\":9892:9910   */\n      0x64\n      dup2\n      add\n        /* \"#utility.yul\":9885:9919   */\n      dup5\n      swap1\n      mstore\n        /* \"#utility.yul\":9711:9730   */\n      0x84\n      add\n        /* \"src/MockToken_flattened.sol\":61238:61294  ERC1155InsufficientBalance(from, fromBalance, value, id) */\n      tag_80\n        /* \"#utility.yul\":9508:9925   */\n      jump\n        /* \"src/MockToken_flattened.sol\":61184:61313  if (fromBalance < value) {... */\n    tag_169:\n        /* \"src/MockToken_flattened.sol\":61429:61438  _balances */\n      0x00\n        /* \"src/MockToken_flattened.sol\":61429:61442  _balances[id] */\n      dup4\n      dup2\n      mstore\n      0x20\n      dup2\n      dup2\n      mstore\n      0x40\n      dup1\n      dup4\n      keccak256\n      sub(shl(0xa0, 0x01), 0x01)\n        /* \"src/MockToken_flattened.sol\":61429:61448  _balances[id][from] */\n      dup14\n      and\n      dup5\n      mstore\n      swap1\n      swap2\n      mstore\n      swap1\n      keccak256\n        /* \"src/MockToken_flattened.sol\":61451:61470  fromBalance - value */\n      swap1\n      dup3\n      swap1\n      sub\n        /* \"src/MockToken_flattened.sol\":61429:61470  _balances[id][from] = fromBalance - value */\n      swap1\n      sstore\n        /* \"src/MockToken_flattened.sol\":61083:61503  if (from != address(0)) {... */\n    tag_168:\n      sub(shl(0xa0, 0x01), 0x01)\n        /* \"src/MockToken_flattened.sol\":61521:61537  to != address(0) */\n      dup8\n      and\n      iszero\n        /* \"src/MockToken_flattened.sol\":61517:61598  if (to != address(0)) {... */\n      tag_172\n      jumpi\n        /* \"src/MockToken_flattened.sol\":61557:61566  _balances */\n      0x00\n        /* \"src/MockToken_flattened.sol\":61557:61570  _balances[id] */\n      dup3\n      dup2\n      mstore\n      0x20\n      dup2\n      dup2\n      mstore\n      0x40\n      dup1\n      dup4\n      keccak256\n      sub(shl(0xa0, 0x01), 0x01)\n        /* \"src/MockToken_flattened.sol\":61557:61574  _balances[id][to] */\n      dup12\n      and\n      dup5\n      mstore\n      swap1\n      swap2\n      mstore\n      dup2\n      keccak256\n        /* \"src/MockToken_flattened.sol\":61557:61583  _balances[id][to] += value */\n      dup1\n      sload\n        /* \"src/MockToken_flattened.sol\":61578:61583  value */\n      dup4\n      swap3\n        /* \"src/MockToken_flattened.sol\":61557:61566  _balances */\n      swap1\n        /* \"src/MockToken_flattened.sol\":61557:61583  _balances[id][to] += value */\n      tag_173\n      swap1\n        /* \"src/MockToken_flattened.sol\":61578:61583  value */\n      dup5\n      swap1\n        /* \"src/MockToken_flattened.sol\":61557:61583  _balances[id][to] += value */\n      tag_174\n      jump\t// in\n    tag_173:\n      swap1\n      swap2\n      sstore\n      pop\n      pop\n        /* \"src/MockToken_flattened.sol\":61517:61598  if (to != address(0)) {... */\n    tag_172:\n      pop\n      pop\n        /* \"src/MockToken_flattened.sol\":60953:60956  ++i */\n      0x01\n      add\n        /* \"src/MockToken_flattened.sol\":60917:61608  for (uint256 i = 0; i < ids.length; ++i) {... */\n      jump(tag_163)\n    tag_164:\n      pop\n        /* \"src/MockToken_flattened.sol\":61622:61625  ids */\n      dup3\n        /* \"src/MockToken_flattened.sol\":61622:61632  ids.length */\n      mload\n        /* \"src/MockToken_flattened.sol\":61636:61637  1 */\n      0x01\n        /* \"src/MockToken_flattened.sol\":61622:61637  ids.length == 1 */\n      sub\n        /* \"src/MockToken_flattened.sol\":61618:61906  if (ids.length == 1) {... */\n      tag_175\n      jumpi\n        /* \"src/MockToken_flattened.sol\":33954:33958  0x20 */\n      0x20\n        /* \"src/MockToken_flattened.sol\":33925:33960  add(add(arr, 0x20), mul(pos, 0x20)) */\n      dup4\n      add\n        /* \"src/MockToken_flattened.sol\":33919:33961  mload(add(add(arr, 0x20), mul(pos, 0x20))) */\n      mload\n        /* \"src/MockToken_flattened.sol\":61653:61663  uint256 id */\n      0x00\n      swap1\n        /* \"src/MockToken_flattened.sol\":33954:33958  0x20 */\n      0x20\n        /* \"src/MockToken_flattened.sol\":33925:33960  add(add(arr, 0x20), mul(pos, 0x20)) */\n      dup5\n      add\n        /* \"src/MockToken_flattened.sol\":33919:33961  mload(add(add(arr, 0x20), mul(pos, 0x20))) */\n      mload\n        /* \"src/MockToken_flattened.sol\":61653:61691  uint256 id = ids.unsafeMemoryAccess(0) */\n      swap1\n      swap2\n      pop\n        /* \"src/MockToken_flattened.sol\":61799:61801  to */\n      dup6\n      sub(shl(0xa0, 0x01), 0x01)\n        /* \"src/MockToken_flattened.sol\":61768:61813  TransferSingle(operator, from, to, id, value) */\n      and\n        /* \"src/MockToken_flattened.sol\":61793:61797  from */\n      dup8\n      sub(shl(0xa0, 0x01), 0x01)\n        /* \"src/MockToken_flattened.sol\":61768:61813  TransferSingle(operator, from, to, id, value) */\n      and\n        /* \"src/MockToken_flattened.sol\":61783:61791  operator */\n      dup5\n      sub(shl(0xa0, 0x01), 0x01)\n        /* \"src/MockToken_flattened.sol\":61768:61813  TransferSingle(operator, from, to, id, value) */\n      and\n      0xc3d58168c5ae7397731d063d5bbf3d657854427343f4c083240f7aacaa2d0f62\n        /* \"src/MockToken_flattened.sol\":61803:61805  id */\n      dup6\n        /* \"src/MockToken_flattened.sol\":61807:61812  value */\n      dup6\n        /* \"src/MockToken_flattened.sol\":61768:61813  TransferSingle(operator, from, to, id, value) */\n      mload(0x40)\n      tag_178\n      swap3\n      swap2\n      swap1\n        /* \"#utility.yul\":9089:9114   */\n      swap2\n      dup3\n      mstore\n        /* \"#utility.yul\":9145:9147   */\n      0x20\n        /* \"#utility.yul\":9130:9148   */\n      dup3\n      add\n        /* \"#utility.yul\":9123:9157   */\n      mstore\n        /* \"#utility.yul\":9077:9079   */\n      0x40\n        /* \"#utility.yul\":9062:9080   */\n      add\n      swap1\n        /* \"#utility.yul\":8915:9163   */\n      jump\n        /* \"src/MockToken_flattened.sol\":61768:61813  TransferSingle(operator, from, to, id, value) */\n    tag_178:\n      mload(0x40)\n      dup1\n      swap2\n      sub\n      swap1\n      log4\n        /* \"src/MockToken_flattened.sol\":61639:61824  {... */\n      pop\n      pop\n        /* \"src/MockToken_flattened.sol\":61618:61906  if (ids.length == 1) {... */\n      jump(tag_131)\n    tag_175:\n        /* \"src/MockToken_flattened.sol\":61879:61881  to */\n      dup4\n      sub(shl(0xa0, 0x01), 0x01)\n        /* \"src/MockToken_flattened.sol\":61849:61895  TransferBatch(operator, from, to, ids, values) */\n      and\n        /* \"src/MockToken_flattened.sol\":61873:61877  from */\n      dup6\n      sub(shl(0xa0, 0x01), 0x01)\n        /* \"src/MockToken_flattened.sol\":61849:61895  TransferBatch(operator, from, to, ids, values) */\n      and\n        /* \"src/MockToken_flattened.sol\":61863:61871  operator */\n      dup3\n      sub(shl(0xa0, 0x01), 0x01)\n        /* \"src/MockToken_flattened.sol\":61849:61895  TransferBatch(operator, from, to, ids, values) */\n      and\n      0x4a39dc06d4c0dbc64b70af90fd698a233a518aa5d07e595d983b8c0526c8f7fb\n        /* \"src/MockToken_flattened.sol\":61883:61886  ids */\n      dup7\n        /* \"src/MockToken_flattened.sol\":61888:61894  values */\n      dup7\n        /* \"src/MockToken_flattened.sol\":61849:61895  TransferBatch(operator, from, to, ids, values) */\n      mload(0x40)\n      tag_180\n      swap3\n      swap2\n      swap1\n      tag_181\n      jump\t// in\n    tag_180:\n      mload(0x40)\n      dup1\n      swap2\n      sub\n      swap1\n      log4\n        /* \"src/MockToken_flattened.sol\":60738:61912  {... */\n      pop\n        /* \"src/MockToken_flattened.sol\":60631:61912  function _update(address from, address to, uint256[] memory ids, uint256[] memory values) internal virtual {... */\n      pop\n      pop\n      pop\n      pop\n      jump\t// out\n        /* \"src/MockToken_flattened.sol\":69248:70222  function _doSafeTransferAcceptanceCheck(... */\n    tag_155:\n      sub(shl(0xa0, 0x01), 0x01)\n        /* \"src/MockToken_flattened.sol\":69454:69468  to.code.length */\n      dup5\n      and\n      extcodesize\n        /* \"src/MockToken_flattened.sol\":69454:69472  to.code.length > 0 */\n      iszero\n        /* \"src/MockToken_flattened.sol\":69450:70216  if (to.code.length > 0) {... */\n      tag_82\n      jumpi\n        /* \"src/MockToken_flattened.sol\":69492:69563  IERC1155Receiver(to).onERC1155Received(operator, from, id, value, data) */\n      mload(0x40)\n      shl(0xe0, 0xf23a6e61)\n      dup2\n      mstore\n      sub(shl(0xa0, 0x01), 0x01)\n        /* \"src/MockToken_flattened.sol\":69492:69530  IERC1155Receiver(to).onERC1155Received */\n      dup6\n      and\n      swap1\n      0xf23a6e61\n      swap1\n        /* \"src/MockToken_flattened.sol\":69492:69563  IERC1155Receiver(to).onERC1155Received(operator, from, id, value, data) */\n      tag_184\n      swap1\n        /* \"src/MockToken_flattened.sol\":69531:69539  operator */\n      dup10\n      swap1\n        /* \"src/MockToken_flattened.sol\":69541:69545  from */\n      dup10\n      swap1\n        /* \"src/MockToken_flattened.sol\":69547:69549  id */\n      dup9\n      swap1\n        /* \"src/MockToken_flattened.sol\":69551:69556  value */\n      dup9\n      swap1\n        /* \"src/MockToken_flattened.sol\":69558:69562  data */\n      dup9\n      swap1\n        /* \"src/MockToken_flattened.sol\":69492:69563  IERC1155Receiver(to).onERC1155Received(operator, from, id, value, data) */\n      0x04\n      add\n      tag_185\n      jump\t// in\n    tag_184:\n      0x20\n      mload(0x40)\n      dup1\n      dup4\n      sub\n      dup2\n      0x00\n      dup8\n      gas\n      call\n      swap3\n      pop\n      pop\n      pop\n      dup1\n      iszero\n      tag_186\n      jumpi\n      pop\n      0x40\n      dup1\n      mload\n      0x1f\n      returndatasize\n      swap1\n      dup2\n      add\n      not(0x1f)\n      and\n      dup3\n      add\n      swap1\n      swap3\n      mstore\n      tag_187\n      swap2\n      dup2\n      add\n      swap1\n      tag_188\n      jump\t// in\n    tag_187:\n      0x01\n    tag_186:\n        /* \"src/MockToken_flattened.sol\":69488:70206  try IERC1155Receiver(to).onERC1155Received(operator, from, id, value, data) returns (bytes4 response) {... */\n      tag_189\n      jumpi\n      returndatasize\n      dup1\n      dup1\n      iszero\n      tag_194\n      jumpi\n      mload(0x40)\n      swap2\n      pop\n      and(add(returndatasize, 0x3f), not(0x1f))\n      dup3\n      add\n      0x40\n      mstore\n      returndatasize\n      dup3\n      mstore\n      returndatasize\n      0x00\n      0x20\n      dup5\n      add\n      returndatacopy\n      jump(tag_193)\n    tag_194:\n      0x60\n      swap2\n      pop\n    tag_193:\n      pop\n        /* \"src/MockToken_flattened.sol\":69847:69853  reason */\n      dup1\n        /* \"src/MockToken_flattened.sol\":69847:69860  reason.length */\n      mload\n        /* \"src/MockToken_flattened.sol\":69864:69865  0 */\n      0x00\n        /* \"src/MockToken_flattened.sol\":69847:69865  reason.length == 0 */\n      sub\n        /* \"src/MockToken_flattened.sol\":69843:70192  if (reason.length == 0) {... */\n      tag_195\n      jumpi\n        /* \"src/MockToken_flattened.sol\":69951:69977  ERC1155InvalidReceiver(to) */\n      mload(0x40)\n      shl(0xe1, 0x2bfa23e7)\n      dup2\n      mstore\n      sub(shl(0xa0, 0x01), 0x01)\n        /* \"#utility.yul\":9464:9496   */\n      dup7\n      and\n        /* \"src/MockToken_flattened.sol\":69951:69977  ERC1155InvalidReceiver(to) */\n      0x04\n      dup3\n      add\n        /* \"#utility.yul\":9446:9497   */\n      mstore\n        /* \"#utility.yul\":9419:9437   */\n      0x24\n      add\n        /* \"src/MockToken_flattened.sol\":69951:69977  ERC1155InvalidReceiver(to) */\n      tag_80\n        /* \"#utility.yul\":9300:9503   */\n      jump\n        /* \"src/MockToken_flattened.sol\":69843:70192  if (reason.length == 0) {... */\n    tag_195:\n        /* \"src/MockToken_flattened.sol\":70144:70150  reason */\n      dup1\n        /* \"src/MockToken_flattened.sol\":70138:70151  mload(reason) */\n      mload\n        /* \"src/MockToken_flattened.sol\":70129:70135  reason */\n      dup2\n        /* \"src/MockToken_flattened.sol\":70125:70127  32 */\n      0x20\n        /* \"src/MockToken_flattened.sol\":70121:70136  add(32, reason) */\n      add\n        /* \"src/MockToken_flattened.sol\":70114:70152  revert(add(32, reason), mload(reason)) */\n      revert\n        /* \"src/MockToken_flattened.sol\":69488:70206  try IERC1155Receiver(to).onERC1155Received(operator, from, id, value, data) returns (bytes4 response) {... */\n    tag_189:\n      not(sub(shl(0xe0, 0x01), 0x01))\n        /* \"src/MockToken_flattened.sol\":69612:69667  response != IERC1155Receiver.onERC1155Received.selector */\n      dup2\n      and\n      shl(0xe0, 0xf23a6e61)\n      eq\n        /* \"src/MockToken_flattened.sol\":69608:69782  if (response != IERC1155Receiver.onERC1155Received.selector) {... */\n      tag_144\n      jumpi\n        /* \"src/MockToken_flattened.sol\":69737:69763  ERC1155InvalidReceiver(to) */\n      mload(0x40)\n      shl(0xe1, 0x2bfa23e7)\n      dup2\n      mstore\n      sub(shl(0xa0, 0x01), 0x01)\n        /* \"#utility.yul\":9464:9496   */\n      dup7\n      and\n        /* \"src/MockToken_flattened.sol\":69737:69763  ERC1155InvalidReceiver(to) */\n      0x04\n      dup3\n      add\n        /* \"#utility.yul\":9446:9497   */\n      mstore\n        /* \"#utility.yul\":9419:9437   */\n      0x24\n      add\n        /* \"src/MockToken_flattened.sol\":69737:69763  ERC1155InvalidReceiver(to) */\n      tag_80\n        /* \"#utility.yul\":9300:9503   */\n      jump\n        /* \"src/MockToken_flattened.sol\":70410:71451  function _doSafeBatchTransferAcceptanceCheck(... */\n    tag_158:\n      sub(shl(0xa0, 0x01), 0x01)\n        /* \"src/MockToken_flattened.sol\":70641:70655  to.code.length */\n      dup5\n      and\n      extcodesize\n        /* \"src/MockToken_flattened.sol\":70641:70659  to.code.length > 0 */\n      iszero\n        /* \"src/MockToken_flattened.sol\":70637:71445  if (to.code.length > 0) {... */\n      tag_82\n      jumpi\n        /* \"src/MockToken_flattened.sol\":70679:70757  IERC1155Receiver(to).onERC1155BatchReceived(operator, from, ids, values, data) */\n      mload(0x40)\n      shl(0xe0, 0xbc197c81)\n      dup2\n      mstore\n      sub(shl(0xa0, 0x01), 0x01)\n        /* \"src/MockToken_flattened.sol\":70679:70722  IERC1155Receiver(to).onERC1155BatchReceived */\n      dup6\n      and\n      swap1\n      0xbc197c81\n      swap1\n        /* \"src/MockToken_flattened.sol\":70679:70757  IERC1155Receiver(to).onERC1155BatchReceived(operator, from, ids, values, data) */\n      tag_203\n      swap1\n        /* \"src/MockToken_flattened.sol\":70723:70731  operator */\n      dup10\n      swap1\n        /* \"src/MockToken_flattened.sol\":70733:70737  from */\n      dup10\n      swap1\n        /* \"src/MockToken_flattened.sol\":70739:70742  ids */\n      dup9\n      swap1\n        /* \"src/MockToken_flattened.sol\":70744:70750  values */\n      dup9\n      swap1\n        /* \"src/MockToken_flattened.sol\":70752:70756  data */\n      dup9\n      swap1\n        /* \"src/MockToken_flattened.sol\":70679:70757  IERC1155Receiver(to).onERC1155BatchReceived(operator, from, ids, values, data) */\n      0x04\n      add\n      tag_204\n      jump\t// in\n    tag_203:\n      0x20\n      mload(0x40)\n      dup1\n      dup4\n      sub\n      dup2\n      0x00\n      dup8\n      gas\n      call\n      swap3\n      pop\n      pop\n      pop\n      dup1\n      iszero\n      tag_205\n      jumpi\n      pop\n      0x40\n      dup1\n      mload\n      0x1f\n      returndatasize\n      swap1\n      dup2\n      add\n      not(0x1f)\n      and\n      dup3\n      add\n      swap1\n      swap3\n      mstore\n      tag_206\n      swap2\n      dup2\n      add\n      swap1\n      tag_188\n      jump\t// in\n    tag_206:\n      0x01\n    tag_205:\n        /* \"src/MockToken_flattened.sol\":70675:71435  try IERC1155Receiver(to).onERC1155BatchReceived(operator, from, ids, values, data) returns (... */\n      tag_207\n      jumpi\n      returndatasize\n      dup1\n      dup1\n      iszero\n      tag_194\n      jumpi\n      mload(0x40)\n      swap2\n      pop\n      and(add(returndatasize, 0x3f), not(0x1f))\n      dup3\n      add\n      0x40\n      mstore\n      returndatasize\n      dup3\n      mstore\n      returndatasize\n      0x00\n      0x20\n      dup5\n      add\n      returndatacopy\n      jump(tag_193)\n    tag_207:\n      not(sub(shl(0xe0, 0x01), 0x01))\n        /* \"src/MockToken_flattened.sol\":70836:70896  response != IERC1155Receiver.onERC1155BatchReceived.selector */\n      dup2\n      and\n      shl(0xe0, 0xbc197c81)\n      eq\n        /* \"src/MockToken_flattened.sol\":70832:71011  if (response != IERC1155Receiver.onERC1155BatchReceived.selector) {... */\n      tag_144\n      jumpi\n        /* \"src/MockToken_flattened.sol\":70966:70992  ERC1155InvalidReceiver(to) */\n      mload(0x40)\n      shl(0xe1, 0x2bfa23e7)\n      dup2\n      mstore\n      sub(shl(0xa0, 0x01), 0x01)\n        /* \"#utility.yul\":9464:9496   */\n      dup7\n      and\n        /* \"src/MockToken_flattened.sol\":70966:70992  ERC1155InvalidReceiver(to) */\n      0x04\n      dup3\n      add\n        /* \"#utility.yul\":9446:9497   */\n      mstore\n        /* \"#utility.yul\":9419:9437   */\n      0x24\n      add\n        /* \"src/MockToken_flattened.sol\":70966:70992  ERC1155InvalidReceiver(to) */\n      tag_80\n        /* \"#utility.yul\":9300:9503   */\n      jump\n        /* \"#utility.yul\":14:187   */\n    tag_219:\n        /* \"#utility.yul\":82:102   */\n      dup1\n      calldataload\n      sub(shl(0xa0, 0x01), 0x01)\n        /* \"#utility.yul\":131:162   */\n      dup2\n      and\n        /* \"#utility.yul\":121:163   */\n      dup2\n      eq\n        /* \"#utility.yul\":111:181   */\n      tag_229\n      jumpi\n        /* \"#utility.yul\":177:178   */\n      0x00\n        /* \"#utility.yul\":174:175   */\n      dup1\n        /* \"#utility.yul\":167:179   */\n      revert\n        /* \"#utility.yul\":111:181   */\n    tag_229:\n        /* \"#utility.yul\":14:187   */\n      swap2\n      swap1\n      pop\n      jump\t// out\n        /* \"#utility.yul\":192:446   */\n    tag_15:\n        /* \"#utility.yul\":260:266   */\n      0x00\n        /* \"#utility.yul\":268:274   */\n      dup1\n        /* \"#utility.yul\":321:323   */\n      0x40\n        /* \"#utility.yul\":309:318   */\n      dup4\n        /* \"#utility.yul\":300:307   */\n      dup6\n        /* \"#utility.yul\":296:319   */\n      sub\n        /* \"#utility.yul\":292:324   */\n      slt\n        /* \"#utility.yul\":289:341   */\n      iszero\n      tag_231\n      jumpi\n        /* \"#utility.yul\":337:338   */\n      0x00\n        /* \"#utility.yul\":334:335   */\n      dup1\n        /* \"#utility.yul\":327:339   */\n      revert\n        /* \"#utility.yul\":289:341   */\n    tag_231:\n        /* \"#utility.yul\":360:389   */\n      tag_232\n        /* \"#utility.yul\":379:388   */\n      dup4\n        /* \"#utility.yul\":360:389   */\n      tag_219\n      jump\t// in\n    tag_232:\n        /* \"#utility.yul\":350:389   */\n      swap5\n        /* \"#utility.yul\":436:438   */\n      0x20\n        /* \"#utility.yul\":421:439   */\n      swap4\n      swap1\n      swap4\n      add\n        /* \"#utility.yul\":408:440   */\n      calldataload\n      swap4\n      pop\n      pop\n      pop\n        /* \"#utility.yul\":192:446   */\n      jump\t// out\n        /* \"#utility.yul\":633:764   */\n    tag_220:\n      not(sub(shl(0xe0, 0x01), 0x01))\n        /* \"#utility.yul\":707:739   */\n      dup2\n      and\n        /* \"#utility.yul\":697:740   */\n      dup2\n      eq\n        /* \"#utility.yul\":687:758   */\n      tag_235\n      jumpi\n        /* \"#utility.yul\":754:755   */\n      0x00\n        /* \"#utility.yul\":751:752   */\n      dup1\n        /* \"#utility.yul\":744:756   */\n      revert\n        /* \"#utility.yul\":687:758   */\n    tag_235:\n        /* \"#utility.yul\":633:764   */\n      pop\n      jump\t// out\n        /* \"#utility.yul\":769:1014   */\n    tag_21:\n        /* \"#utility.yul\":827:833   */\n      0x00\n        /* \"#utility.yul\":880:882   */\n      0x20\n        /* \"#utility.yul\":868:877   */\n      dup3\n        /* \"#utility.yul\":859:866   */\n      dup5\n        /* \"#utility.yul\":855:878   */\n      sub\n        /* \"#utility.yul\":851:883   */\n      slt\n        /* \"#utility.yul\":848:900   */\n      iszero\n      tag_237\n      jumpi\n        /* \"#utility.yul\":896:897   */\n      0x00\n        /* \"#utility.yul\":893:894   */\n      dup1\n        /* \"#utility.yul\":886:898   */\n      revert\n        /* \"#utility.yul\":848:900   */\n    tag_237:\n        /* \"#utility.yul\":935:944   */\n      dup2\n        /* \"#utility.yul\":922:945   */\n      calldataload\n        /* \"#utility.yul\":954:984   */\n      tag_238\n        /* \"#utility.yul\":978:983   */\n      dup2\n        /* \"#utility.yul\":954:984   */\n      tag_220\n      jump\t// in\n    tag_238:\n        /* \"#utility.yul\":1003:1008   */\n      swap4\n        /* \"#utility.yul\":769:1014   */\n      swap3\n      pop\n      pop\n      pop\n      jump\t// out\n        /* \"#utility.yul\":1211:1391   */\n    tag_27:\n        /* \"#utility.yul\":1270:1276   */\n      0x00\n        /* \"#utility.yul\":1323:1325   */\n      0x20\n        /* \"#utility.yul\":1311:1320   */\n      dup3\n        /* \"#utility.yul\":1302:1309   */\n      dup5\n        /* \"#utility.yul\":1298:1321   */\n      sub\n        /* \"#utility.yul\":1294:1326   */\n      slt\n        /* \"#utility.yul\":1291:1343   */\n      iszero\n      tag_241\n      jumpi\n        /* \"#utility.yul\":1339:1340   */\n      0x00\n        /* \"#utility.yul\":1336:1337   */\n      dup1\n        /* \"#utility.yul\":1329:1341   */\n      revert\n        /* \"#utility.yul\":1291:1343   */\n    tag_241:\n      pop\n        /* \"#utility.yul\":1362:1385   */\n      calldataload\n      swap2\n        /* \"#utility.yul\":1211:1391   */\n      swap1\n      pop\n      jump\t// out\n        /* \"#utility.yul\":1396:1819   */\n    tag_221:\n        /* \"#utility.yul\":1438:1441   */\n      0x00\n        /* \"#utility.yul\":1476:1481   */\n      dup2\n        /* \"#utility.yul\":1470:1482   */\n      mload\n        /* \"#utility.yul\":1503:1509   */\n      dup1\n        /* \"#utility.yul\":1498:1501   */\n      dup5\n        /* \"#utility.yul\":1491:1510   */\n      mstore\n        /* \"#utility.yul\":1528:1529   */\n      0x00\n        /* \"#utility.yul\":1538:1700   */\n    tag_243:\n        /* \"#utility.yul\":1552:1558   */\n      dup2\n        /* \"#utility.yul\":1549:1550   */\n      dup2\n        /* \"#utility.yul\":1546:1559   */\n      lt\n        /* \"#utility.yul\":1538:1700   */\n      iszero\n      tag_245\n      jumpi\n        /* \"#utility.yul\":1614:1618   */\n      0x20\n        /* \"#utility.yul\":1670:1683   */\n      dup2\n      dup6\n      add\n        /* \"#utility.yul\":1666:1688   */\n      dup2\n      add\n        /* \"#utility.yul\":1660:1689   */\n      mload\n        /* \"#utility.yul\":1642:1653   */\n      dup7\n      dup4\n      add\n        /* \"#utility.yul\":1638:1658   */\n      dup3\n      add\n        /* \"#utility.yul\":1631:1690   */\n      mstore\n        /* \"#utility.yul\":1567:1579   */\n      add\n        /* \"#utility.yul\":1538:1700   */\n      jump(tag_243)\n    tag_245:\n        /* \"#utility.yul\":1542:1545   */\n      pop\n        /* \"#utility.yul\":1745:1746   */\n      0x00\n        /* \"#utility.yul\":1738:1742   */\n      0x20\n        /* \"#utility.yul\":1729:1735   */\n      dup3\n        /* \"#utility.yul\":1724:1727   */\n      dup7\n        /* \"#utility.yul\":1720:1736   */\n      add\n        /* \"#utility.yul\":1716:1743   */\n      add\n        /* \"#utility.yul\":1709:1747   */\n      mstore\n        /* \"#utility.yul\":1808:1812   */\n      0x20\n        /* \"#utility.yul\":1801:1803   */\n      0x1f\n        /* \"#utility.yul\":1797:1804   */\n      not\n        /* \"#utility.yul\":1792:1794   */\n      0x1f\n        /* \"#utility.yul\":1784:1790   */\n      dup4\n        /* \"#utility.yul\":1780:1795   */\n      add\n        /* \"#utility.yul\":1776:1805   */\n      and\n        /* \"#utility.yul\":1771:1774   */\n      dup6\n        /* \"#utility.yul\":1767:1806   */\n      add\n        /* \"#utility.yul\":1763:1813   */\n      add\n        /* \"#utility.yul\":1756:1813   */\n      swap2\n      pop\n      pop\n        /* \"#utility.yul\":1396:1819   */\n      swap3\n      swap2\n      pop\n      pop\n      jump\t// out\n        /* \"#utility.yul\":1824:2044   */\n    tag_30:\n        /* \"#utility.yul\":1973:1975   */\n      0x20\n        /* \"#utility.yul\":1962:1971   */\n      dup2\n        /* \"#utility.yul\":1955:1976   */\n      mstore\n        /* \"#utility.yul\":1936:1940   */\n      0x00\n        /* \"#utility.yul\":1993:2038   */\n      tag_238\n        /* \"#utility.yul\":2034:2036   */\n      0x20\n        /* \"#utility.yul\":2023:2032   */\n      dup4\n        /* \"#utility.yul\":2019:2037   */\n      add\n        /* \"#utility.yul\":2011:2017   */\n      dup5\n        /* \"#utility.yul\":1993:2038   */\n      tag_221\n      jump\t// in\n        /* \"#utility.yul\":2049:2371   */\n    tag_33:\n        /* \"#utility.yul\":2126:2132   */\n      0x00\n        /* \"#utility.yul\":2134:2140   */\n      dup1\n        /* \"#utility.yul\":2142:2148   */\n      0x00\n        /* \"#utility.yul\":2195:2197   */\n      0x60\n        /* \"#utility.yul\":2183:2192   */\n      dup5\n        /* \"#utility.yul\":2174:2181   */\n      dup7\n        /* \"#utility.yul\":2170:2193   */\n      sub\n        /* \"#utility.yul\":2166:2198   */\n      slt\n        /* \"#utility.yul\":2163:2215   */\n      iszero\n      tag_249\n      jumpi\n        /* \"#utility.yul\":2211:2212   */\n      0x00\n        /* \"#utility.yul\":2208:2209   */\n      dup1\n        /* \"#utility.yul\":2201:2213   */\n      revert\n        /* \"#utility.yul\":2163:2215   */\n    tag_249:\n        /* \"#utility.yul\":2234:2263   */\n      tag_250\n        /* \"#utility.yul\":2253:2262   */\n      dup5\n        /* \"#utility.yul\":2234:2263   */\n      tag_219\n      jump\t// in\n    tag_250:\n        /* \"#utility.yul\":2224:2263   */\n      swap6\n        /* \"#utility.yul\":2310:2312   */\n      0x20\n        /* \"#utility.yul\":2295:2313   */\n      dup6\n      add\n        /* \"#utility.yul\":2282:2314   */\n      calldataload\n      swap6\n      pop\n        /* \"#utility.yul\":2361:2363   */\n      0x40\n        /* \"#utility.yul\":2346:2364   */\n      swap1\n      swap5\n      add\n        /* \"#utility.yul\":2333:2365   */\n      calldataload\n      swap4\n        /* \"#utility.yul\":2049:2371   */\n      swap3\n      pop\n      pop\n      pop\n      jump\t// out\n        /* \"#utility.yul\":2376:2503   */\n    tag_90:\n        /* \"#utility.yul\":2437:2447   */\n      0x4e487b71\n        /* \"#utility.yul\":2432:2435   */\n      0xe0\n        /* \"#utility.yul\":2428:2448   */\n      shl\n        /* \"#utility.yul\":2425:2426   */\n      0x00\n        /* \"#utility.yul\":2418:2449   */\n      mstore\n        /* \"#utility.yul\":2468:2472   */\n      0x41\n        /* \"#utility.yul\":2465:2466   */\n      0x04\n        /* \"#utility.yul\":2458:2473   */\n      mstore\n        /* \"#utility.yul\":2492:2496   */\n      0x24\n        /* \"#utility.yul\":2489:2490   */\n      0x00\n        /* \"#utility.yul\":2482:2497   */\n      revert\n        /* \"#utility.yul\":2508:2783   */\n    tag_222:\n        /* \"#utility.yul\":2579:2581   */\n      0x40\n        /* \"#utility.yul\":2573:2582   */\n      mload\n        /* \"#utility.yul\":2644:2646   */\n      0x1f\n        /* \"#utility.yul\":2625:2638   */\n      dup3\n      add\n      not(0x1f)\n        /* \"#utility.yul\":2621:2648   */\n      and\n        /* \"#utility.yul\":2609:2649   */\n      dup2\n      add\n        /* \"#utility.yul\":2679:2697   */\n      0xffffffffffffffff\n        /* \"#utility.yul\":2664:2698   */\n      dup2\n      gt\n        /* \"#utility.yul\":2700:2722   */\n      dup3\n      dup3\n      lt\n        /* \"#utility.yul\":2661:2723   */\n      or\n        /* \"#utility.yul\":2658:2746   */\n      iszero\n      tag_254\n      jumpi\n        /* \"#utility.yul\":2726:2744   */\n      tag_254\n      tag_90\n      jump\t// in\n    tag_254:\n        /* \"#utility.yul\":2762:2764   */\n      0x40\n        /* \"#utility.yul\":2755:2777   */\n      mstore\n        /* \"#utility.yul\":2508:2783   */\n      swap2\n      swap1\n      pop\n      jump\t// out\n        /* \"#utility.yul\":2788:2971   */\n    tag_223:\n        /* \"#utility.yul\":2848:2852   */\n      0x00\n        /* \"#utility.yul\":2881:2899   */\n      0xffffffffffffffff\n        /* \"#utility.yul\":2873:2879   */\n      dup3\n        /* \"#utility.yul\":2870:2900   */\n      gt\n        /* \"#utility.yul\":2867:2923   */\n      iszero\n      tag_257\n      jumpi\n        /* \"#utility.yul\":2903:2921   */\n      tag_257\n      tag_90\n      jump\t// in\n    tag_257:\n      pop\n        /* \"#utility.yul\":2948:2949   */\n      0x05\n        /* \"#utility.yul\":2944:2958   */\n      shl\n        /* \"#utility.yul\":2960:2964   */\n      0x20\n        /* \"#utility.yul\":2940:2965   */\n      add\n      swap1\n        /* \"#utility.yul\":2788:2971   */\n      jump\t// out\n        /* \"#utility.yul\":2976:3644   */\n    tag_224:\n        /* \"#utility.yul\":3030:3035   */\n      0x00\n        /* \"#utility.yul\":3083:3086   */\n      dup3\n        /* \"#utility.yul\":3076:3080   */\n      0x1f\n        /* \"#utility.yul\":3068:3074   */\n      dup4\n        /* \"#utility.yul\":3064:3081   */\n      add\n        /* \"#utility.yul\":3060:3087   */\n      slt\n        /* \"#utility.yul\":3050:3105   */\n      tag_259\n      jumpi\n        /* \"#utility.yul\":3101:3102   */\n      0x00\n        /* \"#utility.yul\":3098:3099   */\n      dup1\n        /* \"#utility.yul\":3091:3103   */\n      revert\n        /* \"#utility.yul\":3050:3105   */\n    tag_259:\n        /* \"#utility.yul\":3137:3143   */\n      dup2\n        /* \"#utility.yul\":3124:3144   */\n      calldataload\n        /* \"#utility.yul\":3163:3167   */\n      0x20\n        /* \"#utility.yul\":3187:3247   */\n      tag_260\n        /* \"#utility.yul\":3203:3246   */\n      tag_261\n        /* \"#utility.yul\":3243:3245   */\n      dup4\n        /* \"#utility.yul\":3203:3246   */\n      tag_223\n      jump\t// in\n    tag_261:\n        /* \"#utility.yul\":3187:3247   */\n      tag_222\n      jump\t// in\n    tag_260:\n        /* \"#utility.yul\":3269:3272   */\n      dup1\n        /* \"#utility.yul\":3293:3295   */\n      dup4\n        /* \"#utility.yul\":3288:3291   */\n      dup3\n        /* \"#utility.yul\":3281:3296   */\n      mstore\n        /* \"#utility.yul\":3321:3325   */\n      0x20\n        /* \"#utility.yul\":3316:3319   */\n      dup3\n        /* \"#utility.yul\":3312:3326   */\n      add\n        /* \"#utility.yul\":3305:3326   */\n      swap2\n      pop\n        /* \"#utility.yul\":3378:3382   */\n      0x20\n        /* \"#utility.yul\":3372:3374   */\n      dup5\n        /* \"#utility.yul\":3369:3370   */\n      0x05\n        /* \"#utility.yul\":3365:3375   */\n      shl\n        /* \"#utility.yul\":3357:3363   */\n      dup8\n        /* \"#utility.yul\":3353:3376   */\n      add\n        /* \"#utility.yul\":3349:3383   */\n      add\n        /* \"#utility.yul\":3335:3383   */\n      swap4\n      pop\n        /* \"#utility.yul\":3406:3409   */\n      dup7\n        /* \"#utility.yul\":3398:3404   */\n      dup5\n        /* \"#utility.yul\":3395:3410   */\n      gt\n        /* \"#utility.yul\":3392:3427   */\n      iszero\n      tag_262\n      jumpi\n        /* \"#utility.yul\":3423:3424   */\n      0x00\n        /* \"#utility.yul\":3420:3421   */\n      dup1\n        /* \"#utility.yul\":3413:3425   */\n      revert\n        /* \"#utility.yul\":3392:3427   */\n    tag_262:\n        /* \"#utility.yul\":3459:3463   */\n      0x20\n        /* \"#utility.yul\":3451:3457   */\n      dup7\n        /* \"#utility.yul\":3447:3464   */\n      add\n        /* \"#utility.yul\":3473:3615   */\n    tag_263:\n        /* \"#utility.yul\":3489:3495   */\n      dup5\n        /* \"#utility.yul\":3484:3487   */\n      dup2\n        /* \"#utility.yul\":3481:3496   */\n      lt\n        /* \"#utility.yul\":3473:3615   */\n      iszero\n      tag_265\n      jumpi\n        /* \"#utility.yul\":3555:3572   */\n      dup1\n      calldataload\n        /* \"#utility.yul\":3543:3573   */\n      dup4\n      mstore\n        /* \"#utility.yul\":3593:3605   */\n      swap2\n      dup4\n      add\n      swap2\n        /* \"#utility.yul\":3506:3518   */\n      dup4\n      add\n        /* \"#utility.yul\":3473:3615   */\n      jump(tag_263)\n    tag_265:\n      pop\n        /* \"#utility.yul\":3633:3638   */\n      swap7\n        /* \"#utility.yul\":2976:3644   */\n      swap6\n      pop\n      pop\n      pop\n      pop\n      pop\n      pop\n      jump\t// out\n        /* \"#utility.yul\":3649:4179   */\n    tag_225:\n        /* \"#utility.yul\":3691:3696   */\n      0x00\n        /* \"#utility.yul\":3744:3747   */\n      dup3\n        /* \"#utility.yul\":3737:3741   */\n      0x1f\n        /* \"#utility.yul\":3729:3735   */\n      dup4\n        /* \"#utility.yul\":3725:3742   */\n      add\n        /* \"#utility.yul\":3721:3748   */\n      slt\n        /* \"#utility.yul\":3711:3766   */\n      tag_267\n      jumpi\n        /* \"#utility.yul\":3762:3763   */\n      0x00\n        /* \"#utility.yul\":3759:3760   */\n      dup1\n        /* \"#utility.yul\":3752:3764   */\n      revert\n        /* \"#utility.yul\":3711:3766   */\n    tag_267:\n        /* \"#utility.yul\":3798:3804   */\n      dup2\n        /* \"#utility.yul\":3785:3805   */\n      calldataload\n        /* \"#utility.yul\":3824:3842   */\n      0xffffffffffffffff\n        /* \"#utility.yul\":3820:3822   */\n      dup2\n        /* \"#utility.yul\":3817:3843   */\n      gt\n        /* \"#utility.yul\":3814:3866   */\n      iszero\n      tag_269\n      jumpi\n        /* \"#utility.yul\":3846:3864   */\n      tag_269\n      tag_90\n      jump\t// in\n    tag_269:\n        /* \"#utility.yul\":3890:3945   */\n      tag_270\n        /* \"#utility.yul\":3933:3935   */\n      0x1f\n        /* \"#utility.yul\":3914:3927   */\n      dup3\n      add\n      not(0x1f)\n        /* \"#utility.yul\":3910:3937   */\n      and\n        /* \"#utility.yul\":3939:3943   */\n      0x20\n        /* \"#utility.yul\":3906:3944   */\n      add\n        /* \"#utility.yul\":3890:3945   */\n      tag_222\n      jump\t// in\n    tag_270:\n        /* \"#utility.yul\":3970:3972   */\n      dup2\n        /* \"#utility.yul\":3961:3968   */\n      dup2\n        /* \"#utility.yul\":3954:3973   */\n      mstore\n        /* \"#utility.yul\":4016:4019   */\n      dup5\n        /* \"#utility.yul\":4009:4013   */\n      0x20\n        /* \"#utility.yul\":4004:4006   */\n      dup4\n        /* \"#utility.yul\":3996:4002   */\n      dup7\n        /* \"#utility.yul\":3992:4007   */\n      add\n        /* \"#utility.yul\":3988:4014   */\n      add\n        /* \"#utility.yul\":3985:4020   */\n      gt\n        /* \"#utility.yul\":3982:4037   */\n      iszero\n      tag_271\n      jumpi\n        /* \"#utility.yul\":4033:4034   */\n      0x00\n        /* \"#utility.yul\":4030:4031   */\n      dup1\n        /* \"#utility.yul\":4023:4035   */\n      revert\n        /* \"#utility.yul\":3982:4037   */\n    tag_271:\n        /* \"#utility.yul\":4098:4100   */\n      dup2\n        /* \"#utility.yul\":4091:4095   */\n      0x20\n        /* \"#utility.yul\":4083:4089   */\n      dup6\n        /* \"#utility.yul\":4079:4096   */\n      add\n        /* \"#utility.yul\":4072:4076   */\n      0x20\n        /* \"#utility.yul\":4063:4070   */\n      dup4\n        /* \"#utility.yul\":4059:4077   */\n      add\n        /* \"#utility.yul\":4046:4101   */\n      calldatacopy\n        /* \"#utility.yul\":4146:4147   */\n      0x00\n        /* \"#utility.yul\":4121:4137   */\n      swap2\n      dup2\n      add\n        /* \"#utility.yul\":4139:4143   */\n      0x20\n        /* \"#utility.yul\":4117:4144   */\n      add\n        /* \"#utility.yul\":4110:4148   */\n      swap2\n      swap1\n      swap2\n      mstore\n        /* \"#utility.yul\":4125:4132   */\n      swap4\n        /* \"#utility.yul\":3649:4179   */\n      swap3\n      pop\n      pop\n      pop\n      jump\t// out\n        /* \"#utility.yul\":4184:5127   */\n    tag_37:\n        /* \"#utility.yul\":4338:4344   */\n      0x00\n        /* \"#utility.yul\":4346:4352   */\n      dup1\n        /* \"#utility.yul\":4354:4360   */\n      0x00\n        /* \"#utility.yul\":4362:4368   */\n      dup1\n        /* \"#utility.yul\":4370:4376   */\n      0x00\n        /* \"#utility.yul\":4423:4426   */\n      0xa0\n        /* \"#utility.yul\":4411:4420   */\n      dup7\n        /* \"#utility.yul\":4402:4409   */\n      dup9\n        /* \"#utility.yul\":4398:4421   */\n      sub\n        /* \"#utility.yul\":4394:4427   */\n      slt\n        /* \"#utility.yul\":4391:4444   */\n      iszero\n      tag_273\n      jumpi\n        /* \"#utility.yul\":4440:4441   */\n      0x00\n        /* \"#utility.yul\":4437:4438   */\n      dup1\n        /* \"#utility.yul\":4430:4442   */\n      revert\n        /* \"#utility.yul\":4391:4444   */\n    tag_273:\n        /* \"#utility.yul\":4463:4492   */\n      tag_274\n        /* \"#utility.yul\":4482:4491   */\n      dup7\n        /* \"#utility.yul\":4463:4492   */\n      tag_219\n      jump\t// in\n    tag_274:\n        /* \"#utility.yul\":4453:4492   */\n      swap5\n      pop\n        /* \"#utility.yul\":4511:4549   */\n      tag_275\n        /* \"#utility.yul\":4545:4547   */\n      0x20\n        /* \"#utility.yul\":4534:4543   */\n      dup8\n        /* \"#utility.yul\":4530:4548   */\n      add\n        /* \"#utility.yul\":4511:4549   */\n      tag_219\n      jump\t// in\n    tag_275:\n        /* \"#utility.yul\":4501:4549   */\n      swap4\n      pop\n        /* \"#utility.yul\":4600:4602   */\n      0x40\n        /* \"#utility.yul\":4589:4598   */\n      dup7\n        /* \"#utility.yul\":4585:4603   */\n      add\n        /* \"#utility.yul\":4572:4604   */\n      calldataload\n        /* \"#utility.yul\":4623:4641   */\n      0xffffffffffffffff\n        /* \"#utility.yul\":4664:4666   */\n      dup1\n        /* \"#utility.yul\":4656:4662   */\n      dup3\n        /* \"#utility.yul\":4653:4667   */\n      gt\n        /* \"#utility.yul\":4650:4684   */\n      iszero\n      tag_276\n      jumpi\n        /* \"#utility.yul\":4680:4681   */\n      0x00\n        /* \"#utility.yul\":4677:4678   */\n      dup1\n        /* \"#utility.yul\":4670:4682   */\n      revert\n        /* \"#utility.yul\":4650:4684   */\n    tag_276:\n        /* \"#utility.yul\":4703:4764   */\n      tag_277\n        /* \"#utility.yul\":4756:4763   */\n      dup10\n        /* \"#utility.yul\":4747:4753   */\n      dup4\n        /* \"#utility.yul\":4736:4745   */\n      dup11\n        /* \"#utility.yul\":4732:4754   */\n      add\n        /* \"#utility.yul\":4703:4764   */\n      tag_224\n      jump\t// in\n    tag_277:\n        /* \"#utility.yul\":4693:4764   */\n      swap5\n      pop\n        /* \"#utility.yul\":4817:4819   */\n      0x60\n        /* \"#utility.yul\":4806:4815   */\n      dup9\n        /* \"#utility.yul\":4802:4820   */\n      add\n        /* \"#utility.yul\":4789:4821   */\n      calldataload\n        /* \"#utility.yul\":4773:4821   */\n      swap2\n      pop\n        /* \"#utility.yul\":4846:4848   */\n      dup1\n        /* \"#utility.yul\":4836:4844   */\n      dup3\n        /* \"#utility.yul\":4833:4849   */\n      gt\n        /* \"#utility.yul\":4830:4866   */\n      iszero\n      tag_278\n      jumpi\n        /* \"#utility.yul\":4862:4863   */\n      0x00\n        /* \"#utility.yul\":4859:4860   */\n      dup1\n        /* \"#utility.yul\":4852:4864   */\n      revert\n        /* \"#utility.yul\":4830:4866   */\n    tag_278:\n        /* \"#utility.yul\":4885:4948   */\n      tag_279\n        /* \"#utility.yul\":4940:4947   */\n      dup10\n        /* \"#utility.yul\":4929:4937   */\n      dup4\n        /* \"#utility.yul\":4918:4927   */\n      dup11\n        /* \"#utility.yul\":4914:4938   */\n      add\n        /* \"#utility.yul\":4885:4948   */\n      tag_224\n      jump\t// in\n    tag_279:\n        /* \"#utility.yul\":4875:4948   */\n      swap4\n      pop\n        /* \"#utility.yul\":5001:5004   */\n      0x80\n        /* \"#utility.yul\":4990:4999   */\n      dup9\n        /* \"#utility.yul\":4986:5005   */\n      add\n        /* \"#utility.yul\":4973:5006   */\n      calldataload\n        /* \"#utility.yul\":4957:5006   */\n      swap2\n      pop\n        /* \"#utility.yul\":5031:5033   */\n      dup1\n        /* \"#utility.yul\":5021:5029   */\n      dup3\n        /* \"#utility.yul\":5018:5034   */\n      gt\n        /* \"#utility.yul\":5015:5051   */\n      iszero\n      tag_280\n      jumpi\n        /* \"#utility.yul\":5047:5048   */\n      0x00\n        /* \"#utility.yul\":5044:5045   */\n      dup1\n        /* \"#utility.yul\":5037:5049   */\n      revert\n        /* \"#utility.yul\":5015:5051   */\n    tag_280:\n      pop\n        /* \"#utility.yul\":5070:5121   */\n      tag_281\n        /* \"#utility.yul\":5113:5120   */\n      dup9\n        /* \"#utility.yul\":5102:5110   */\n      dup3\n        /* \"#utility.yul\":5091:5100   */\n      dup10\n        /* \"#utility.yul\":5087:5111   */\n      add\n        /* \"#utility.yul\":5070:5121   */\n      tag_225\n      jump\t// in\n    tag_281:\n        /* \"#utility.yul\":5060:5121   */\n      swap2\n      pop\n      pop\n        /* \"#utility.yul\":4184:5127   */\n      swap3\n      swap6\n      pop\n      swap3\n      swap6\n      swap1\n      swap4\n      pop\n      jump\t// out\n        /* \"#utility.yul\":5132:6278   */\n    tag_41:\n        /* \"#utility.yul\":5250:5256   */\n      0x00\n        /* \"#utility.yul\":5258:5264   */\n      dup1\n        /* \"#utility.yul\":5311:5313   */\n      0x40\n        /* \"#utility.yul\":5299:5308   */\n      dup4\n        /* \"#utility.yul\":5290:5297   */\n      dup6\n        /* \"#utility.yul\":5286:5309   */\n      sub\n        /* \"#utility.yul\":5282:5314   */\n      slt\n        /* \"#utility.yul\":5279:5331   */\n      iszero\n      tag_283\n      jumpi\n        /* \"#utility.yul\":5327:5328   */\n      0x00\n        /* \"#utility.yul\":5324:5325   */\n      dup1\n        /* \"#utility.yul\":5317:5329   */\n      revert\n        /* \"#utility.yul\":5279:5331   */\n    tag_283:\n        /* \"#utility.yul\":5367:5376   */\n      dup3\n        /* \"#utility.yul\":5354:5377   */\n      calldataload\n        /* \"#utility.yul\":5396:5414   */\n      0xffffffffffffffff\n        /* \"#utility.yul\":5437:5439   */\n      dup1\n        /* \"#utility.yul\":5429:5435   */\n      dup3\n        /* \"#utility.yul\":5426:5440   */\n      gt\n        /* \"#utility.yul\":5423:5457   */\n      iszero\n      tag_284\n      jumpi\n        /* \"#utility.yul\":5453:5454   */\n      0x00\n        /* \"#utility.yul\":5450:5451   */\n      dup1\n        /* \"#utility.yul\":5443:5455   */\n      revert\n        /* \"#utility.yul\":5423:5457   */\n    tag_284:\n        /* \"#utility.yul\":5491:5497   */\n      dup2\n        /* \"#utility.yul\":5480:5489   */\n      dup6\n        /* \"#utility.yul\":5476:5498   */\n      add\n        /* \"#utility.yul\":5466:5498   */\n      swap2\n      pop\n        /* \"#utility.yul\":5536:5543   */\n      dup6\n        /* \"#utility.yul\":5529:5533   */\n      0x1f\n        /* \"#utility.yul\":5525:5527   */\n      dup4\n        /* \"#utility.yul\":5521:5534   */\n      add\n        /* \"#utility.yul\":5517:5544   */\n      slt\n        /* \"#utility.yul\":5507:5562   */\n      tag_285\n      jumpi\n        /* \"#utility.yul\":5558:5559   */\n      0x00\n        /* \"#utility.yul\":5555:5556   */\n      dup1\n        /* \"#utility.yul\":5548:5560   */\n      revert\n        /* \"#utility.yul\":5507:5562   */\n    tag_285:\n        /* \"#utility.yul\":5594:5596   */\n      dup2\n        /* \"#utility.yul\":5581:5597   */\n      calldataload\n        /* \"#utility.yul\":5616:5620   */\n      0x20\n        /* \"#utility.yul\":5640:5700   */\n      tag_286\n        /* \"#utility.yul\":5656:5699   */\n      tag_261\n        /* \"#utility.yul\":5696:5698   */\n      dup4\n        /* \"#utility.yul\":5656:5699   */\n      tag_223\n      jump\t// in\n        /* \"#utility.yul\":5640:5700   */\n    tag_286:\n        /* \"#utility.yul\":5734:5749   */\n      dup3\n      dup2\n      mstore\n        /* \"#utility.yul\":5816:5817   */\n      0x05\n        /* \"#utility.yul\":5812:5822   */\n      swap3\n      swap1\n      swap3\n      shl\n        /* \"#utility.yul\":5804:5823   */\n      dup5\n      add\n        /* \"#utility.yul\":5800:5828   */\n      dup2\n      add\n      swap2\n        /* \"#utility.yul\":5765:5777   */\n      dup2\n      dup2\n      add\n      swap1\n        /* \"#utility.yul\":5840:5859   */\n      dup10\n      dup5\n      gt\n        /* \"#utility.yul\":5837:5876   */\n      iszero\n      tag_288\n      jumpi\n        /* \"#utility.yul\":5872:5873   */\n      0x00\n        /* \"#utility.yul\":5869:5870   */\n      dup1\n        /* \"#utility.yul\":5862:5874   */\n      revert\n        /* \"#utility.yul\":5837:5876   */\n    tag_288:\n        /* \"#utility.yul\":5896:5907   */\n      swap5\n      dup3\n      add\n      swap5\n        /* \"#utility.yul\":5916:6064   */\n    tag_289:\n        /* \"#utility.yul\":5932:5938   */\n      dup4\n        /* \"#utility.yul\":5927:5930   */\n      dup7\n        /* \"#utility.yul\":5924:5939   */\n      lt\n        /* \"#utility.yul\":5916:6064   */\n      iszero\n      tag_291\n      jumpi\n        /* \"#utility.yul\":5998:6021   */\n      tag_292\n        /* \"#utility.yul\":6017:6020   */\n      dup7\n        /* \"#utility.yul\":5998:6021   */\n      tag_219\n      jump\t// in\n    tag_292:\n        /* \"#utility.yul\":5986:6022   */\n      dup3\n      mstore\n        /* \"#utility.yul\":5949:5961   */\n      swap5\n      dup3\n      add\n      swap5\n        /* \"#utility.yul\":6042:6054   */\n      swap1\n      dup3\n      add\n      swap1\n        /* \"#utility.yul\":5916:6064   */\n      jump(tag_289)\n    tag_291:\n        /* \"#utility.yul\":6083:6088   */\n      swap7\n      pop\n      pop\n        /* \"#utility.yul\":6126:6144   */\n      dup7\n      add\n        /* \"#utility.yul\":6113:6145   */\n      calldataload\n      swap3\n      pop\n      pop\n        /* \"#utility.yul\":6157:6173   */\n      dup1\n      dup3\n      gt\n        /* \"#utility.yul\":6154:6190   */\n      iszero\n      tag_293\n      jumpi\n        /* \"#utility.yul\":6186:6187   */\n      0x00\n        /* \"#utility.yul\":6183:6184   */\n      dup1\n        /* \"#utility.yul\":6176:6188   */\n      revert\n        /* \"#utility.yul\":6154:6190   */\n    tag_293:\n      pop\n        /* \"#utility.yul\":6209:6272   */\n      tag_294\n        /* \"#utility.yul\":6264:6271   */\n      dup6\n        /* \"#utility.yul\":6253:6261   */\n      dup3\n        /* \"#utility.yul\":6242:6251   */\n      dup7\n        /* \"#utility.yul\":6238:6262   */\n      add\n        /* \"#utility.yul\":6209:6272   */\n      tag_224\n      jump\t// in\n    tag_294:\n        /* \"#utility.yul\":6199:6272   */\n      swap2\n      pop\n      pop\n        /* \"#utility.yul\":5132:6278   */\n      swap3\n      pop\n      swap3\n      swap1\n      pop\n      jump\t// out\n        /* \"#utility.yul\":6283:6722   */\n    tag_226:\n        /* \"#utility.yul\":6336:6339   */\n      0x00\n        /* \"#utility.yul\":6374:6379   */\n      dup2\n        /* \"#utility.yul\":6368:6380   */\n      mload\n        /* \"#utility.yul\":6401:6407   */\n      dup1\n        /* \"#utility.yul\":6396:6399   */\n      dup5\n        /* \"#utility.yul\":6389:6408   */\n      mstore\n        /* \"#utility.yul\":6427:6431   */\n      0x20\n        /* \"#utility.yul\":6456:6460   */\n      dup1\n        /* \"#utility.yul\":6451:6454   */\n      dup6\n        /* \"#utility.yul\":6447:6461   */\n      add\n        /* \"#utility.yul\":6440:6461   */\n      swap5\n      pop\n        /* \"#utility.yul\":6495:6499   */\n      0x20\n        /* \"#utility.yul\":6488:6493   */\n      dup5\n        /* \"#utility.yul\":6484:6500   */\n      add\n        /* \"#utility.yul\":6518:6519   */\n      0x00\n        /* \"#utility.yul\":6528:6697   */\n    tag_296:\n        /* \"#utility.yul\":6542:6548   */\n      dup4\n        /* \"#utility.yul\":6539:6540   */\n      dup2\n        /* \"#utility.yul\":6536:6549   */\n      lt\n        /* \"#utility.yul\":6528:6697   */\n      iszero\n      tag_298\n      jumpi\n        /* \"#utility.yul\":6603:6616   */\n      dup2\n      mload\n        /* \"#utility.yul\":6591:6617   */\n      dup8\n      mstore\n        /* \"#utility.yul\":6637:6649   */\n      swap6\n      dup3\n      add\n      swap6\n        /* \"#utility.yul\":6672:6687   */\n      swap1\n      dup3\n      add\n      swap1\n        /* \"#utility.yul\":6564:6565   */\n      0x01\n        /* \"#utility.yul\":6557:6566   */\n      add\n        /* \"#utility.yul\":6528:6697   */\n      jump(tag_296)\n    tag_298:\n      pop\n        /* \"#utility.yul\":6713:6716   */\n      swap5\n      swap6\n        /* \"#utility.yul\":6283:6722   */\n      swap5\n      pop\n      pop\n      pop\n      pop\n      pop\n      jump\t// out\n        /* \"#utility.yul\":6727:6988   */\n    tag_44:\n        /* \"#utility.yul\":6906:6908   */\n      0x20\n        /* \"#utility.yul\":6895:6904   */\n      dup2\n        /* \"#utility.yul\":6888:6909   */\n      mstore\n        /* \"#utility.yul\":6869:6873   */\n      0x00\n        /* \"#utility.yul\":6926:6982   */\n      tag_238\n        /* \"#utility.yul\":6978:6980   */\n      0x20\n        /* \"#utility.yul\":6967:6976   */\n      dup4\n        /* \"#utility.yul\":6963:6981   */\n      add\n        /* \"#utility.yul\":6955:6961   */\n      dup5\n        /* \"#utility.yul\":6926:6982   */\n      tag_226\n      jump\t// in\n        /* \"#utility.yul\":6993:7340   */\n    tag_47:\n        /* \"#utility.yul\":7058:7064   */\n      0x00\n        /* \"#utility.yul\":7066:7072   */\n      dup1\n        /* \"#utility.yul\":7119:7121   */\n      0x40\n        /* \"#utility.yul\":7107:7116   */\n      dup4\n        /* \"#utility.yul\":7098:7105   */\n      dup6\n        /* \"#utility.yul\":7094:7117   */\n      sub\n        /* \"#utility.yul\":7090:7122   */\n      slt\n        /* \"#utility.yul\":7087:7139   */\n      iszero\n      tag_302\n      jumpi\n        /* \"#utility.yul\":7135:7136   */\n      0x00\n        /* \"#utility.yul\":7132:7133   */\n      dup1\n        /* \"#utility.yul\":7125:7137   */\n      revert\n        /* \"#utility.yul\":7087:7139   */\n    tag_302:\n        /* \"#utility.yul\":7158:7187   */\n      tag_303\n        /* \"#utility.yul\":7177:7186   */\n      dup4\n        /* \"#utility.yul\":7158:7187   */\n      tag_219\n      jump\t// in\n    tag_303:\n        /* \"#utility.yul\":7148:7187   */\n      swap2\n      pop\n        /* \"#utility.yul\":7237:7239   */\n      0x20\n        /* \"#utility.yul\":7226:7235   */\n      dup4\n        /* \"#utility.yul\":7222:7240   */\n      add\n        /* \"#utility.yul\":7209:7241   */\n      calldataload\n        /* \"#utility.yul\":7284:7289   */\n      dup1\n        /* \"#utility.yul\":7277:7290   */\n      iszero\n        /* \"#utility.yul\":7270:7291   */\n      iszero\n        /* \"#utility.yul\":7263:7268   */\n      dup2\n        /* \"#utility.yul\":7260:7292   */\n      eq\n        /* \"#utility.yul\":7250:7310   */\n      tag_304\n      jumpi\n        /* \"#utility.yul\":7306:7307   */\n      0x00\n        /* \"#utility.yul\":7303:7304   */\n      dup1\n        /* \"#utility.yul\":7296:7308   */\n      revert\n        /* \"#utility.yul\":7250:7310   */\n    tag_304:\n        /* \"#utility.yul\":7329:7334   */\n      dup1\n        /* \"#utility.yul\":7319:7334   */\n      swap2\n      pop\n      pop\n        /* \"#utility.yul\":6993:7340   */\n      swap3\n      pop\n      swap3\n      swap1\n      pop\n      jump\t// out\n        /* \"#utility.yul\":7345:7605   */\n    tag_51:\n        /* \"#utility.yul\":7413:7419   */\n      0x00\n        /* \"#utility.yul\":7421:7427   */\n      dup1\n        /* \"#utility.yul\":7474:7476   */\n      0x40\n        /* \"#utility.yul\":7462:7471   */\n      dup4\n        /* \"#utility.yul\":7453:7460   */\n      dup6\n        /* \"#utility.yul\":7449:7472   */\n      sub\n        /* \"#utility.yul\":7445:7477   */\n      slt\n        /* \"#utility.yul\":7442:7494   */\n      iszero\n      tag_306\n      jumpi\n        /* \"#utility.yul\":7490:7491   */\n      0x00\n        /* \"#utility.yul\":7487:7488   */\n      dup1\n        /* \"#utility.yul\":7480:7492   */\n      revert\n        /* \"#utility.yul\":7442:7494   */\n    tag_306:\n        /* \"#utility.yul\":7513:7542   */\n      tag_307\n        /* \"#utility.yul\":7532:7541   */\n      dup4\n        /* \"#utility.yul\":7513:7542   */\n      tag_219\n      jump\t// in\n    tag_307:\n        /* \"#utility.yul\":7503:7542   */\n      swap2\n      pop\n        /* \"#utility.yul\":7561:7599   */\n      tag_308\n        /* \"#utility.yul\":7595:7597   */\n      0x20\n        /* \"#utility.yul\":7584:7593   */\n      dup5\n        /* \"#utility.yul\":7580:7598   */\n      add\n        /* \"#utility.yul\":7561:7599   */\n      tag_219\n      jump\t// in\n    tag_308:\n        /* \"#utility.yul\":7551:7599   */\n      swap1\n      pop\n        /* \"#utility.yul\":7345:7605   */\n      swap3\n      pop\n      swap3\n      swap1\n      pop\n      jump\t// out\n        /* \"#utility.yul\":7610:8216   */\n    tag_56:\n        /* \"#utility.yul\":7714:7720   */\n      0x00\n        /* \"#utility.yul\":7722:7728   */\n      dup1\n        /* \"#utility.yul\":7730:7736   */\n      0x00\n        /* \"#utility.yul\":7738:7744   */\n      dup1\n        /* \"#utility.yul\":7746:7752   */\n      0x00\n        /* \"#utility.yul\":7799:7802   */\n      0xa0\n        /* \"#utility.yul\":7787:7796   */\n      dup7\n        /* \"#utility.yul\":7778:7785   */\n      dup9\n        /* \"#utility.yul\":7774:7797   */\n      sub\n        /* \"#utility.yul\":7770:7803   */\n      slt\n        /* \"#utility.yul\":7767:7820   */\n      iszero\n      tag_310\n      jumpi\n        /* \"#utility.yul\":7816:7817   */\n      0x00\n        /* \"#utility.yul\":7813:7814   */\n      dup1\n        /* \"#utility.yul\":7806:7818   */\n      revert\n        /* \"#utility.yul\":7767:7820   */\n    tag_310:\n        /* \"#utility.yul\":7839:7868   */\n      tag_311\n        /* \"#utility.yul\":7858:7867   */\n      dup7\n        /* \"#utility.yul\":7839:7868   */\n      tag_219\n      jump\t// in\n    tag_311:\n        /* \"#utility.yul\":7829:7868   */\n      swap5\n      pop\n        /* \"#utility.yul\":7887:7925   */\n      tag_312\n        /* \"#utility.yul\":7921:7923   */\n      0x20\n        /* \"#utility.yul\":7910:7919   */\n      dup8\n        /* \"#utility.yul\":7906:7924   */\n      add\n        /* \"#utility.yul\":7887:7925   */\n      tag_219\n      jump\t// in\n    tag_312:\n        /* \"#utility.yul\":7877:7925   */\n      swap4\n      pop\n        /* \"#utility.yul\":7972:7974   */\n      0x40\n        /* \"#utility.yul\":7961:7970   */\n      dup7\n        /* \"#utility.yul\":7957:7975   */\n      add\n        /* \"#utility.yul\":7944:7976   */\n      calldataload\n        /* \"#utility.yul\":7934:7976   */\n      swap3\n      pop\n        /* \"#utility.yul\":8023:8025   */\n      0x60\n        /* \"#utility.yul\":8012:8021   */\n      dup7\n        /* \"#utility.yul\":8008:8026   */\n      add\n        /* \"#utility.yul\":7995:8027   */\n      calldataload\n        /* \"#utility.yul\":7985:8027   */\n      swap2\n      pop\n        /* \"#utility.yul\":8078:8081   */\n      0x80\n        /* \"#utility.yul\":8067:8076   */\n      dup7\n        /* \"#utility.yul\":8063:8082   */\n      add\n        /* \"#utility.yul\":8050:8083   */\n      calldataload\n        /* \"#utility.yul\":8106:8124   */\n      0xffffffffffffffff\n        /* \"#utility.yul\":8098:8104   */\n      dup2\n        /* \"#utility.yul\":8095:8125   */\n      gt\n        /* \"#utility.yul\":8092:8142   */\n      iszero\n      tag_313\n      jumpi\n        /* \"#utility.yul\":8138:8139   */\n      0x00\n        /* \"#utility.yul\":8135:8136   */\n      dup1\n        /* \"#utility.yul\":8128:8140   */\n      revert\n        /* \"#utility.yul\":8092:8142   */\n    tag_313:\n        /* \"#utility.yul\":8161:8210   */\n      tag_281\n        /* \"#utility.yul\":8202:8209   */\n      dup9\n        /* \"#utility.yul\":8193:8199   */\n      dup3\n        /* \"#utility.yul\":8182:8191   */\n      dup10\n        /* \"#utility.yul\":8178:8200   */\n      add\n        /* \"#utility.yul\":8161:8210   */\n      tag_225\n      jump\t// in\n        /* \"#utility.yul\":8221:8601   */\n    tag_66:\n        /* \"#utility.yul\":8300:8301   */\n      0x01\n        /* \"#utility.yul\":8296:8308   */\n      dup2\n      dup2\n      shr\n      swap1\n        /* \"#utility.yul\":8343:8355   */\n      dup3\n      and\n      dup1\n        /* \"#utility.yul\":8364:8425   */\n      tag_316\n      jumpi\n        /* \"#utility.yul\":8418:8422   */\n      0x7f\n        /* \"#utility.yul\":8410:8416   */\n      dup3\n        /* \"#utility.yul\":8406:8423   */\n      and\n        /* \"#utility.yul\":8396:8423   */\n      swap2\n      pop\n        /* \"#utility.yul\":8364:8425   */\n    tag_316:\n        /* \"#utility.yul\":8471:8473   */\n      0x20\n        /* \"#utility.yul\":8463:8469   */\n      dup3\n        /* \"#utility.yul\":8460:8474   */\n      lt\n        /* \"#utility.yul\":8440:8458   */\n      dup2\n        /* \"#utility.yul\":8437:8475   */\n      sub\n        /* \"#utility.yul\":8434:8595   */\n      tag_317\n      jumpi\n        /* \"#utility.yul\":8517:8527   */\n      0x4e487b71\n        /* \"#utility.yul\":8512:8515   */\n      0xe0\n        /* \"#utility.yul\":8508:8528   */\n      shl\n        /* \"#utility.yul\":8505:8506   */\n      0x00\n        /* \"#utility.yul\":8498:8529   */\n      mstore\n        /* \"#utility.yul\":8552:8556   */\n      0x22\n        /* \"#utility.yul\":8549:8550   */\n      0x04\n        /* \"#utility.yul\":8542:8557   */\n      mstore\n        /* \"#utility.yul\":8580:8584   */\n      0x24\n        /* \"#utility.yul\":8577:8578   */\n      0x00\n        /* \"#utility.yul\":8570:8585   */\n      revert\n        /* \"#utility.yul\":8434:8595   */\n    tag_317:\n      pop\n        /* \"#utility.yul\":8221:8601   */\n      swap2\n      swap1\n      pop\n      jump\t// out\n        /* \"#utility.yul\":9168:9295   */\n    tag_102:\n        /* \"#utility.yul\":9229:9239   */\n      0x4e487b71\n        /* \"#utility.yul\":9224:9227   */\n      0xe0\n        /* \"#utility.yul\":9220:9240   */\n      shl\n        /* \"#utility.yul\":9217:9218   */\n      0x00\n        /* \"#utility.yul\":9210:9241   */\n      mstore\n        /* \"#utility.yul\":9260:9264   */\n      0x32\n        /* \"#utility.yul\":9257:9258   */\n      0x04\n        /* \"#utility.yul\":9250:9265   */\n      mstore\n        /* \"#utility.yul\":9284:9288   */\n      0x24\n        /* \"#utility.yul\":9281:9282   */\n      0x00\n        /* \"#utility.yul\":9274:9289   */\n      revert\n        /* \"#utility.yul\":9930:10152   */\n    tag_174:\n        /* \"#utility.yul\":9995:10004   */\n      dup1\n      dup3\n      add\n        /* \"#utility.yul\":10016:10026   */\n      dup1\n      dup3\n      gt\n        /* \"#utility.yul\":10013:10146   */\n      iszero\n      tag_58\n      jumpi\n        /* \"#utility.yul\":10068:10078   */\n      0x4e487b71\n        /* \"#utility.yul\":10063:10066   */\n      0xe0\n        /* \"#utility.yul\":10059:10079   */\n      shl\n        /* \"#utility.yul\":10056:10057   */\n      0x00\n        /* \"#utility.yul\":10049:10080   */\n      mstore\n        /* \"#utility.yul\":10103:10107   */\n      0x11\n        /* \"#utility.yul\":10100:10101   */\n      0x04\n        /* \"#utility.yul\":10093:10108   */\n      mstore\n        /* \"#utility.yul\":10131:10135   */\n      0x24\n        /* \"#utility.yul\":10128:10129   */\n      0x00\n        /* \"#utility.yul\":10121:10136   */\n      revert\n        /* \"#utility.yul\":10157:10622   */\n    tag_181:\n        /* \"#utility.yul\":10414:10416   */\n      0x40\n        /* \"#utility.yul\":10403:10412   */\n      dup2\n        /* \"#utility.yul\":10396:10417   */\n      mstore\n        /* \"#utility.yul\":10377:10381   */\n      0x00\n        /* \"#utility.yul\":10440:10496   */\n      tag_326\n        /* \"#utility.yul\":10492:10494   */\n      0x40\n        /* \"#utility.yul\":10481:10490   */\n      dup4\n        /* \"#utility.yul\":10477:10495   */\n      add\n        /* \"#utility.yul\":10469:10475   */\n      dup6\n        /* \"#utility.yul\":10440:10496   */\n      tag_226\n      jump\t// in\n    tag_326:\n        /* \"#utility.yul\":10544:10553   */\n      dup3\n        /* \"#utility.yul\":10536:10542   */\n      dup2\n        /* \"#utility.yul\":10532:10554   */\n      sub\n        /* \"#utility.yul\":10527:10529   */\n      0x20\n        /* \"#utility.yul\":10516:10525   */\n      dup5\n        /* \"#utility.yul\":10512:10530   */\n      add\n        /* \"#utility.yul\":10505:10555   */\n      mstore\n        /* \"#utility.yul\":10572:10616   */\n      tag_327\n        /* \"#utility.yul\":10609:10615   */\n      dup2\n        /* \"#utility.yul\":10601:10607   */\n      dup6\n        /* \"#utility.yul\":10572:10616   */\n      tag_226\n      jump\t// in\n    tag_327:\n        /* \"#utility.yul\":10564:10616   */\n      swap6\n        /* \"#utility.yul\":10157:10622   */\n      swap5\n      pop\n      pop\n      pop\n      pop\n      pop\n      jump\t// out\n        /* \"#utility.yul\":10627:11188   */\n    tag_185:\n      sub(shl(0xa0, 0x01), 0x01)\n        /* \"#utility.yul\":10924:10939   */\n      dup7\n      dup2\n      and\n        /* \"#utility.yul\":10906:10940   */\n      dup3\n      mstore\n        /* \"#utility.yul\":10976:10991   */\n      dup6\n      and\n        /* \"#utility.yul\":10971:10973   */\n      0x20\n        /* \"#utility.yul\":10956:10974   */\n      dup3\n      add\n        /* \"#utility.yul\":10949:10992   */\n      mstore\n        /* \"#utility.yul\":11023:11025   */\n      0x40\n        /* \"#utility.yul\":11008:11026   */\n      dup2\n      add\n        /* \"#utility.yul\":11001:11035   */\n      dup5\n      swap1\n      mstore\n        /* \"#utility.yul\":11066:11068   */\n      0x60\n        /* \"#utility.yul\":11051:11069   */\n      dup2\n      add\n        /* \"#utility.yul\":11044:11078   */\n      dup4\n      swap1\n      mstore\n        /* \"#utility.yul\":10886:10889   */\n      0xa0\n        /* \"#utility.yul\":11109:11112   */\n      0x80\n        /* \"#utility.yul\":11094:11113   */\n      dup3\n      add\n        /* \"#utility.yul\":11087:11119   */\n      dup2\n      swap1\n      mstore\n        /* \"#utility.yul\":10849:10853   */\n      0x00\n      swap1\n        /* \"#utility.yul\":11136:11182   */\n      tag_329\n      swap1\n        /* \"#utility.yul\":11162:11181   */\n      dup4\n      add\n        /* \"#utility.yul\":11154:11160   */\n      dup5\n        /* \"#utility.yul\":11136:11182   */\n      tag_221\n      jump\t// in\n    tag_329:\n        /* \"#utility.yul\":11128:11182   */\n      swap8\n        /* \"#utility.yul\":10627:11188   */\n      swap7\n      pop\n      pop\n      pop\n      pop\n      pop\n      pop\n      pop\n      jump\t// out\n        /* \"#utility.yul\":11193:11442   */\n    tag_188:\n        /* \"#utility.yul\":11262:11268   */\n      0x00\n        /* \"#utility.yul\":11315:11317   */\n      0x20\n        /* \"#utility.yul\":11303:11312   */\n      dup3\n        /* \"#utility.yul\":11294:11301   */\n      dup5\n        /* \"#utility.yul\":11290:11313   */\n      sub\n        /* \"#utility.yul\":11286:11318   */\n      slt\n        /* \"#utility.yul\":11283:11335   */\n      iszero\n      tag_331\n      jumpi\n        /* \"#utility.yul\":11331:11332   */\n      0x00\n        /* \"#utility.yul\":11328:11329   */\n      dup1\n        /* \"#utility.yul\":11321:11333   */\n      revert\n        /* \"#utility.yul\":11283:11335   */\n    tag_331:\n        /* \"#utility.yul\":11363:11372   */\n      dup2\n        /* \"#utility.yul\":11357:11373   */\n      mload\n        /* \"#utility.yul\":11382:11412   */\n      tag_238\n        /* \"#utility.yul\":11406:11411   */\n      dup2\n        /* \"#utility.yul\":11382:11412   */\n      tag_220\n      jump\t// in\n        /* \"#utility.yul\":11447:12274   */\n    tag_204:\n      sub(shl(0xa0, 0x01), 0x01)\n        /* \"#utility.yul\":11844:11859   */\n      dup7\n      dup2\n      and\n        /* \"#utility.yul\":11826:11860   */\n      dup3\n      mstore\n        /* \"#utility.yul\":11896:11911   */\n      dup6\n      and\n        /* \"#utility.yul\":11891:11893   */\n      0x20\n        /* \"#utility.yul\":11876:11894   */\n      dup3\n      add\n        /* \"#utility.yul\":11869:11912   */\n      mstore\n        /* \"#utility.yul\":11806:11809   */\n      0xa0\n        /* \"#utility.yul\":11943:11945   */\n      0x40\n        /* \"#utility.yul\":11928:11946   */\n      dup3\n      add\n        /* \"#utility.yul\":11921:11952   */\n      dup2\n      swap1\n      mstore\n        /* \"#utility.yul\":11769:11773   */\n      0x00\n      swap1\n        /* \"#utility.yul\":11975:12032   */\n      tag_334\n      swap1\n        /* \"#utility.yul\":12012:12031   */\n      dup4\n      add\n        /* \"#utility.yul\":12004:12010   */\n      dup7\n        /* \"#utility.yul\":11975:12032   */\n      tag_226\n      jump\t// in\n    tag_334:\n        /* \"#utility.yul\":12080:12089   */\n      dup3\n        /* \"#utility.yul\":12072:12078   */\n      dup2\n        /* \"#utility.yul\":12068:12090   */\n      sub\n        /* \"#utility.yul\":12063:12065   */\n      0x60\n        /* \"#utility.yul\":12052:12061   */\n      dup5\n        /* \"#utility.yul\":12048:12066   */\n      add\n        /* \"#utility.yul\":12041:12091   */\n      mstore\n        /* \"#utility.yul\":12114:12158   */\n      tag_335\n        /* \"#utility.yul\":12151:12157   */\n      dup2\n        /* \"#utility.yul\":12143:12149   */\n      dup7\n        /* \"#utility.yul\":12114:12158   */\n      tag_226\n      jump\t// in\n    tag_335:\n        /* \"#utility.yul\":12100:12158   */\n      swap1\n      pop\n        /* \"#utility.yul\":12207:12216   */\n      dup3\n        /* \"#utility.yul\":12199:12205   */\n      dup2\n        /* \"#utility.yul\":12195:12217   */\n      sub\n        /* \"#utility.yul\":12189:12192   */\n      0x80\n        /* \"#utility.yul\":12178:12187   */\n      dup5\n        /* \"#utility.yul\":12174:12193   */\n      add\n        /* \"#utility.yul\":12167:12218   */\n      mstore\n        /* \"#utility.yul\":12235:12268   */\n      tag_336\n        /* \"#utility.yul\":12261:12267   */\n      dup2\n        /* \"#utility.yul\":12253:12259   */\n      dup6\n        /* \"#utility.yul\":12235:12268   */\n      tag_221\n      jump\t// in\n    tag_336:\n        /* \"#utility.yul\":12227:12268   */\n      swap9\n        /* \"#utility.yul\":11447:12274   */\n      swap8\n      pop\n      pop\n      pop\n      pop\n      pop\n      pop\n      pop\n      pop\n      jump\t// out\n\n    auxdata: 0xa26469706673582212208ac2e9740ba79611762983bff00f7a7c2c6fbb661512908a54df62f39b37d73e64736f6c63430008170033\n}\n",
				"bytecode": {
					"linkReferences": {},
					"object": "60806040523480156200001157600080fd5b506040805180820190915260078152666d6f636b55524960c81b60208201526200003b81620000b1565b5062000073336001678ac7230489e8000060405180604001604052806002815260200161060f60f31b815250620000c360201b60201c565b620000ab6065600167016345785d8a000060405180604001604052806002815260200161060f60f31b815250620000c360201b60201c565b62000911565b6002620000bf828262000687565b5050565b6001600160a01b038416620000f357604051632bfa23e760e11b8152600060048201526024015b60405180910390fd5b604080516001808252602082018690528183019081526060820185905260808201909252906200012860008784848762000130565b505050505050565b6200013e8585858562000193565b6001600160a01b038416156200018c57825133906001036200017c576020848101519084015162000174838989858589620003b6565b505062000128565b62000128818787878787620004f0565b5050505050565b8051825114620001c45781518151604051635b05999160e01b815260048101929092526024820152604401620000ea565b3360005b8351811015620002d2576020818102858101820151908501909101516001600160a01b038816156200027f576000828152602081815260408083206001600160a01b038c1684529091529020548181101562000258576040516303dee4c560e01b81526001600160a01b038a166004820152602481018290526044810183905260648101849052608401620000ea565b6000838152602081815260408083206001600160a01b038d16845290915290209082900390555b6001600160a01b03871615620002c7576000828152602081815260408083206001600160a01b038b16845290915281208054839290620002c190849062000753565b90915550505b5050600101620001c8565b508251600103620003565760208301516000906020840151909150856001600160a01b0316876001600160a01b0316846001600160a01b03167fc3d58168c5ae7397731d063d5bbf3d657854427343f4c083240f7aacaa2d0f62858560405162000346929190918252602082015260400190565b60405180910390a450506200018c565b836001600160a01b0316856001600160a01b0316826001600160a01b03167f4a39dc06d4c0dbc64b70af90fd698a233a518aa5d07e595d983b8c0526c8f7fb8686604051620003a7929190620007b9565b60405180910390a45050505050565b6001600160a01b0384163b15620001285760405163f23a6e6160e01b81526001600160a01b0385169063f23a6e6190620003fd908990899088908890889060040162000833565b6020604051808303816000875af19250505080156200043b575060408051601f3d908101601f1916820190925262000438918101906200087a565b60015b620004a9573d8080156200046c576040519150601f19603f3d011682016040523d82523d6000602084013e62000471565b606091505b508051600003620004a157604051632bfa23e760e11b81526001600160a01b0386166004820152602401620000ea565b805181602001fd5b6001600160e01b0319811663f23a6e6160e01b14620004e757604051632bfa23e760e11b81526001600160a01b0386166004820152602401620000ea565b50505050505050565b6001600160a01b0384163b15620001285760405163bc197c8160e01b81526001600160a01b0385169063bc197c8190620005379089908990889088908890600401620008ad565b6020604051808303816000875af192505050801562000575575060408051601f3d908101601f1916820190925262000572918101906200087a565b60015b620005a6573d8080156200046c576040519150601f19603f3d011682016040523d82523d6000602084013e62000471565b6001600160e01b0319811663bc197c8160e01b14620004e757604051632bfa23e760e11b81526001600160a01b0386166004820152602401620000ea565b634e487b7160e01b600052604160045260246000fd5b600181811c908216806200060f57607f821691505b6020821081036200063057634e487b7160e01b600052602260045260246000fd5b50919050565b601f82111562000682576000816000526020600020601f850160051c81016020861015620006615750805b601f850160051c820191505b8181101562000128578281556001016200066d565b505050565b81516001600160401b03811115620006a357620006a3620005e4565b620006bb81620006b48454620005fa565b8462000636565b602080601f831160018114620006f35760008415620006da5750858301515b600019600386901b1c1916600185901b17855562000128565b600085815260208120601f198616915b82811015620007245788860151825594840194600190910190840162000703565b5085821015620007435787850151600019600388901b60f8161c191681555b5050505050600190811b01905550565b808201808211156200077557634e487b7160e01b600052601160045260246000fd5b92915050565b60008151808452602080850194506020840160005b83811015620007ae5781518752958201959082019060010162000790565b509495945050505050565b604081526000620007ce60408301856200077b565b8281036020840152620007e281856200077b565b95945050505050565b6000815180845260005b818110156200081357602081850181015186830182015201620007f5565b506000602082860101526020601f19601f83011685010191505092915050565b6001600160a01b03868116825285166020820152604081018490526060810183905260a0608082018190526000906200086f90830184620007eb565b979650505050505050565b6000602082840312156200088d57600080fd5b81516001600160e01b031981168114620008a657600080fd5b9392505050565b6001600160a01b0386811682528516602082015260a060408201819052600090620008db908301866200077b565b8281036060840152620008ef81866200077b565b90508281036080840152620009058185620007eb565b98975050505050505050565b61117d80620009216000396000f3fe608060405234801561001057600080fd5b50600436106100925760003560e01c80632eb2c2d6116100665780632eb2c2d6146101155780634e1273f414610128578063a22cb46514610148578063e985e9c51461015b578063f242432a1461016e57600080fd5b8062fdd58e1461009757806301ffc9a7146100bd5780630e89341c146100e0578063156e29f614610100575b600080fd5b6100aa6100a5366004610b05565b610181565b6040519081526020015b60405180910390f35b6100d06100cb366004610b48565b6101a9565b60405190151581526020016100b4565b6100f36100ee366004610b6c565b6101f9565b6040516100b49190610bcb565b61011361010e366004610bde565b61028d565b005b610113610123366004610d5b565b6102b8565b61013b610136366004610e05565b610324565b6040516100b49190610f01565b610113610156366004610f14565b6103f1565b6100d0610169366004610f50565b610400565b61011361017c366004610f83565b61042e565b6000818152602081815260408083206001600160a01b03861684529091529020545b92915050565b60006001600160e01b03198216636cdb3d1360e11b14806101da57506001600160e01b031982166303a24d0760e21b145b806101a357506301ffc9a760e01b6001600160e01b03198316146101a3565b60606002805461020890610fe8565b80601f016020809104026020016040519081016040528092919081815260200182805461023490610fe8565b80156102815780601f1061025657610100808354040283529160200191610281565b820191906000526020600020905b81548152906001019060200180831161026457829003601f168201915b50505050509050919050565b6102b383838360405180604001604052806002815260200161060f60f31b81525061048d565b505050565b336001600160a01b03861681148015906102d957506102d78682610400565b155b1561030f5760405163711bec9160e11b81526001600160a01b038083166004830152871660248201526044015b60405180910390fd5b61031c86868686866104ea565b505050505050565b606081518351146103555781518351604051635b05999160e01b815260048101929092526024820152604401610306565b6000835167ffffffffffffffff81111561037157610371610c11565b60405190808252806020026020018201604052801561039a578160200160208202803683370190505b50905060005b84518110156103e9576020808202860101516103c490602080840287010151610181565b8282815181106103d6576103d6611022565b60209081029190910101526001016103a0565b509392505050565b6103fc338383610551565b5050565b6001600160a01b03918216600090815260016020908152604080832093909416825291909152205460ff1690565b336001600160a01b038616811480159061044f575061044d8682610400565b155b156104805760405163711bec9160e11b81526001600160a01b03808316600483015287166024820152604401610306565b61031c86868686866105e7565b6001600160a01b0384166104b757604051632bfa23e760e11b815260006004820152602401610306565b6040805160018082526020820186905281830190815260608201859052608082019092529061031c600087848487610675565b6001600160a01b03841661051457604051632bfa23e760e11b815260006004820152602401610306565b6001600160a01b03851661053d57604051626a0d4560e21b815260006004820152602401610306565b61054a8585858585610675565b5050505050565b6001600160a01b03821661057a5760405162ced3e160e81b815260006004820152602401610306565b6001600160a01b03838116600081815260016020908152604080832094871680845294825291829020805460ff191686151590811790915591519182527f17307eab39ab6107e8899845ad3d59bd9653f200f220920489ca2b5937696c31910160405180910390a3505050565b6001600160a01b03841661061157604051632bfa23e760e11b815260006004820152602401610306565b6001600160a01b03851661063a57604051626a0d4560e21b815260006004820152602401610306565b6040805160018082526020820186905281830190815260608201859052608082019092529061066c8787848487610675565b50505050505050565b610681858585856106c8565b6001600160a01b0384161561054a57825133906001036106ba57602084810151908401516106b38389898585896108dc565b505061031c565b61031c818787878787610a00565b80518251146106f75781518151604051635b05999160e01b815260048101929092526024820152604401610306565b3360005b83518110156107fd576020818102858101820151908501909101516001600160a01b038816156107ae576000828152602081815260408083206001600160a01b038c16845290915290205481811015610787576040516303dee4c560e01b81526001600160a01b038a166004820152602481018290526044810183905260648101849052608401610306565b6000838152602081815260408083206001600160a01b038d16845290915290209082900390555b6001600160a01b038716156107f3576000828152602081815260408083206001600160a01b038b168452909152812080548392906107ed908490611038565b90915550505b50506001016106fb565b50825160010361087e5760208301516000906020840151909150856001600160a01b0316876001600160a01b0316846001600160a01b03167fc3d58168c5ae7397731d063d5bbf3d657854427343f4c083240f7aacaa2d0f62858560405161086f929190918252602082015260400190565b60405180910390a4505061054a565b836001600160a01b0316856001600160a01b0316826001600160a01b03167f4a39dc06d4c0dbc64b70af90fd698a233a518aa5d07e595d983b8c0526c8f7fb86866040516108cd929190611059565b60405180910390a45050505050565b6001600160a01b0384163b1561031c5760405163f23a6e6160e01b81526001600160a01b0385169063f23a6e61906109209089908990889088908890600401611087565b6020604051808303816000875af192505050801561095b575060408051601f3d908101601f19168201909252610958918101906110cc565b60015b6109c4573d808015610989576040519150601f19603f3d011682016040523d82523d6000602084013e61098e565b606091505b5080516000036109bc57604051632bfa23e760e11b81526001600160a01b0386166004820152602401610306565b805181602001fd5b6001600160e01b0319811663f23a6e6160e01b1461066c57604051632bfa23e760e11b81526001600160a01b0386166004820152602401610306565b6001600160a01b0384163b1561031c5760405163bc197c8160e01b81526001600160a01b0385169063bc197c8190610a4490899089908890889088906004016110e9565b6020604051808303816000875af1925050508015610a7f575060408051601f3d908101601f19168201909252610a7c918101906110cc565b60015b610aad573d808015610989576040519150601f19603f3d011682016040523d82523d6000602084013e61098e565b6001600160e01b0319811663bc197c8160e01b1461066c57604051632bfa23e760e11b81526001600160a01b0386166004820152602401610306565b80356001600160a01b0381168114610b0057600080fd5b919050565b60008060408385031215610b1857600080fd5b610b2183610ae9565b946020939093013593505050565b6001600160e01b031981168114610b4557600080fd5b50565b600060208284031215610b5a57600080fd5b8135610b6581610b2f565b9392505050565b600060208284031215610b7e57600080fd5b5035919050565b6000815180845260005b81811015610bab57602081850181015186830182015201610b8f565b506000602082860101526020601f19601f83011685010191505092915050565b602081526000610b656020830184610b85565b600080600060608486031215610bf357600080fd5b610bfc84610ae9565b95602085013595506040909401359392505050565b634e487b7160e01b600052604160045260246000fd5b604051601f8201601f1916810167ffffffffffffffff81118282101715610c5057610c50610c11565b604052919050565b600067ffffffffffffffff821115610c7257610c72610c11565b5060051b60200190565b600082601f830112610c8d57600080fd5b81356020610ca2610c9d83610c58565b610c27565b8083825260208201915060208460051b870101935086841115610cc457600080fd5b602086015b84811015610ce05780358352918301918301610cc9565b509695505050505050565b600082601f830112610cfc57600080fd5b813567ffffffffffffffff811115610d1657610d16610c11565b610d29601f8201601f1916602001610c27565b818152846020838601011115610d3e57600080fd5b816020850160208301376000918101602001919091529392505050565b600080600080600060a08688031215610d7357600080fd5b610d7c86610ae9565b9450610d8a60208701610ae9565b9350604086013567ffffffffffffffff80821115610da757600080fd5b610db389838a01610c7c565b94506060880135915080821115610dc957600080fd5b610dd589838a01610c7c565b93506080880135915080821115610deb57600080fd5b50610df888828901610ceb565b9150509295509295909350565b60008060408385031215610e1857600080fd5b823567ffffffffffffffff80821115610e3057600080fd5b818501915085601f830112610e4457600080fd5b81356020610e54610c9d83610c58565b82815260059290921b84018101918181019089841115610e7357600080fd5b948201945b83861015610e9857610e8986610ae9565b82529482019490820190610e78565b96505086013592505080821115610eae57600080fd5b50610ebb85828601610c7c565b9150509250929050565b60008151808452602080850194506020840160005b83811015610ef657815187529582019590820190600101610eda565b509495945050505050565b602081526000610b656020830184610ec5565b60008060408385031215610f2757600080fd5b610f3083610ae9565b915060208301358015158114610f4557600080fd5b809150509250929050565b60008060408385031215610f6357600080fd5b610f6c83610ae9565b9150610f7a60208401610ae9565b90509250929050565b600080600080600060a08688031215610f9b57600080fd5b610fa486610ae9565b9450610fb260208701610ae9565b93506040860135925060608601359150608086013567ffffffffffffffff811115610fdc57600080fd5b610df888828901610ceb565b600181811c90821680610ffc57607f821691505b60208210810361101c57634e487b7160e01b600052602260045260246000fd5b50919050565b634e487b7160e01b600052603260045260246000fd5b808201808211156101a357634e487b7160e01b600052601160045260246000fd5b60408152600061106c6040830185610ec5565b828103602084015261107e8185610ec5565b95945050505050565b6001600160a01b03868116825285166020820152604081018490526060810183905260a0608082018190526000906110c190830184610b85565b979650505050505050565b6000602082840312156110de57600080fd5b8151610b6581610b2f565b6001600160a01b0386811682528516602082015260a06040820181905260009061111590830186610ec5565b82810360608401526111278186610ec5565b9050828103608084015261113b8185610b85565b9897505050505050505056fea26469706673582212208ac2e9740ba79611762983bff00f7a7c2c6fbb661512908a54df62f39b37d73e64736f6c63430008170033",
					"opcodes": "PUSH1 0x80 PUSH1 0x40 MSTORE CALLVALUE DUP1 ISZERO PUSH3 0x11 JUMPI PUSH1 0x0 DUP1 REVERT JUMPDEST POP PUSH1 0x40 DUP1 MLOAD DUP1 DUP3 ADD SWAP1 SWAP2 MSTORE PUSH1 0x7 DUP2 MSTORE PUSH7 0x6D6F636B555249 PUSH1 0xC8 SHL PUSH1 0x20 DUP3 ADD MSTORE PUSH3 0x3B DUP2 PUSH3 0xB1 JUMP JUMPDEST POP PUSH3 0x73 CALLER PUSH1 0x1 PUSH8 0x8AC7230489E80000 PUSH1 0x40 MLOAD DUP1 PUSH1 0x40 ADD PUSH1 0x40 MSTORE DUP1 PUSH1 0x2 DUP2 MSTORE PUSH1 0x20 ADD PUSH2 0x60F PUSH1 0xF3 SHL DUP2 MSTORE POP PUSH3 0xC3 PUSH1 0x20 SHL PUSH1 0x20 SHR JUMP JUMPDEST PUSH3 0xAB PUSH1 0x65 PUSH1 0x1 PUSH8 0x16345785D8A0000 PUSH1 0x40 MLOAD DUP1 PUSH1 0x40 ADD PUSH1 0x40 MSTORE DUP1 PUSH1 0x2 DUP2 MSTORE PUSH1 0x20 ADD PUSH2 0x60F PUSH1 0xF3 SHL DUP2 MSTORE POP PUSH3 0xC3 PUSH1 0x20 SHL PUSH1 0x20 SHR JUMP JUMPDEST PUSH3 0x911 JUMP JUMPDEST PUSH1 0x2 PUSH3 0xBF DUP3 DUP3 PUSH3 0x687 JUMP JUMPDEST POP POP JUMP JUMPDEST PUSH1 0x1 PUSH1 0x1 PUSH1 0xA0 SHL SUB DUP5 AND PUSH3 0xF3 JUMPI PUSH1 0x40 MLOAD PUSH4 0x2BFA23E7 PUSH1 0xE1 SHL DUP2 MSTORE PUSH1 0x0 PUSH1 0x4 DUP3 ADD MSTORE PUSH1 0x24 ADD JUMPDEST PUSH1 0x40 MLOAD DUP1 SWAP2 SUB SWAP1 REVERT JUMPDEST PUSH1 0x40 DUP1 MLOAD PUSH1 0x1 DUP1 DUP3 MSTORE PUSH1 0x20 DUP3 ADD DUP7 SWAP1 MSTORE DUP2 DUP4 ADD SWAP1 DUP2 MSTORE PUSH1 0x60 DUP3 ADD DUP6 SWAP1 MSTORE PUSH1 0x80 DUP3 ADD SWAP1 SWAP3 MSTORE SWAP1 PUSH3 0x128 PUSH1 0x0 DUP8 DUP5 DUP5 DUP8 PUSH3 0x130 JUMP JUMPDEST POP POP POP POP POP POP JUMP JUMPDEST PUSH3 0x13E DUP6 DUP6 DUP6 DUP6 PUSH3 0x193 JUMP JUMPDEST PUSH1 0x1 PUSH1 0x1 PUSH1 0xA0 SHL SUB DUP5 AND ISZERO PUSH3 0x18C JUMPI DUP3 MLOAD CALLER SWAP1 PUSH1 0x1 SUB PUSH3 0x17C JUMPI PUSH1 0x20 DUP5 DUP2 ADD MLOAD SWAP1 DUP5 ADD MLOAD PUSH3 0x174 DUP4 DUP10 DUP10 DUP6 DUP6 DUP10 PUSH3 0x3B6 JUMP JUMPDEST POP POP PUSH3 0x128 JUMP JUMPDEST PUSH3 0x128 DUP2 DUP8 DUP8 DUP8 DUP8 DUP8 PUSH3 0x4F0 JUMP JUMPDEST POP POP POP POP POP JUMP JUMPDEST DUP1 MLOAD DUP3 MLOAD EQ PUSH3 0x1C4 JUMPI DUP2 MLOAD DUP2 MLOAD PUSH1 0x40 MLOAD PUSH4 0x5B059991 PUSH1 0xE0 SHL DUP2 MSTORE PUSH1 0x4 DUP2 ADD SWAP3 SWAP1 SWAP3 MSTORE PUSH1 0x24 DUP3 ADD MSTORE PUSH1 0x44 ADD PUSH3 0xEA JUMP JUMPDEST CALLER PUSH1 0x0 JUMPDEST DUP4 MLOAD DUP2 LT ISZERO PUSH3 0x2D2 JUMPI PUSH1 0x20 DUP2 DUP2 MUL DUP6 DUP2 ADD DUP3 ADD MLOAD SWAP1 DUP6 ADD SWAP1 SWAP2 ADD MLOAD PUSH1 0x1 PUSH1 0x1 PUSH1 0xA0 SHL SUB DUP9 AND ISZERO PUSH3 0x27F JUMPI PUSH1 0x0 DUP3 DUP2 MSTORE PUSH1 0x20 DUP2 DUP2 MSTORE PUSH1 0x40 DUP1 DUP4 KECCAK256 PUSH1 0x1 PUSH1 0x1 PUSH1 0xA0 SHL SUB DUP13 AND DUP5 MSTORE SWAP1 SWAP2 MSTORE SWAP1 KECCAK256 SLOAD DUP2 DUP2 LT ISZERO PUSH3 0x258 JUMPI PUSH1 0x40 MLOAD PUSH4 0x3DEE4C5 PUSH1 0xE0 SHL DUP2 MSTORE PUSH1 0x1 PUSH1 0x1 PUSH1 0xA0 SHL SUB DUP11 AND PUSH1 0x4 DUP3 ADD MSTORE PUSH1 0x24 DUP2 ADD DUP3 SWAP1 MSTORE PUSH1 0x44 DUP2 ADD DUP4 SWAP1 MSTORE PUSH1 0x64 DUP2 ADD DUP5 SWAP1 MSTORE PUSH1 0x84 ADD PUSH3 0xEA JUMP JUMPDEST PUSH1 0x0 DUP4 DUP2 MSTORE PUSH1 0x20 DUP2 DUP2 MSTORE PUSH1 0x40 DUP1 DUP4 KECCAK256 PUSH1 0x1 PUSH1 0x1 PUSH1 0xA0 SHL SUB DUP14 AND DUP5 MSTORE SWAP1 SWAP2 MSTORE SWAP1 KECCAK256 SWAP1 DUP3 SWAP1 SUB SWAP1 SSTORE JUMPDEST PUSH1 0x1 PUSH1 0x1 PUSH1 0xA0 SHL SUB DUP8 AND ISZERO PUSH3 0x2C7 JUMPI PUSH1 0x0 DUP3 DUP2 MSTORE PUSH1 0x20 DUP2 DUP2 MSTORE PUSH1 0x40 DUP1 DUP4 KECCAK256 PUSH1 0x1 PUSH1 0x1 PUSH1 0xA0 SHL SUB DUP12 AND DUP5 MSTORE SWAP1 SWAP2 MSTORE DUP2 KECCAK256 DUP1 SLOAD DUP4 SWAP3 SWAP1 PUSH3 0x2C1 SWAP1 DUP5 SWAP1 PUSH3 0x753 JUMP JUMPDEST SWAP1 SWAP2 SSTORE POP POP JUMPDEST POP POP PUSH1 0x1 ADD PUSH3 0x1C8 JUMP JUMPDEST POP DUP3 MLOAD PUSH1 0x1 SUB PUSH3 0x356 JUMPI PUSH1 0x20 DUP4 ADD MLOAD PUSH1 0x0 SWAP1 PUSH1 0x20 DUP5 ADD MLOAD SWAP1 SWAP2 POP DUP6 PUSH1 0x1 PUSH1 0x1 PUSH1 0xA0 SHL SUB AND DUP8 PUSH1 0x1 PUSH1 0x1 PUSH1 0xA0 SHL SUB AND DUP5 PUSH1 0x1 PUSH1 0x1 PUSH1 0xA0 SHL SUB AND PUSH32 0xC3D58168C5AE7397731D063D5BBF3D657854427343F4C083240F7AACAA2D0F62 DUP6 DUP6 PUSH1 0x40 MLOAD PUSH3 0x346 SWAP3 SWAP2 SWAP1 SWAP2 DUP3 MSTORE PUSH1 0x20 DUP3 ADD MSTORE PUSH1 0x40 ADD SWAP1 JUMP JUMPDEST PUSH1 0x40 MLOAD DUP1 SWAP2 SUB SWAP1 LOG4 POP POP PUSH3 0x18C JUMP JUMPDEST DUP4 PUSH1 0x1 PUSH1 0x1 PUSH1 0xA0 SHL SUB AND DUP6 PUSH1 0x1 PUSH1 0x1 PUSH1 0xA0 SHL SUB AND DUP3 PUSH1 0x1 PUSH1 0x1 PUSH1 0xA0 SHL SUB AND PUSH32 0x4A39DC06D4C0DBC64B70AF90FD698A233A518AA5D07E595D983B8C0526C8F7FB DUP7 DUP7 PUSH1 0x40 MLOAD PUSH3 0x3A7 SWAP3 SWAP2 SWAP1 PUSH3 0x7B9 JUMP JUMPDEST PUSH1 0x40 MLOAD DUP1 SWAP2 SUB SWAP1 LOG4 POP POP POP POP POP JUMP JUMPDEST PUSH1 0x1 PUSH1 0x1 PUSH1 0xA0 SHL SUB DUP5 AND EXTCODESIZE ISZERO PUSH3 0x128 JUMPI PUSH1 0x40 MLOAD PUSH4 0xF23A6E61 PUSH1 0xE0 SHL DUP2 MSTORE PUSH1 0x1 PUSH1 0x1 PUSH1 0xA0 SHL SUB DUP6 AND SWAP1 PUSH4 0xF23A6E61 SWAP1 PUSH3 0x3FD SWAP1 DUP10 SWAP1 DUP10 SWAP1 DUP9 SWAP1 DUP9 SWAP1 DUP9 SWAP1 PUSH1 0x4 ADD PUSH3 0x833 JUMP JUMPDEST PUSH1 0x20 PUSH1 0x40 MLOAD DUP1 DUP4 SUB DUP2 PUSH1 0x0 DUP8 GAS CALL SWAP3 POP POP POP DUP1 ISZERO PUSH3 0x43B JUMPI POP PUSH1 0x40 DUP1 MLOAD PUSH1 0x1F RETURNDATASIZE SWAP1 DUP2 ADD PUSH1 0x1F NOT AND DUP3 ADD SWAP1 SWAP3 MSTORE PUSH3 0x438 SWAP2 DUP2 ADD SWAP1 PUSH3 0x87A JUMP JUMPDEST PUSH1 0x1 JUMPDEST PUSH3 0x4A9 JUMPI RETURNDATASIZE DUP1 DUP1 ISZERO PUSH3 0x46C JUMPI PUSH1 0x40 MLOAD SWAP2 POP PUSH1 0x1F NOT PUSH1 0x3F RETURNDATASIZE ADD AND DUP3 ADD PUSH1 0x40 MSTORE RETURNDATASIZE DUP3 MSTORE RETURNDATASIZE PUSH1 0x0 PUSH1 0x20 DUP5 ADD RETURNDATACOPY PUSH3 0x471 JUMP JUMPDEST PUSH1 0x60 SWAP2 POP JUMPDEST POP DUP1 MLOAD PUSH1 0x0 SUB PUSH3 0x4A1 JUMPI PUSH1 0x40 MLOAD PUSH4 0x2BFA23E7 PUSH1 0xE1 SHL DUP2 MSTORE PUSH1 0x1 PUSH1 0x1 PUSH1 0xA0 SHL SUB DUP7 AND PUSH1 0x4 DUP3 ADD MSTORE PUSH1 0x24 ADD PUSH3 0xEA JUMP JUMPDEST DUP1 MLOAD DUP2 PUSH1 0x20 ADD REVERT JUMPDEST PUSH1 0x1 PUSH1 0x1 PUSH1 0xE0 SHL SUB NOT DUP2 AND PUSH4 0xF23A6E61 PUSH1 0xE0 SHL EQ PUSH3 0x4E7 JUMPI PUSH1 0x40 MLOAD PUSH4 0x2BFA23E7 PUSH1 0xE1 SHL DUP2 MSTORE PUSH1 0x1 PUSH1 0x1 PUSH1 0xA0 SHL SUB DUP7 AND PUSH1 0x4 DUP3 ADD MSTORE PUSH1 0x24 ADD PUSH3 0xEA JUMP JUMPDEST POP POP POP POP POP POP POP JUMP JUMPDEST PUSH1 0x1 PUSH1 0x1 PUSH1 0xA0 SHL SUB DUP5 AND EXTCODESIZE ISZERO PUSH3 0x128 JUMPI PUSH1 0x40 MLOAD PUSH4 0xBC197C81 PUSH1 0xE0 SHL DUP2 MSTORE PUSH1 0x1 PUSH1 0x1 PUSH1 0xA0 SHL SUB DUP6 AND SWAP1 PUSH4 0xBC197C81 SWAP1 PUSH3 0x537 SWAP1 DUP10 SWAP1 DUP10 SWAP1 DUP9 SWAP1 DUP9 SWAP1 DUP9 SWAP1 PUSH1 0x4 ADD PUSH3 0x8AD JUMP JUMPDEST PUSH1 0x20 PUSH1 0x40 MLOAD DUP1 DUP4 SUB DUP2 PUSH1 0x0 DUP8 GAS CALL SWAP3 POP POP POP DUP1 ISZERO PUSH3 0x575 JUMPI POP PUSH1 0x40 DUP1 MLOAD PUSH1 0x1F RETURNDATASIZE SWAP1 DUP2 ADD PUSH1 0x1F NOT AND DUP3 ADD SWAP1 SWAP3 MSTORE PUSH3 0x572 SWAP2 DUP2 ADD SWAP1 PUSH3 0x87A JUMP JUMPDEST PUSH1 0x1 JUMPDEST PUSH3 0x5A6 JUMPI RETURNDATASIZE DUP1 DUP1 ISZERO PUSH3 0x46C JUMPI PUSH1 0x40 MLOAD SWAP2 POP PUSH1 0x1F NOT PUSH1 0x3F RETURNDATASIZE ADD AND DUP3 ADD PUSH1 0x40 MSTORE RETURNDATASIZE DUP3 MSTORE RETURNDATASIZE PUSH1 0x0 PUSH1 0x20 DUP5 ADD RETURNDATACOPY PUSH3 0x471 JUMP JUMPDEST PUSH1 0x1 PUSH1 0x1 PUSH1 0xE0 SHL SUB NOT DUP2 AND PUSH4 0xBC197C81 PUSH1 0xE0 SHL EQ PUSH3 0x4E7 JUMPI PUSH1 0x40 MLOAD PUSH4 0x2BFA23E7 PUSH1 0xE1 SHL DUP2 MSTORE PUSH1 0x1 PUSH1 0x1 PUSH1 0xA0 SHL SUB DUP7 AND PUSH1 0x4 DUP3 ADD MSTORE PUSH1 0x24 ADD PUSH3 0xEA JUMP JUMPDEST PUSH4 0x4E487B71 PUSH1 0xE0 SHL PUSH1 0x0 MSTORE PUSH1 0x41 PUSH1 0x4 MSTORE PUSH1 0x24 PUSH1 0x0 REVERT JUMPDEST PUSH1 0x1 DUP2 DUP2 SHR SWAP1 DUP3 AND DUP1 PUSH3 0x60F JUMPI PUSH1 0x7F DUP3 AND SWAP2 POP JUMPDEST PUSH1 0x20 DUP3 LT DUP2 SUB PUSH3 0x630 JUMPI PUSH4 0x4E487B71 PUSH1 0xE0 SHL PUSH1 0x0 MSTORE PUSH1 0x22 PUSH1 0x4 MSTORE PUSH1 0x24 PUSH1 0x0 REVERT JUMPDEST POP SWAP2 SWAP1 POP JUMP JUMPDEST PUSH1 0x1F DUP3 GT ISZERO PUSH3 0x682 JUMPI PUSH1 0x0 DUP2 PUSH1 0x0 MSTORE PUSH1 0x20 PUSH1 0x0 KECCAK256 PUSH1 0x1F DUP6 ADD PUSH1 0x5 SHR DUP2 ADD PUSH1 0x20 DUP7 LT ISZERO PUSH3 0x661 JUMPI POP DUP1 JUMPDEST PUSH1 0x1F DUP6 ADD PUSH1 0x5 SHR DUP3 ADD SWAP2 POP JUMPDEST DUP2 DUP2 LT ISZERO PUSH3 0x128 JUMPI DUP3 DUP2 SSTORE PUSH1 0x1 ADD PUSH3 0x66D JUMP JUMPDEST POP POP POP JUMP JUMPDEST DUP2 MLOAD PUSH1 0x1 PUSH1 0x1 PUSH1 0x40 SHL SUB DUP2 GT ISZERO PUSH3 0x6A3 JUMPI PUSH3 0x6A3 PUSH3 0x5E4 JUMP JUMPDEST PUSH3 0x6BB DUP2 PUSH3 0x6B4 DUP5 SLOAD PUSH3 0x5FA JUMP JUMPDEST DUP5 PUSH3 0x636 JUMP JUMPDEST PUSH1 0x20 DUP1 PUSH1 0x1F DUP4 GT PUSH1 0x1 DUP2 EQ PUSH3 0x6F3 JUMPI PUSH1 0x0 DUP5 ISZERO PUSH3 0x6DA JUMPI POP DUP6 DUP4 ADD MLOAD JUMPDEST PUSH1 0x0 NOT PUSH1 0x3 DUP7 SWAP1 SHL SHR NOT AND PUSH1 0x1 DUP6 SWAP1 SHL OR DUP6 SSTORE PUSH3 0x128 JUMP JUMPDEST PUSH1 0x0 DUP6 DUP2 MSTORE PUSH1 0x20 DUP2 KECCAK256 PUSH1 0x1F NOT DUP7 AND SWAP2 JUMPDEST DUP3 DUP2 LT ISZERO PUSH3 0x724 JUMPI DUP9 DUP7 ADD MLOAD DUP3 SSTORE SWAP5 DUP5 ADD SWAP5 PUSH1 0x1 SWAP1 SWAP2 ADD SWAP1 DUP5 ADD PUSH3 0x703 JUMP JUMPDEST POP DUP6 DUP3 LT ISZERO PUSH3 0x743 JUMPI DUP8 DUP6 ADD MLOAD PUSH1 0x0 NOT PUSH1 0x3 DUP9 SWAP1 SHL PUSH1 0xF8 AND SHR NOT AND DUP2 SSTORE JUMPDEST POP POP POP POP POP PUSH1 0x1 SWAP1 DUP2 SHL ADD SWAP1 SSTORE POP JUMP JUMPDEST DUP1 DUP3 ADD DUP1 DUP3 GT ISZERO PUSH3 0x775 JUMPI PUSH4 0x4E487B71 PUSH1 0xE0 SHL PUSH1 0x0 MSTORE PUSH1 0x11 PUSH1 0x4 MSTORE PUSH1 0x24 PUSH1 0x0 REVERT JUMPDEST SWAP3 SWAP2 POP POP JUMP JUMPDEST PUSH1 0x0 DUP2 MLOAD DUP1 DUP5 MSTORE PUSH1 0x20 DUP1 DUP6 ADD SWAP5 POP PUSH1 0x20 DUP5 ADD PUSH1 0x0 JUMPDEST DUP4 DUP2 LT ISZERO PUSH3 0x7AE JUMPI DUP2 MLOAD DUP8 MSTORE SWAP6 DUP3 ADD SWAP6 SWAP1 DUP3 ADD SWAP1 PUSH1 0x1 ADD PUSH3 0x790 JUMP JUMPDEST POP SWAP5 SWAP6 SWAP5 POP POP POP POP POP JUMP JUMPDEST PUSH1 0x40 DUP2 MSTORE PUSH1 0x0 PUSH3 0x7CE PUSH1 0x40 DUP4 ADD DUP6 PUSH3 0x77B JUMP JUMPDEST DUP3 DUP2 SUB PUSH1 0x20 DUP5 ADD MSTORE PUSH3 0x7E2 DUP2 DUP6 PUSH3 0x77B JUMP JUMPDEST SWAP6 SWAP5 POP POP POP POP POP JUMP JUMPDEST PUSH1 0x0 DUP2 MLOAD DUP1 DUP5 MSTORE PUSH1 0x0 JUMPDEST DUP2 DUP2 LT ISZERO PUSH3 0x813 JUMPI PUSH1 0x20 DUP2 DUP6 ADD DUP2 ADD MLOAD DUP7 DUP4 ADD DUP3 ADD MSTORE ADD PUSH3 0x7F5 JUMP JUMPDEST POP PUSH1 0x0 PUSH1 0x20 DUP3 DUP7 ADD ADD MSTORE PUSH1 0x20 PUSH1 0x1F NOT PUSH1 0x1F DUP4 ADD AND DUP6 ADD ADD SWAP2 POP POP SWAP3 SWAP2 POP POP JUMP JUMPDEST PUSH1 0x1 PUSH1 0x1 PUSH1 0xA0 SHL SUB DUP7 DUP2 AND DUP3 MSTORE DUP6 AND PUSH1 0x20 DUP3 ADD MSTORE PUSH1 0x40 DUP2 ADD DUP5 SWAP1 MSTORE PUSH1 0x60 DUP2 ADD DUP4 SWAP1 MSTORE PUSH1 0xA0 PUSH1 0x80 DUP3 ADD DUP2 SWAP1 MSTORE PUSH1 0x0 SWAP1 PUSH3 0x86F SWAP1 DUP4 ADD DUP5 PUSH3 0x7EB JUMP JUMPDEST SWAP8 SWAP7 POP POP POP POP POP POP POP JUMP JUMPDEST PUSH1 0x0 PUSH1 0x20 DUP3 DUP5 SUB SLT ISZERO PUSH3 0x88D JUMPI PUSH1 0x0 DUP1 REVERT JUMPDEST DUP2 MLOAD PUSH1 0x1 PUSH1 0x1 PUSH1 0xE0 SHL SUB NOT DUP2 AND DUP2 EQ PUSH3 0x8A6 JUMPI PUSH1 0x0 DUP1 REVERT JUMPDEST SWAP4 SWAP3 POP POP POP JUMP JUMPDEST PUSH1 0x1 PUSH1 0x1 PUSH1 0xA0 SHL SUB DUP7 DUP2 AND DUP3 MSTORE DUP6 AND PUSH1 0x20 DUP3 ADD MSTORE PUSH1 0xA0 PUSH1 0x40 DUP3 ADD DUP2 SWAP1 MSTORE PUSH1 0x0 SWAP1 PUSH3 0x8DB SWAP1 DUP4 ADD DUP7 PUSH3 0x77B JUMP JUMPDEST DUP3 DUP2 SUB PUSH1 0x60 DUP5 ADD MSTORE PUSH3 0x8EF DUP2 DUP7 PUSH3 0x77B JUMP JUMPDEST SWAP1 POP DUP3 DUP2 SUB PUSH1 0x80 DUP5 ADD MSTORE PUSH3 0x905 DUP2 DUP6 PUSH3 0x7EB JUMP JUMPDEST SWAP9 SWAP8 POP POP POP POP POP POP POP POP JUMP JUMPDEST PUSH2 0x117D DUP1 PUSH3 0x921 PUSH1 0x0 CODECOPY PUSH1 0x0 RETURN INVALID PUSH1 0x80 PUSH1 0x40 MSTORE CALLVALUE DUP1 ISZERO PUSH2 0x10 JUMPI PUSH1 0x0 DUP1 REVERT JUMPDEST POP PUSH1 0x4 CALLDATASIZE LT PUSH2 0x92 JUMPI PUSH1 0x0 CALLDATALOAD PUSH1 0xE0 SHR DUP1 PUSH4 0x2EB2C2D6 GT PUSH2 0x66 JUMPI DUP1 PUSH4 0x2EB2C2D6 EQ PUSH2 0x115 JUMPI DUP1 PUSH4 0x4E1273F4 EQ PUSH2 0x128 JUMPI DUP1 PUSH4 0xA22CB465 EQ PUSH2 0x148 JUMPI DUP1 PUSH4 0xE985E9C5 EQ PUSH2 0x15B JUMPI DUP1 PUSH4 0xF242432A EQ PUSH2 0x16E JUMPI PUSH1 0x0 DUP1 REVERT JUMPDEST DUP1 PUSH3 0xFDD58E EQ PUSH2 0x97 JUMPI DUP1 PUSH4 0x1FFC9A7 EQ PUSH2 0xBD JUMPI DUP1 PUSH4 0xE89341C EQ PUSH2 0xE0 JUMPI DUP1 PUSH4 0x156E29F6 EQ PUSH2 0x100 JUMPI JUMPDEST PUSH1 0x0 DUP1 REVERT JUMPDEST PUSH2 0xAA PUSH2 0xA5 CALLDATASIZE PUSH1 0x4 PUSH2 0xB05 JUMP JUMPDEST PUSH2 0x181 JUMP JUMPDEST PUSH1 0x40 MLOAD SWAP1 DUP2 MSTORE PUSH1 0x20 ADD JUMPDEST PUSH1 0x40 MLOAD DUP1 SWAP2 SUB SWAP1 RETURN JUMPDEST PUSH2 0xD0 PUSH2 0xCB CALLDATASIZE PUSH1 0x4 PUSH2 0xB48 JUMP JUMPDEST PUSH2 0x1A9 JUMP JUMPDEST PUSH1 0x40 MLOAD SWAP1 ISZERO ISZERO DUP2 MSTORE PUSH1 0x20 ADD PUSH2 0xB4 JUMP JUMPDEST PUSH2 0xF3 PUSH2 0xEE CALLDATASIZE PUSH1 0x4 PUSH2 0xB6C JUMP JUMPDEST PUSH2 0x1F9 JUMP JUMPDEST PUSH1 0x40 MLOAD PUSH2 0xB4 SWAP2 SWAP1 PUSH2 0xBCB JUMP JUMPDEST PUSH2 0x113 PUSH2 0x10E CALLDATASIZE PUSH1 0x4 PUSH2 0xBDE JUMP JUMPDEST PUSH2 0x28D JUMP JUMPDEST STOP JUMPDEST PUSH2 0x113 PUSH2 0x123 CALLDATASIZE PUSH1 0x4 PUSH2 0xD5B JUMP JUMPDEST PUSH2 0x2B8 JUMP JUMPDEST PUSH2 0x13B PUSH2 0x136 CALLDATASIZE PUSH1 0x4 PUSH2 0xE05 JUMP JUMPDEST PUSH2 0x324 JUMP JUMPDEST PUSH1 0x40 MLOAD PUSH2 0xB4 SWAP2 SWAP1 PUSH2 0xF01 JUMP JUMPDEST PUSH2 0x113 PUSH2 0x156 CALLDATASIZE PUSH1 0x4 PUSH2 0xF14 JUMP JUMPDEST PUSH2 0x3F1 JUMP JUMPDEST PUSH2 0xD0 PUSH2 0x169 CALLDATASIZE PUSH1 0x4 PUSH2 0xF50 JUMP JUMPDEST PUSH2 0x400 JUMP JUMPDEST PUSH2 0x113 PUSH2 0x17C CALLDATASIZE PUSH1 0x4 PUSH2 0xF83 JUMP JUMPDEST PUSH2 0x42E JUMP JUMPDEST PUSH1 0x0 DUP2 DUP2 MSTORE PUSH1 0x20 DUP2 DUP2 MSTORE PUSH1 0x40 DUP1 DUP4 KECCAK256 PUSH1 0x1 PUSH1 0x1 PUSH1 0xA0 SHL SUB DUP7 AND DUP5 MSTORE SWAP1 SWAP2 MSTORE SWAP1 KECCAK256 SLOAD JUMPDEST SWAP3 SWAP2 POP POP JUMP JUMPDEST PUSH1 0x0 PUSH1 0x1 PUSH1 0x1 PUSH1 0xE0 SHL SUB NOT DUP3 AND PUSH4 0x6CDB3D13 PUSH1 0xE1 SHL EQ DUP1 PUSH2 0x1DA JUMPI POP PUSH1 0x1 PUSH1 0x1 PUSH1 0xE0 SHL SUB NOT DUP3 AND PUSH4 0x3A24D07 PUSH1 0xE2 SHL EQ JUMPDEST DUP1 PUSH2 0x1A3 JUMPI POP PUSH4 0x1FFC9A7 PUSH1 0xE0 SHL PUSH1 0x1 PUSH1 0x1 PUSH1 0xE0 SHL SUB NOT DUP4 AND EQ PUSH2 0x1A3 JUMP JUMPDEST PUSH1 0x60 PUSH1 0x2 DUP1 SLOAD PUSH2 0x208 SWAP1 PUSH2 0xFE8 JUMP JUMPDEST DUP1 PUSH1 0x1F ADD PUSH1 0x20 DUP1 SWAP2 DIV MUL PUSH1 0x20 ADD PUSH1 0x40 MLOAD SWAP1 DUP2 ADD PUSH1 0x40 MSTORE DUP1 SWAP3 SWAP2 SWAP1 DUP2 DUP2 MSTORE PUSH1 0x20 ADD DUP3 DUP1 SLOAD PUSH2 0x234 SWAP1 PUSH2 0xFE8 JUMP JUMPDEST DUP1 ISZERO PUSH2 0x281 JUMPI DUP1 PUSH1 0x1F LT PUSH2 0x256 JUMPI PUSH2 0x100 DUP1 DUP4 SLOAD DIV MUL DUP4 MSTORE SWAP2 PUSH1 0x20 ADD SWAP2 PUSH2 0x281 JUMP JUMPDEST DUP3 ADD SWAP2 SWAP1 PUSH1 0x0 MSTORE PUSH1 0x20 PUSH1 0x0 KECCAK256 SWAP1 JUMPDEST DUP2 SLOAD DUP2 MSTORE SWAP1 PUSH1 0x1 ADD SWAP1 PUSH1 0x20 ADD DUP1 DUP4 GT PUSH2 0x264 JUMPI DUP3 SWAP1 SUB PUSH1 0x1F AND DUP3 ADD SWAP2 JUMPDEST POP POP POP POP POP SWAP1 POP SWAP2 SWAP1 POP JUMP JUMPDEST PUSH2 0x2B3 DUP4 DUP4 DUP4 PUSH1 0x40 MLOAD DUP1 PUSH1 0x40 ADD PUSH1 0x40 MSTORE DUP1 PUSH1 0x2 DUP2 MSTORE PUSH1 0x20 ADD PUSH2 0x60F PUSH1 0xF3 SHL DUP2 MSTORE POP PUSH2 0x48D JUMP JUMPDEST POP POP POP JUMP JUMPDEST CALLER PUSH1 0x1 PUSH1 0x1 PUSH1 0xA0 SHL SUB DUP7 AND DUP2 EQ DUP1 ISZERO SWAP1 PUSH2 0x2D9 JUMPI POP PUSH2 0x2D7 DUP7 DUP3 PUSH2 0x400 JUMP JUMPDEST ISZERO JUMPDEST ISZERO PUSH2 0x30F JUMPI PUSH1 0x40 MLOAD PUSH4 0x711BEC91 PUSH1 0xE1 SHL DUP2 MSTORE PUSH1 0x1 PUSH1 0x1 PUSH1 0xA0 SHL SUB DUP1 DUP4 AND PUSH1 0x4 DUP4 ADD MSTORE DUP8 AND PUSH1 0x24 DUP3 ADD MSTORE PUSH1 0x44 ADD JUMPDEST PUSH1 0x40 MLOAD DUP1 SWAP2 SUB SWAP1 REVERT JUMPDEST PUSH2 0x31C DUP7 DUP7 DUP7 DUP7 DUP7 PUSH2 0x4EA JUMP JUMPDEST POP POP POP POP POP POP JUMP JUMPDEST PUSH1 0x60 DUP2 MLOAD DUP4 MLOAD EQ PUSH2 0x355 JUMPI DUP2 MLOAD DUP4 MLOAD PUSH1 0x40 MLOAD PUSH4 0x5B059991 PUSH1 0xE0 SHL DUP2 MSTORE PUSH1 0x4 DUP2 ADD SWAP3 SWAP1 SWAP3 MSTORE PUSH1 0x24 DUP3 ADD MSTORE PUSH1 0x44 ADD PUSH2 0x306 JUMP JUMPDEST PUSH1 0x0 DUP4 MLOAD PUSH8 0xFFFFFFFFFFFFFFFF DUP2 GT ISZERO PUSH2 0x371 JUMPI PUSH2 0x371 PUSH2 0xC11 JUMP JUMPDEST PUSH1 0x40 MLOAD SWAP1 DUP1 DUP3 MSTORE DUP1 PUSH1 0x20 MUL PUSH1 0x20 ADD DUP3 ADD PUSH1 0x40 MSTORE DUP1 ISZERO PUSH2 0x39A JUMPI DUP2 PUSH1 0x20 ADD PUSH1 0x20 DUP3 MUL DUP1 CALLDATASIZE DUP4 CALLDATACOPY ADD SWAP1 POP JUMPDEST POP SWAP1 POP PUSH1 0x0 JUMPDEST DUP5 MLOAD DUP2 LT ISZERO PUSH2 0x3E9 JUMPI PUSH1 0x20 DUP1 DUP3 MUL DUP7 ADD ADD MLOAD PUSH2 0x3C4 SWAP1 PUSH1 0x20 DUP1 DUP5 MUL DUP8 ADD ADD MLOAD PUSH2 0x181 JUMP JUMPDEST DUP3 DUP3 DUP2 MLOAD DUP2 LT PUSH2 0x3D6 JUMPI PUSH2 0x3D6 PUSH2 0x1022 JUMP JUMPDEST PUSH1 0x20 SWAP1 DUP2 MUL SWAP2 SWAP1 SWAP2 ADD ADD MSTORE PUSH1 0x1 ADD PUSH2 0x3A0 JUMP JUMPDEST POP SWAP4 SWAP3 POP POP POP JUMP JUMPDEST PUSH2 0x3FC CALLER DUP4 DUP4 PUSH2 0x551 JUMP JUMPDEST POP POP JUMP JUMPDEST PUSH1 0x1 PUSH1 0x1 PUSH1 0xA0 SHL SUB SWAP2 DUP3 AND PUSH1 0x0 SWAP1 DUP2 MSTORE PUSH1 0x1 PUSH1 0x20 SWAP1 DUP2 MSTORE PUSH1 0x40 DUP1 DUP4 KECCAK256 SWAP4 SWAP1 SWAP5 AND DUP3 MSTORE SWAP2 SWAP1 SWAP2 MSTORE KECCAK256 SLOAD PUSH1 0xFF AND SWAP1 JUMP JUMPDEST CALLER PUSH1 0x1 PUSH1 0x1 PUSH1 0xA0 SHL SUB DUP7 AND DUP2 EQ DUP1 ISZERO SWAP1 PUSH2 0x44F JUMPI POP PUSH2 0x44D DUP7 DUP3 PUSH2 0x400 JUMP JUMPDEST ISZERO JUMPDEST ISZERO PUSH2 0x480 JUMPI PUSH1 0x40 MLOAD PUSH4 0x711BEC91 PUSH1 0xE1 SHL DUP2 MSTORE PUSH1 0x1 PUSH1 0x1 PUSH1 0xA0 SHL SUB DUP1 DUP4 AND PUSH1 0x4 DUP4 ADD MSTORE DUP8 AND PUSH1 0x24 DUP3 ADD MSTORE PUSH1 0x44 ADD PUSH2 0x306 JUMP JUMPDEST PUSH2 0x31C DUP7 DUP7 DUP7 DUP7 DUP7 PUSH2 0x5E7 JUMP JUMPDEST PUSH1 0x1 PUSH1 0x1 PUSH1 0xA0 SHL SUB DUP5 AND PUSH2 0x4B7 JUMPI PUSH1 0x40 MLOAD PUSH4 0x2BFA23E7 PUSH1 0xE1 SHL DUP2 MSTORE PUSH1 0x0 PUSH1 0x4 DUP3 ADD MSTORE PUSH1 0x24 ADD PUSH2 0x306 JUMP JUMPDEST PUSH1 0x40 DUP1 MLOAD PUSH1 0x1 DUP1 DUP3 MSTORE PUSH1 0x20 DUP3 ADD DUP7 SWAP1 MSTORE DUP2 DUP4 ADD SWAP1 DUP2 MSTORE PUSH1 0x60 DUP3 ADD DUP6 SWAP1 MSTORE PUSH1 0x80 DUP3 ADD SWAP1 SWAP3 MSTORE SWAP1 PUSH2 0x31C PUSH1 0x0 DUP8 DUP5 DUP5 DUP8 PUSH2 0x675 JUMP JUMPDEST PUSH1 0x1 PUSH1 0x1 PUSH1 0xA0 SHL SUB DUP5 AND PUSH2 0x514 JUMPI PUSH1 0x40 MLOAD PUSH4 0x2BFA23E7 PUSH1 0xE1 SHL DUP2 MSTORE PUSH1 0x0 PUSH1 0x4 DUP3 ADD MSTORE PUSH1 0x24 ADD PUSH2 0x306 JUMP JUMPDEST PUSH1 0x1 PUSH1 0x1 PUSH1 0xA0 SHL SUB DUP6 AND PUSH2 0x53D JUMPI PUSH1 0x40 MLOAD PUSH3 0x6A0D45 PUSH1 0xE2 SHL DUP2 MSTORE PUSH1 0x0 PUSH1 0x4 DUP3 ADD MSTORE PUSH1 0x24 ADD PUSH2 0x306 JUMP JUMPDEST PUSH2 0x54A DUP6 DUP6 DUP6 DUP6 DUP6 PUSH2 0x675 JUMP JUMPDEST POP POP POP POP POP JUMP JUMPDEST PUSH1 0x1 PUSH1 0x1 PUSH1 0xA0 SHL SUB DUP3 AND PUSH2 0x57A JUMPI PUSH1 0x40 MLOAD PUSH3 0xCED3E1 PUSH1 0xE8 SHL DUP2 MSTORE PUSH1 0x0 PUSH1 0x4 DUP3 ADD MSTORE PUSH1 0x24 ADD PUSH2 0x306 JUMP JUMPDEST PUSH1 0x1 PUSH1 0x1 PUSH1 0xA0 SHL SUB DUP4 DUP2 AND PUSH1 0x0 DUP2 DUP2 MSTORE PUSH1 0x1 PUSH1 0x20 SWAP1 DUP2 MSTORE PUSH1 0x40 DUP1 DUP4 KECCAK256 SWAP5 DUP8 AND DUP1 DUP5 MSTORE SWAP5 DUP3 MSTORE SWAP2 DUP3 SWAP1 KECCAK256 DUP1 SLOAD PUSH1 0xFF NOT AND DUP7 ISZERO ISZERO SWAP1 DUP2 OR SWAP1 SWAP2 SSTORE SWAP2 MLOAD SWAP2 DUP3 MSTORE PUSH32 0x17307EAB39AB6107E8899845AD3D59BD9653F200F220920489CA2B5937696C31 SWAP2 ADD PUSH1 0x40 MLOAD DUP1 SWAP2 SUB SWAP1 LOG3 POP POP POP JUMP JUMPDEST PUSH1 0x1 PUSH1 0x1 PUSH1 0xA0 SHL SUB DUP5 AND PUSH2 0x611 JUMPI PUSH1 0x40 MLOAD PUSH4 0x2BFA23E7 PUSH1 0xE1 SHL DUP2 MSTORE PUSH1 0x0 PUSH1 0x4 DUP3 ADD MSTORE PUSH1 0x24 ADD PUSH2 0x306 JUMP JUMPDEST PUSH1 0x1 PUSH1 0x1 PUSH1 0xA0 SHL SUB DUP6 AND PUSH2 0x63A JUMPI PUSH1 0x40 MLOAD PUSH3 0x6A0D45 PUSH1 0xE2 SHL DUP2 MSTORE PUSH1 0x0 PUSH1 0x4 DUP3 ADD MSTORE PUSH1 0x24 ADD PUSH2 0x306 JUMP JUMPDEST PUSH1 0x40 DUP1 MLOAD PUSH1 0x1 DUP1 DUP3 MSTORE PUSH1 0x20 DUP3 ADD DUP7 SWAP1 MSTORE DUP2 DUP4 ADD SWAP1 DUP2 MSTORE PUSH1 0x60 DUP3 ADD DUP6 SWAP1 MSTORE PUSH1 0x80 DUP3 ADD SWAP1 SWAP3 MSTORE SWAP1 PUSH2 0x66C DUP8 DUP8 DUP5 DUP5 DUP8 PUSH2 0x675 JUMP JUMPDEST POP POP POP POP POP POP POP JUMP JUMPDEST PUSH2 0x681 DUP6 DUP6 DUP6 DUP6 PUSH2 0x6C8 JUMP JUMPDEST PUSH1 0x1 PUSH1 0x1 PUSH1 0xA0 SHL SUB DUP5 AND ISZERO PUSH2 0x54A JUMPI DUP3 MLOAD CALLER SWAP1 PUSH1 0x1 SUB PUSH2 0x6BA JUMPI PUSH1 0x20 DUP5 DUP2 ADD MLOAD SWAP1 DUP5 ADD MLOAD PUSH2 0x6B3 DUP4 DUP10 DUP10 DUP6 DUP6 DUP10 PUSH2 0x8DC JUMP JUMPDEST POP POP PUSH2 0x31C JUMP JUMPDEST PUSH2 0x31C DUP2 DUP8 DUP8 DUP8 DUP8 DUP8 PUSH2 0xA00 JUMP JUMPDEST DUP1 MLOAD DUP3 MLOAD EQ PUSH2 0x6F7 JUMPI DUP2 MLOAD DUP2 MLOAD PUSH1 0x40 MLOAD PUSH4 0x5B059991 PUSH1 0xE0 SHL DUP2 MSTORE PUSH1 0x4 DUP2 ADD SWAP3 SWAP1 SWAP3 MSTORE PUSH1 0x24 DUP3 ADD MSTORE PUSH1 0x44 ADD PUSH2 0x306 JUMP JUMPDEST CALLER PUSH1 0x0 JUMPDEST DUP4 MLOAD DUP2 LT ISZERO PUSH2 0x7FD JUMPI PUSH1 0x20 DUP2 DUP2 MUL DUP6 DUP2 ADD DUP3 ADD MLOAD SWAP1 DUP6 ADD SWAP1 SWAP2 ADD MLOAD PUSH1 0x1 PUSH1 0x1 PUSH1 0xA0 SHL SUB DUP9 AND ISZERO PUSH2 0x7AE JUMPI PUSH1 0x0 DUP3 DUP2 MSTORE PUSH1 0x20 DUP2 DUP2 MSTORE PUSH1 0x40 DUP1 DUP4 KECCAK256 PUSH1 0x1 PUSH1 0x1 PUSH1 0xA0 SHL SUB DUP13 AND DUP5 MSTORE SWAP1 SWAP2 MSTORE SWAP1 KECCAK256 SLOAD DUP2 DUP2 LT ISZERO PUSH2 0x787 JUMPI PUSH1 0x40 MLOAD PUSH4 0x3DEE4C5 PUSH1 0xE0 SHL DUP2 MSTORE PUSH1 0x1 PUSH1 0x1 PUSH1 0xA0 SHL SUB DUP11 AND PUSH1 0x4 DUP3 ADD MSTORE PUSH1 0x24 DUP2 ADD DUP3 SWAP1 MSTORE PUSH1 0x44 DUP2 ADD DUP4 SWAP1 MSTORE PUSH1 0x64 DUP2 ADD DUP5 SWAP1 MSTORE PUSH1 0x84 ADD PUSH2 0x306 JUMP JUMPDEST PUSH1 0x0 DUP4 DUP2 MSTORE PUSH1 0x20 DUP2 DUP2 MSTORE PUSH1 0x40 DUP1 DUP4 KECCAK256 PUSH1 0x1 PUSH1 0x1 PUSH1 0xA0 SHL SUB DUP14 AND DUP5 MSTORE SWAP1 SWAP2 MSTORE SWAP1 KECCAK256 SWAP1 DUP3 SWAP1 SUB SWAP1 SSTORE JUMPDEST PUSH1 0x1 PUSH1 0x1 PUSH1 0xA0 SHL SUB DUP8 AND ISZERO PUSH2 0x7F3 JUMPI PUSH1 0x0 DUP3 DUP2 MSTORE PUSH1 0x20 DUP2 DUP2 MSTORE PUSH1 0x40 DUP1 DUP4 KECCAK256 PUSH1 0x1 PUSH1 0x1 PUSH1 0xA0 SHL SUB DUP12 AND DUP5 MSTORE SWAP1 SWAP2 MSTORE DUP2 KECCAK256 DUP1 SLOAD DUP4 SWAP3 SWAP1 PUSH2 0x7ED SWAP1 DUP5 SWAP1 PUSH2 0x1038 JUMP JUMPDEST SWAP1 SWAP2 SSTORE POP POP JUMPDEST POP POP PUSH1 0x1 ADD PUSH2 0x6FB JUMP JUMPDEST POP DUP3 MLOAD PUSH1 0x1 SUB PUSH2 0x87E JUMPI PUSH1 0x20 DUP4 ADD MLOAD PUSH1 0x0 SWAP1 PUSH1 0x20 DUP5 ADD MLOAD SWAP1 SWAP2 POP DUP6 PUSH1 0x1 PUSH1 0x1 PUSH1 0xA0 SHL SUB AND DUP8 PUSH1 0x1 PUSH1 0x1 PUSH1 0xA0 SHL SUB AND DUP5 PUSH1 0x1 PUSH1 0x1 PUSH1 0xA0 SHL SUB AND PUSH32 0xC3D58168C5AE7397731D063D5BBF3D657854427343F4C083240F7AACAA2D0F62 DUP6 DUP6 PUSH1 0x40 MLOAD PUSH2 0x86F SWAP3 SWAP2 SWAP1 SWAP2 DUP3 MSTORE PUSH1 0x20 DUP3 ADD MSTORE PUSH1 0x40 ADD SWAP1 JUMP JUMPDEST PUSH1 0x40 MLOAD DUP1 SWAP2 SUB SWAP1 LOG4 POP POP PUSH2 0x54A JUMP JUMPDEST DUP4 PUSH1 0x1 PUSH1 0x1 PUSH1 0xA0 SHL SUB AND DUP6 PUSH1 0x1 PUSH1 0x1 PUSH1 0xA0 SHL SUB AND DUP3 PUSH1 0x1 PUSH1 0x1 PUSH1 0xA0 SHL SUB AND PUSH32 0x4A39DC06D4C0DBC64B70AF90FD698A233A518AA5D07E595D983B8C0526C8F7FB DUP7 DUP7 PUSH1 0x40 MLOAD PUSH2 0x8CD SWAP3 SWAP2 SWAP1 PUSH2 0x1059 JUMP JUMPDEST PUSH1 0x40 MLOAD DUP1 SWAP2 SUB SWAP1 LOG4 POP POP POP POP POP JUMP JUMPDEST PUSH1 0x1 PUSH1 0x1 PUSH1 0xA0 SHL SUB DUP5 AND EXTCODESIZE ISZERO PUSH2 0x31C JUMPI PUSH1 0x40 MLOAD PUSH4 0xF23A6E61 PUSH1 0xE0 SHL DUP2 MSTORE PUSH1 0x1 PUSH1 0x1 PUSH1 0xA0 SHL SUB DUP6 AND SWAP1 PUSH4 0xF23A6E61 SWAP1 PUSH2 0x920 SWAP1 DUP10 SWAP1 DUP10 SWAP1 DUP9 SWAP1 DUP9 SWAP1 DUP9 SWAP1 PUSH1 0x4 ADD PUSH2 0x1087 JUMP JUMPDEST PUSH1 0x20 PUSH1 0x40 MLOAD DUP1 DUP4 SUB DUP2 PUSH1 0x0 DUP8 GAS CALL SWAP3 POP POP POP DUP1 ISZERO PUSH2 0x95B JUMPI POP PUSH1 0x40 DUP1 MLOAD PUSH1 0x1F RETURNDATASIZE SWAP1 DUP2 ADD PUSH1 0x1F NOT AND DUP3 ADD SWAP1 SWAP3 MSTORE PUSH2 0x958 SWAP2 DUP2 ADD SWAP1 PUSH2 0x10CC JUMP JUMPDEST PUSH1 0x1 JUMPDEST PUSH2 0x9C4 JUMPI RETURNDATASIZE DUP1 DUP1 ISZERO PUSH2 0x989 JUMPI PUSH1 0x40 MLOAD SWAP2 POP PUSH1 0x1F NOT PUSH1 0x3F RETURNDATASIZE ADD AND DUP3 ADD PUSH1 0x40 MSTORE RETURNDATASIZE DUP3 MSTORE RETURNDATASIZE PUSH1 0x0 PUSH1 0x20 DUP5 ADD RETURNDATACOPY PUSH2 0x98E JUMP JUMPDEST PUSH1 0x60 SWAP2 POP JUMPDEST POP DUP1 MLOAD PUSH1 0x0 SUB PUSH2 0x9BC JUMPI PUSH1 0x40 MLOAD PUSH4 0x2BFA23E7 PUSH1 0xE1 SHL DUP2 MSTORE PUSH1 0x1 PUSH1 0x1 PUSH1 0xA0 SHL SUB DUP7 AND PUSH1 0x4 DUP3 ADD MSTORE PUSH1 0x24 ADD PUSH2 0x306 JUMP JUMPDEST DUP1 MLOAD DUP2 PUSH1 0x20 ADD REVERT JUMPDEST PUSH1 0x1 PUSH1 0x1 PUSH1 0xE0 SHL SUB NOT DUP2 AND PUSH4 0xF23A6E61 PUSH1 0xE0 SHL EQ PUSH2 0x66C JUMPI PUSH1 0x40 MLOAD PUSH4 0x2BFA23E7 PUSH1 0xE1 SHL DUP2 MSTORE PUSH1 0x1 PUSH1 0x1 PUSH1 0xA0 SHL SUB DUP7 AND PUSH1 0x4 DUP3 ADD MSTORE PUSH1 0x24 ADD PUSH2 0x306 JUMP JUMPDEST PUSH1 0x1 PUSH1 0x1 PUSH1 0xA0 SHL SUB DUP5 AND EXTCODESIZE ISZERO PUSH2 0x31C JUMPI PUSH1 0x40 MLOAD PUSH4 0xBC197C81 PUSH1 0xE0 SHL DUP2 MSTORE PUSH1 0x1 PUSH1 0x1 PUSH1 0xA0 SHL SUB DUP6 AND SWAP1 PUSH4 0xBC197C81 SWAP1 PUSH2 0xA44 SWAP1 DUP10 SWAP1 DUP10 SWAP1 DUP9 SWAP1 DUP9 SWAP1 DUP9 SWAP1 PUSH1 0x4 ADD PUSH2 0x10E9 JUMP JUMPDEST PUSH1 0x20 PUSH1 0x40 MLOAD DUP1 DUP4 SUB DUP2 PUSH1 0x0 DUP8 GAS CALL SWAP3 POP POP POP DUP1 ISZERO PUSH2 0xA7F JUMPI POP PUSH1 0x40 DUP1 MLOAD PUSH1 0x1F RETURNDATASIZE SWAP1 DUP2 ADD PUSH1 0x1F NOT AND DUP3 ADD SWAP1 SWAP3 MSTORE PUSH2 0xA7C SWAP2 DUP2 ADD SWAP1 PUSH2 0x10CC JUMP JUMPDEST PUSH1 0x1 JUMPDEST PUSH2 0xAAD JUMPI RETURNDATASIZE DUP1 DUP1 ISZERO PUSH2 0x989 JUMPI PUSH1 0x40 MLOAD SWAP2 POP PUSH1 0x1F NOT PUSH1 0x3F RETURNDATASIZE ADD AND DUP3 ADD PUSH1 0x40 MSTORE RETURNDATASIZE DUP3 MSTORE RETURNDATASIZE PUSH1 0x0 PUSH1 0x20 DUP5 ADD RETURNDATACOPY PUSH2 0x98E JUMP JUMPDEST PUSH1 0x1 PUSH1 0x1 PUSH1 0xE0 SHL SUB NOT DUP2 AND PUSH4 0xBC197C81 PUSH1 0xE0 SHL EQ PUSH2 0x66C JUMPI PUSH1 0x40 MLOAD PUSH4 0x2BFA23E7 PUSH1 0xE1 SHL DUP2 MSTORE PUSH1 0x1 PUSH1 0x1 PUSH1 0xA0 SHL SUB DUP7 AND PUSH1 0x4 DUP3 ADD MSTORE PUSH1 0x24 ADD PUSH2 0x306 JUMP JUMPDEST DUP1 CALLDATALOAD PUSH1 0x1 PUSH1 0x1 PUSH1 0xA0 SHL SUB DUP2 AND DUP2 EQ PUSH2 0xB00 JUMPI PUSH1 0x0 DUP1 REVERT JUMPDEST SWAP2 SWAP1 POP JUMP JUMPDEST PUSH1 0x0 DUP1 PUSH1 0x40 DUP4 DUP6 SUB SLT ISZERO PUSH2 0xB18 JUMPI PUSH1 0x0 DUP1 REVERT JUMPDEST PUSH2 0xB21 DUP4 PUSH2 0xAE9 JUMP JUMPDEST SWAP5 PUSH1 0x20 SWAP4 SWAP1 SWAP4 ADD CALLDATALOAD SWAP4 POP POP POP JUMP JUMPDEST PUSH1 0x1 PUSH1 0x1 PUSH1 0xE0 SHL SUB NOT DUP2 AND DUP2 EQ PUSH2 0xB45 JUMPI PUSH1 0x0 DUP1 REVERT JUMPDEST POP JUMP JUMPDEST PUSH1 0x0 PUSH1 0x20 DUP3 DUP5 SUB SLT ISZERO PUSH2 0xB5A JUMPI PUSH1 0x0 DUP1 REVERT JUMPDEST DUP2 CALLDATALOAD PUSH2 0xB65 DUP2 PUSH2 0xB2F JUMP JUMPDEST SWAP4 SWAP3 POP POP POP JUMP JUMPDEST PUSH1 0x0 PUSH1 0x20 DUP3 DUP5 SUB SLT ISZERO PUSH2 0xB7E JUMPI PUSH1 0x0 DUP1 REVERT JUMPDEST POP CALLDATALOAD SWAP2 SWAP1 POP JUMP JUMPDEST PUSH1 0x0 DUP2 MLOAD DUP1 DUP5 MSTORE PUSH1 0x0 JUMPDEST DUP2 DUP2 LT ISZERO PUSH2 0xBAB JUMPI PUSH1 0x20 DUP2 DUP6 ADD DUP2 ADD MLOAD DUP7 DUP4 ADD DUP3 ADD MSTORE ADD PUSH2 0xB8F JUMP JUMPDEST POP PUSH1 0x0 PUSH1 0x20 DUP3 DUP7 ADD ADD MSTORE PUSH1 0x20 PUSH1 0x1F NOT PUSH1 0x1F DUP4 ADD AND DUP6 ADD ADD SWAP2 POP POP SWAP3 SWAP2 POP POP JUMP JUMPDEST PUSH1 0x20 DUP2 MSTORE PUSH1 0x0 PUSH2 0xB65 PUSH1 0x20 DUP4 ADD DUP5 PUSH2 0xB85 JUMP JUMPDEST PUSH1 0x0 DUP1 PUSH1 0x0 PUSH1 0x60 DUP5 DUP7 SUB SLT ISZERO PUSH2 0xBF3 JUMPI PUSH1 0x0 DUP1 REVERT JUMPDEST PUSH2 0xBFC DUP5 PUSH2 0xAE9 JUMP JUMPDEST SWAP6 PUSH1 0x20 DUP6 ADD CALLDATALOAD SWAP6 POP PUSH1 0x40 SWAP1 SWAP5 ADD CALLDATALOAD SWAP4 SWAP3 POP POP POP JUMP JUMPDEST PUSH4 0x4E487B71 PUSH1 0xE0 SHL PUSH1 0x0 MSTORE PUSH1 0x41 PUSH1 0x4 MSTORE PUSH1 0x24 PUSH1 0x0 REVERT JUMPDEST PUSH1 0x40 MLOAD PUSH1 0x1F DUP3 ADD PUSH1 0x1F NOT AND DUP2 ADD PUSH8 0xFFFFFFFFFFFFFFFF DUP2 GT DUP3 DUP3 LT OR ISZERO PUSH2 0xC50 JUMPI PUSH2 0xC50 PUSH2 0xC11 JUMP JUMPDEST PUSH1 0x40 MSTORE SWAP2 SWAP1 POP JUMP JUMPDEST PUSH1 0x0 PUSH8 0xFFFFFFFFFFFFFFFF DUP3 GT ISZERO PUSH2 0xC72 JUMPI PUSH2 0xC72 PUSH2 0xC11 JUMP JUMPDEST POP PUSH1 0x5 SHL PUSH1 0x20 ADD SWAP1 JUMP JUMPDEST PUSH1 0x0 DUP3 PUSH1 0x1F DUP4 ADD SLT PUSH2 0xC8D JUMPI PUSH1 0x0 DUP1 REVERT JUMPDEST DUP2 CALLDATALOAD PUSH1 0x20 PUSH2 0xCA2 PUSH2 0xC9D DUP4 PUSH2 0xC58 JUMP JUMPDEST PUSH2 0xC27 JUMP JUMPDEST DUP1 DUP4 DUP3 MSTORE PUSH1 0x20 DUP3 ADD SWAP2 POP PUSH1 0x20 DUP5 PUSH1 0x5 SHL DUP8 ADD ADD SWAP4 POP DUP7 DUP5 GT ISZERO PUSH2 0xCC4 JUMPI PUSH1 0x0 DUP1 REVERT JUMPDEST PUSH1 0x20 DUP7 ADD JUMPDEST DUP5 DUP2 LT ISZERO PUSH2 0xCE0 JUMPI DUP1 CALLDATALOAD DUP4 MSTORE SWAP2 DUP4 ADD SWAP2 DUP4 ADD PUSH2 0xCC9 JUMP JUMPDEST POP SWAP7 SWAP6 POP POP POP POP POP POP JUMP JUMPDEST PUSH1 0x0 DUP3 PUSH1 0x1F DUP4 ADD SLT PUSH2 0xCFC JUMPI PUSH1 0x0 DUP1 REVERT JUMPDEST DUP2 CALLDATALOAD PUSH8 0xFFFFFFFFFFFFFFFF DUP2 GT ISZERO PUSH2 0xD16 JUMPI PUSH2 0xD16 PUSH2 0xC11 JUMP JUMPDEST PUSH2 0xD29 PUSH1 0x1F DUP3 ADD PUSH1 0x1F NOT AND PUSH1 0x20 ADD PUSH2 0xC27 JUMP JUMPDEST DUP2 DUP2 MSTORE DUP5 PUSH1 0x20 DUP4 DUP7 ADD ADD GT ISZERO PUSH2 0xD3E JUMPI PUSH1 0x0 DUP1 REVERT JUMPDEST DUP2 PUSH1 0x20 DUP6 ADD PUSH1 0x20 DUP4 ADD CALLDATACOPY PUSH1 0x0 SWAP2 DUP2 ADD PUSH1 0x20 ADD SWAP2 SWAP1 SWAP2 MSTORE SWAP4 SWAP3 POP POP POP JUMP JUMPDEST PUSH1 0x0 DUP1 PUSH1 0x0 DUP1 PUSH1 0x0 PUSH1 0xA0 DUP7 DUP9 SUB SLT ISZERO PUSH2 0xD73 JUMPI PUSH1 0x0 DUP1 REVERT JUMPDEST PUSH2 0xD7C DUP7 PUSH2 0xAE9 JUMP JUMPDEST SWAP5 POP PUSH2 0xD8A PUSH1 0x20 DUP8 ADD PUSH2 0xAE9 JUMP JUMPDEST SWAP4 POP PUSH1 0x40 DUP7 ADD CALLDATALOAD PUSH8 0xFFFFFFFFFFFFFFFF DUP1 DUP3 GT ISZERO PUSH2 0xDA7 JUMPI PUSH1 0x0 DUP1 REVERT JUMPDEST PUSH2 0xDB3 DUP10 DUP4 DUP11 ADD PUSH2 0xC7C JUMP JUMPDEST SWAP5 POP PUSH1 0x60 DUP9 ADD CALLDATALOAD SWAP2 POP DUP1 DUP3 GT ISZERO PUSH2 0xDC9 JUMPI PUSH1 0x0 DUP1 REVERT JUMPDEST PUSH2 0xDD5 DUP10 DUP4 DUP11 ADD PUSH2 0xC7C JUMP JUMPDEST SWAP4 POP PUSH1 0x80 DUP9 ADD CALLDATALOAD SWAP2 POP DUP1 DUP3 GT ISZERO PUSH2 0xDEB JUMPI PUSH1 0x0 DUP1 REVERT JUMPDEST POP PUSH2 0xDF8 DUP9 DUP3 DUP10 ADD PUSH2 0xCEB JUMP JUMPDEST SWAP2 POP POP SWAP3 SWAP6 POP SWAP3 SWAP6 SWAP1 SWAP4 POP JUMP JUMPDEST PUSH1 0x0 DUP1 PUSH1 0x40 DUP4 DUP6 SUB SLT ISZERO PUSH2 0xE18 JUMPI PUSH1 0x0 DUP1 REVERT JUMPDEST DUP3 CALLDATALOAD PUSH8 0xFFFFFFFFFFFFFFFF DUP1 DUP3 GT ISZERO PUSH2 0xE30 JUMPI PUSH1 0x0 DUP1 REVERT JUMPDEST DUP2 DUP6 ADD SWAP2 POP DUP6 PUSH1 0x1F DUP4 ADD SLT PUSH2 0xE44 JUMPI PUSH1 0x0 DUP1 REVERT JUMPDEST DUP2 CALLDATALOAD PUSH1 0x20 PUSH2 0xE54 PUSH2 0xC9D DUP4 PUSH2 0xC58 JUMP JUMPDEST DUP3 DUP2 MSTORE PUSH1 0x5 SWAP3 SWAP1 SWAP3 SHL DUP5 ADD DUP2 ADD SWAP2 DUP2 DUP2 ADD SWAP1 DUP10 DUP5 GT ISZERO PUSH2 0xE73 JUMPI PUSH1 0x0 DUP1 REVERT JUMPDEST SWAP5 DUP3 ADD SWAP5 JUMPDEST DUP4 DUP7 LT ISZERO PUSH2 0xE98 JUMPI PUSH2 0xE89 DUP7 PUSH2 0xAE9 JUMP JUMPDEST DUP3 MSTORE SWAP5 DUP3 ADD SWAP5 SWAP1 DUP3 ADD SWAP1 PUSH2 0xE78 JUMP JUMPDEST SWAP7 POP POP DUP7 ADD CALLDATALOAD SWAP3 POP POP DUP1 DUP3 GT ISZERO PUSH2 0xEAE JUMPI PUSH1 0x0 DUP1 REVERT JUMPDEST POP PUSH2 0xEBB DUP6 DUP3 DUP7 ADD PUSH2 0xC7C JUMP JUMPDEST SWAP2 POP POP SWAP3 POP SWAP3 SWAP1 POP JUMP JUMPDEST PUSH1 0x0 DUP2 MLOAD DUP1 DUP5 MSTORE PUSH1 0x20 DUP1 DUP6 ADD SWAP5 POP PUSH1 0x20 DUP5 ADD PUSH1 0x0 JUMPDEST DUP4 DUP2 LT ISZERO PUSH2 0xEF6 JUMPI DUP2 MLOAD DUP8 MSTORE SWAP6 DUP3 ADD SWAP6 SWAP1 DUP3 ADD SWAP1 PUSH1 0x1 ADD PUSH2 0xEDA JUMP JUMPDEST POP SWAP5 SWAP6 SWAP5 POP POP POP POP POP JUMP JUMPDEST PUSH1 0x20 DUP2 MSTORE PUSH1 0x0 PUSH2 0xB65 PUSH1 0x20 DUP4 ADD DUP5 PUSH2 0xEC5 JUMP JUMPDEST PUSH1 0x0 DUP1 PUSH1 0x40 DUP4 DUP6 SUB SLT ISZERO PUSH2 0xF27 JUMPI PUSH1 0x0 DUP1 REVERT JUMPDEST PUSH2 0xF30 DUP4 PUSH2 0xAE9 JUMP JUMPDEST SWAP2 POP PUSH1 0x20 DUP4 ADD CALLDATALOAD DUP1 ISZERO ISZERO DUP2 EQ PUSH2 0xF45 JUMPI PUSH1 0x0 DUP1 REVERT JUMPDEST DUP1 SWAP2 POP POP SWAP3 POP SWAP3 SWAP1 POP JUMP JUMPDEST PUSH1 0x0 DUP1 PUSH1 0x40 DUP4 DUP6 SUB SLT ISZERO PUSH2 0xF63 JUMPI PUSH1 0x0 DUP1 REVERT JUMPDEST PUSH2 0xF6C DUP4 PUSH2 0xAE9 JUMP JUMPDEST SWAP2 POP PUSH2 0xF7A PUSH1 0x20 DUP5 ADD PUSH2 0xAE9 JUMP JUMPDEST SWAP1 POP SWAP3 POP SWAP3 SWAP1 POP JUMP JUMPDEST PUSH1 0x0 DUP1 PUSH1 0x0 DUP1 PUSH1 0x0 PUSH1 0xA0 DUP7 DUP9 SUB SLT ISZERO PUSH2 0xF9B JUMPI PUSH1 0x0 DUP1 REVERT JUMPDEST PUSH2 0xFA4 DUP7 PUSH2 0xAE9 JUMP JUMPDEST SWAP5 POP PUSH2 0xFB2 PUSH1 0x20 DUP8 ADD PUSH2 0xAE9 JUMP JUMPDEST SWAP4 POP PUSH1 0x40 DUP7 ADD CALLDATALOAD SWAP3 POP PUSH1 0x60 DUP7 ADD CALLDATALOAD SWAP2 POP PUSH1 0x80 DUP7 ADD CALLDATALOAD PUSH8 0xFFFFFFFFFFFFFFFF DUP2 GT ISZERO PUSH2 0xFDC JUMPI PUSH1 0x0 DUP1 REVERT JUMPDEST PUSH2 0xDF8 DUP9 DUP3 DUP10 ADD PUSH2 0xCEB JUMP JUMPDEST PUSH1 0x1 DUP2 DUP2 SHR SWAP1 DUP3 AND DUP1 PUSH2 0xFFC JUMPI PUSH1 0x7F DUP3 AND SWAP2 POP JUMPDEST PUSH1 0x20 DUP3 LT DUP2 SUB PUSH2 0x101C JUMPI PUSH4 0x4E487B71 PUSH1 0xE0 SHL PUSH1 0x0 MSTORE PUSH1 0x22 PUSH1 0x4 MSTORE PUSH1 0x24 PUSH1 0x0 REVERT JUMPDEST POP SWAP2 SWAP1 POP JUMP JUMPDEST PUSH4 0x4E487B71 PUSH1 0xE0 SHL PUSH1 0x0 MSTORE PUSH1 0x32 PUSH1 0x4 MSTORE PUSH1 0x24 PUSH1 0x0 REVERT JUMPDEST DUP1 DUP3 ADD DUP1 DUP3 GT ISZERO PUSH2 0x1A3 JUMPI PUSH4 0x4E487B71 PUSH1 0xE0 SHL PUSH1 0x0 MSTORE PUSH1 0x11 PUSH1 0x4 MSTORE PUSH1 0x24 PUSH1 0x0 REVERT JUMPDEST PUSH1 0x40 DUP2 MSTORE PUSH1 0x0 PUSH2 0x106C PUSH1 0x40 DUP4 ADD DUP6 PUSH2 0xEC5 JUMP JUMPDEST DUP3 DUP2 SUB PUSH1 0x20 DUP5 ADD MSTORE PUSH2 0x107E DUP2 DUP6 PUSH2 0xEC5 JUMP JUMPDEST SWAP6 SWAP5 POP POP POP POP POP JUMP JUMPDEST PUSH1 0x1 PUSH1 0x1 PUSH1 0xA0 SHL SUB DUP7 DUP2 AND DUP3 MSTORE DUP6 AND PUSH1 0x20 DUP3 ADD MSTORE PUSH1 0x40 DUP2 ADD DUP5 SWAP1 MSTORE PUSH1 0x60 DUP2 ADD DUP4 SWAP1 MSTORE PUSH1 0xA0 PUSH1 0x80 DUP3 ADD DUP2 SWAP1 MSTORE PUSH1 0x0 SWAP1 PUSH2 0x10C1 SWAP1 DUP4 ADD DUP5 PUSH2 0xB85 JUMP JUMPDEST SWAP8 SWAP7 POP POP POP POP POP POP POP JUMP JUMPDEST PUSH1 0x0 PUSH1 0x20 DUP3 DUP5 SUB SLT ISZERO PUSH2 0x10DE JUMPI PUSH1 0x0 DUP1 REVERT JUMPDEST DUP2 MLOAD PUSH2 0xB65 DUP2 PUSH2 0xB2F JUMP JUMPDEST PUSH1 0x1 PUSH1 0x1 PUSH1 0xA0 SHL SUB DUP7 DUP2 AND DUP3 MSTORE DUP6 AND PUSH1 0x20 DUP3 ADD MSTORE PUSH1 0xA0 PUSH1 0x40 DUP3 ADD DUP2 SWAP1 MSTORE PUSH1 0x0 SWAP1 PUSH2 0x1115 SWAP1 DUP4 ADD DUP7 PUSH2 0xEC5 JUMP JUMPDEST DUP3 DUP2 SUB PUSH1 0x60 DUP5 ADD MSTORE PUSH2 0x1127 DUP2 DUP7 PUSH2 0xEC5 JUMP JUMPDEST SWAP1 POP DUP3 DUP2 SUB PUSH1 0x80 DUP5 ADD MSTORE PUSH2 0x113B DUP2 DUP6 PUSH2 0xB85 JUMP JUMPDEST SWAP9 SWAP8 POP POP POP POP POP POP POP POP JUMP INVALID LOG2 PUSH5 0x6970667358 0x22 SLT KECCAK256 DUP11 0xC2 0xE9 PUSH21 0xBA79611762983BFF00F7A7C2C6FBB661512908A54 0xDF PUSH3 0xF39B37 0xD7 RETURNDATACOPY PUSH5 0x736F6C6343 STOP ADDMOD OR STOP CALLER "
				},
				"gasEstimates": {
					"creation": {
						"codeDepositCost": "895400",
						"executionCost": "infinite",
						"totalCost": "infinite"
					},
					"external": {
						"balanceOf(address,uint256)": "2637",
						"balanceOfBatch(address[],uint256[])": "infinite",
						"isApprovedForAll(address,address)": "infinite",
						"mint(address,uint256,uint256)": "infinite",
						"safeBatchTransferFrom(address,address,uint256[],uint256[],bytes)": "infinite",
						"safeTransferFrom(address,address,uint256,uint256,bytes)": "infinite",
						"setApprovalForAll(address,bool)": "26703",
						"supportsInterface(bytes4)": "555",
						"uri(uint256)": "infinite"
					}
				},
				"methodIdentifiers": {
					"balanceOf(address,uint256)": "00fdd58e",
					"balanceOfBatch(address[],uint256[])": "4e1273f4",
					"isApprovedForAll(address,address)": "e985e9c5",
					"mint(address,uint256,uint256)": "156e29f6",
					"safeBatchTransferFrom(address,address,uint256[],uint256[],bytes)": "2eb2c2d6",
					"safeTransferFrom(address,address,uint256,uint256,bytes)": "f242432a",
					"setApprovalForAll(address,bool)": "a22cb465",
					"supportsInterface(bytes4)": "01ffc9a7",
					"uri(uint256)": "0e89341c"
				}
			},
			"storageLayout": {
				"storage": [
					{
						"astId": 2341,
						"contract": "src/MockToken_flattened.sol:mockERC1155Token",
						"label": "_balances",
						"offset": 0,
						"slot": "0",
						"type": "t_mapping(t_uint256,t_mapping(t_address,t_uint256))"
					},
					{
						"astId": 2347,
						"contract": "src/MockToken_flattened.sol:mockERC1155Token",
						"label": "_operatorApprovals",
						"offset": 0,
						"slot": "1",
						"type": "t_mapping(t_address,t_mapping(t_address,t_bool))"
					},
					{
						"astId": 2349,
						"contract": "src/MockToken_flattened.sol:mockERC1155Token",
						"label": "_uri",
						"offset": 0,
						"slot": "2",
						"type": "t_string_storage"
					}
				],
				"types": {
					"t_address": {
						"encoding": "inplace",
						"label": "address",
						"numberOfBytes": "20"
					},
					"t_bool": {
						"encoding": "inplace",
						"label": "bool",
						"numberOfBytes": "1"
					},
					"t_mapping(t_address,t_bool)": {
						"encoding": "mapping",
						"key": "t_address",
						"label": "mapping(address => bool)",
						"numberOfBytes": "32",
						"value": "t_bool"
					},
					"t_mapping(t_address,t_mapping(t_address,t_bool))": {
						"encoding": "mapping",
						"key": "t_address",
						"label": "mapping(address => mapping(address => bool))",
						"numberOfBytes": "32",
						"value": "t_mapping(t_address,t_bool)"
					},
					"t_mapping(t_address,t_uint256)": {
						"encoding": "mapping",
						"key": "t_address",
						"label": "mapping(address => uint256)",
						"numberOfBytes": "32",
						"value": "t_uint256"
					},
					"t_mapping(t_uint256,t_mapping(t_address,t_uint256))": {
						"encoding": "mapping",
						"key": "t_uint256",
						"label": "mapping(uint256 => mapping(address => uint256))",
						"numberOfBytes": "32",
						"value": "t_mapping(t_address,t_uint256)"
					},
					"t_string_storage": {
						"encoding": "bytes",
						"label": "string",
						"numberOfBytes": "32"
					},
					"t_uint256": {
						"encoding": "inplace",
						"label": "uint256",
						"numberOfBytes": "32"
					}
				}
			},
			"userdoc": {
				"kind": "user",
				"methods": {},
				"version": 1
			}
		}
	}
}